:020000040000FA
:0400000007EF00F016
:100008006C82C5ED09F0B6EF0AF0000E8C6E000E9A
:10001800956E0F0EC16EF08663EC0BF0F28EA00E9B
:10002800196E860E1A6E010E1B6E000E1C6E98EC71
:100038000BF0000E0101166F000E156F000E086F11
:10004800000E076F000E146F010E136F0C0E99EC63
:100058000DF0010E99EC0DF0110E626E3A0EE82EBD
:10006800FED7622EFCD700D0F60E0001EC6FFF0E13
:10007800ED6F33EC0DF0C00E99EC0DF0ED0E0001B4
:10008800EC6FFF0EED6F33EC0DF063D0A8EC0DF0C4
:10009800000E0E6ED00E0D6E9FEC0DF0000E0E6E63
:1000A800000E0D6E9FEC0DF0A4EC0DF0A8EC0DF019
:1000B800000E0E6ED10E0D6E9FEC0DF0000E0101BC
:1000C8000D6F000E0D25D96EDA6A010EDA22000EC8
:1000D8005AEC0DF0DF6E01010D2B050E0D65F1D701
:1000E800010E5AEC0DF00101066FA4EC0DF0900E14
:1000F80099EC0DF0FB0E0001EC6FFE0EED6F06C1E2
:10010800EEF0EF6B05C1F0F0F16B04C1F2F0F36BA8
:1001180033EC0DF0D00E99EC0DF00A0E0001EC6FE7
:10012800FF0EED6F02C1EEF0EF6B01C1F0F0F16B65
:1001380000C1F2F0F36B33EC0DF00D0E636EAF0EF1
:10014800626EB60EE82EFED7622EFCD7632EFAD763
:1001580000D00001AE51D8B499D7010E99EC0DF03A
:10016800110E626E3A0EE82EFED7622EFCD700D032
:100178008F0E0001EC6FFE0EED6F33EC0DF0330EB9
:10018800636EBB0E626EE00EE82EFED7622EFCD7C1
:10019800632EFAD7900E99EC0DF0BF0E0001EC6FAC
:1001A800FE0EED6F33EC0DF0330E636EBB0E626E18
:1001B800E00EE82EFED7622EFCD7632EFAD7010E8A
:1001C80099EC0DF0110E626E3A0EE82EFED7622EF3
:1001D800FCD700D0BE0E0001EC6FFF0EED6F33ECC4
:1001E8000DF0330E636EBB0E626EE00EE82EFED786
:1001F800622EFCD7632EFAD7900E99EC0DF0850E7F
:100208000001EC6FFF0EED6F33EC0DF0D00E99ECA2
:100218000DF01A0E636E5E0E626E6E0EE82EFED73D
:10022800622EFCD7632EFAD700D0D20E0001EC6FF5
:10023800FF0EED6F33EC0DF0330E636EBB0E626E86
:10024800E00EE82EFED7622EFCD7632EFAD7000EFA
:100258000001AE6F010E99EC0DF0110E626E3A0EB0
:10026800E82EFED7622EFCD700D09D0E0001EC6F61
:10027800FF0EED6F33EC0DF0900E99EC0DF0600E63
:100288000001EC6FFF0EED6F33EC0DF00001AE5185
:10029800D8B4FCD7010E99EC0DF0110E626E3A0E2F
:1002A800E82EFED7622EFCD700D0190E0001EC6FA5
:1002B800FF0EED6F33EC0DF0900E99EC0DF06D0E16
:1002C8000001EC6FFF0EED6F33EC0DF0330E636E33
:1002D800BB0E626EE00EE82EFED7622EFCD7632EB0
:1002E800FAD7010E0001B06F010EAF6F0101155171
:1002F8001611D8A429D013051411D8A425D0010E9D
:1003080099EC0DF0110E626E3A0EE82EFED7622EB1
:10031800FCD700D0CE0E0001EC6FFE0EED6F33EC73
:100328000DF0900E99EC0DF0A80E0001EC6FFF0E89
:10033800ED6F000EEE6F010EEF6F33EC0DF0000E57
:100348000101146F000E136F15051611D8A42DD0D6
:1003580013051411D8A429D0010E99EC0DF0110E33
:10036800626E3A0EE82EFED7622EFCD700D0800EC1
:1003780099EC0DF0EC0E0001EC6FFE0EED6F33EC16
:100388000DF0900E99EC0DF0530E0001EC6FFF0E7E
:10039800ED6FAAC0EEF0ABC0EFF033EC0DF0000E3D
:1003A8000101146F000E136F6AD0020E1519161191
:1003B800D8A42FD013051411D8A42BD0010E99EC72
:1003C8000DF0110E626E3A0EE82EFED7622EFCD7A3
:1003D80000D0B30E0001EC6FFF0EED6F33EC0DF0A3
:1003E800C00E99EC0DF0DB0E0001EC6FFF0EED6F07
:1003F80033EC0DF0D00E99EC0DF0E40E0001EC6F2B
:10040800FF0EED6F000EEF6F050EEE6F33EC0DF083
:10041800C6D7030E15191611D8A431D01305141117
:10042800D8A42DD0010E99EC0DF0110E626E3A0E83
:10043800E82EFED7622EFCD700D0A00E0001EC6F8C
:10044800FE0EED6F33EC0DF0C00E99EC0DF0910E31
:100458000001EC6FFF0EED6F33EC0DF0D00E99EC50
:100468000DF0B00E0001EC6FFE0EED6FFF0EAA2529
:10047800EE6FFF0EAB21EF6F33EC0DF090D700015C
:10048800B051D8B44BD181380F0B0F0B0101106F4D
:10049800000E0A6F000E096F000E126F000E116F2A
:1004A800000E0F6F010E0E6F710E1025F66EF76AB3
:1004B800FE0EF7220800F5CF62F0D00E62240B6F13
:1004C8000C6BFF0E0C2322D1010111511211D8A47B
:1004D80049D00E050F11D8A445D0010E99EC0DF0A6
:1004E800110E626E3A0EE82EFED7622EFCD700D0AF
:1004F800790E0001EC6FFF0EED6F710E01011025F2
:10050800F66EF76AFE0EF7220800F5500001EE6F4E
:10051800EF6B33EC0DF0900E99EC0DF0DD0E000151
:10052800EC6FFE0EED6FD89001010B35D96E0C35CE
:10053800DA6E800ED926000EDA22DECFEEF0DDCF9D
:10054800EFF033EC0DF0D00E99EC0DF0C80E000171
:10055800EC6FFF0EED6F33EC0DF0000E01010F6F25
:10056800000E0E6F11051211D8A451D00E050F11EF
:10057800D8A44DD0010E99EC0DF0110E626E3A0E12
:10058800E82EFED7622EFCD700D0790E0001EC6F62
:10059800FF0EED6F710E01011025F66EF76AFE0E63
:1005A800F7220800F5500001EE6FEF6B33EC0DF009
:1005B800900E99EC0DF0D89001010B35D96E0C35E1
:1005C800DA6E940ED926000EDA22DE04DE10D8A4E4
:1005D80008D0450E0001EC6FFF0EED6F33EC0DF007
:1005E80007D0280E0001EC6FFF0EED6F33EC0DF015
:1005F800D00E99EC0DF0C80E0001EC6FFF0EED6FF8
:1006080033EC0DF0000E01010F6F000E0E6F020E9D
:1006180011191211D8A451D00E050F11D8A44DD01C
:10062800010E99EC0DF0110E626E3A0EE82EFED70F
:10063800622EFCD700D0790E0001EC6FFF0EED6F33
:10064800710E01011025F66EF76AFE0EF7220800FA
:10065800F5500001EE6FEF6B33EC0DF0900E99EC56
:100668000DF0D89001010B35D96E0C35DA6E170EE6
:10067800D926010EDA22DE04DE10D8A408D03A0EFC
:100688000001EC6FFF0EED6F33EC0DF007D0370E65
:100698000001EC6FFF0EED6F33EC0DF0D00E99EC0E
:1006A8000DF0C80E0001EC6FFF0EED6F33EC0DF08E
:1006B800000E01010F6F000E0E6FB80E09191DE133
:1006C8000B0E0A19D8A419D0000E0F6F010E0E6F69
:1006D800114B122B11C10CF012C10DF0000E0F6E50
:1006E800030E0E6EF5EC0AF00CC011F10DC012F1FC
:1006F800000E01010A6F000E096F094B0A2B040E48
:10070800626E3E0EE82EFED7622EFCD70001AF5176
:10071800D8B4DAD6000EB06F000EAF6FD00E01015C
:10072800071912E1070E0819D8A40ED0000E146F8D
:10073800010E136F154B162B030E1515156F166B3F
:10074800000E086F000E076F074B082B040E626E31
:100758003E0EE82EFED7622EFCD7C8D554C0D9FF6E
:1007680055C0DAFFDECFF6FFDDCFF7FF0800F55002
:10077800250AD8A4DFD154C0D9FF55C0DAFFDE2A34
:10078800000EDD22000E656E000E646E64C068F017
:1007980065C069F066686768000E0001E26F000EC8
:1007A80014D0688054C0D9FF55C0DAFFDE2A000E85
:1007B800DD222ED06882F6D76884F4D76886F2D70F
:1007C8006888F0D7000EE26F010EE16F21D054C0A7
:1007D800D9FF55C0DAFFDECFF6FFDDCFF7FF0800FF
:1007E800F550586E596A5950000AD8A4EBD758509A
:1007F800200AD8B4E3D7030AD8B4E2D7080AD8B491
:10080800DBD7060AD8B4CDD71D0AD8B4D3D7DAD7E0
:10081800E151E211D8B4DBD768B0689254C0D9FF6F
:1008280055C0DAFFDECFF6FFDDCFF7FF0800F55041
:100838002A0AD8A423D054C0D9FF55C0DAFFDE2A2B
:10084800000EDD2256C0D9FF57C0DAFFDFCF58F0BF
:10085800020EDE26DFCF59F0000EDD2258C0D9FF88
:1008680059C0DAFFDECF64F0DDCF65F065AE40D069
:100878006880646C651ED8B0652A3AD054C0D9FF28
:1008880055C0DAFFDECF13F0DDCF14F093EC08F09B
:1008980013C064F014C065F007D054C0D9FF55C028
:1008A800DAFFDE2A000EDD22D00E586EFF0E596EDA
:1008B80054C0D9FF55C0DAFFDECFF6FFDDCFF7FF12
:1008C8000800F5505A6E5B6A58505A2659505B22F8
:1008D8005B5006E10A0E5A5CD8B002D0010E01D076
:1008E800000E0001E36FE46BE351E411D8A4D5D7FF
:1008F80054C0D9FF55C0DAFFDECFF6FFDDCFF7FFD2
:100908000800F550630AD8A426D054C0D9FF55C0B2
:10091800DAFFDE2A000EDD2256C0D9FF57C0DAFF03
:10092800DFCF58F0020EDE26DFCF59F0000EDD22B1
:1009380058C0D9FF59C0DAFFDF50E56F52C02BF01D
:1009480053C02CF0E5C02DF0F1EC0BF02BC052F0A9
:100958002CC053F0120054C0D9FF55C0DAFFDECFC7
:10096800F6FFDDCFF7FF0800F550640AD8B40DD0C4
:1009780054C0D9FF55C0DAFFDECFF6FFDDCFF7FF51
:100988000800F550690AD8A43FD054C0D9FF55C013
:10099800DAFFDE2A000EDD2256C0D9FF57C0DAFF83
:1009A800DFCF58F0020EDE26DFCF59F0000EDD2231
:1009B80058C0D9FF59C0DAFFDECFD1F0DDCFD2F071
:1009C800000ED2BFFF0ED36FD46FD56FD66FD76F1F
:1009D800D86F52C02BF053C02CF0D1C02DF0D2C02C
:1009E8002EF0D3C02FF0D4C030F0D5C031F0D6C02F
:1009F80032F0D7C033F0D8C034F0B8EC05F02BC0D3
:100A080052F02CC053F0120054C0D9FF55C0DAFF81
:100A1800DECFF6FFDDCFF7FF0800F550780AD8B42F
:100A28000DD054C0D9FF55C0DAFFDECFF6FFDDCFB9
:100A3800F7FF0800F550580AD8A44DD054C0D9FF84
:100A480055C0DAFFDECFF6FFDDCFF7FF0800F5CFA0
:100A5800E5F054C0D9FF55C0DAFFDE2A000EDD22CA
:100A680056C0D9FF57C0DAFFDFCF58F0020EDE2696
:100A7800DFCF59F0000EDD2258C0D9FF59C0DAFF88
:100A8800DECF5AF0DDCF5BF05AC0D9F05BC0DAF0A8
:100A9800DB6BDC6BDD6BDE6BDF6BE06B52C02BF06E
:100AA80053C02CF0D9C02DF0DAC02EF0DBC02FF0E7
:100AB800DCC030F0DDC031F0DEC032F0DFC033F032
:100AC800E0C034F0E5C035F0D9EC06F02BC052F0A8
:100AD8002CC053F0120054C0D9FF55C0DAFFDECF46
:100AE800F6FFDDCFF7FF0800F550250AD8A416D089
:100AF80054C0D9FF55C0DAFFDE2A000EDD22000EF1
:100B0800116E250E106E52C012F053C013F02DEC6A
:100B18000BF0000E536E010E526E120054C0D9FF36
:100B280055C0DAFFDE2A000EDD22000E536E000EDD
:100B3800526E120054C0D9FF55C0DAFFDECFF6FF5F
:100B4800DDCFF7FF0800F550106E116A52C012F0A1
:100B580053C013F02DEC0BF054C0D9FF55C0DAFF89
:100B6800DE2A000EDD22D5D72DC045F02EC046F076
:100B78002FC047F030C048F031C049F032C04AF0C9
:100B880033C04BF034C04CF04CAE02D0010E01D053
:100B9800000E436E446A43504410D8B410D04C1E23
:100BA8004B1E4A1E491E481E471E461E456C000E17
:100BB80046224722482249224A224B224C2267AE2B
:100BC800689267BE05D0675008E16604D8B005D0C2
:100BD800000E406E010E3F6E04D066C03FF067C045
:100BE80040F064C041F065C042F043504410D8A4BE
:100BF80002D068A403D04106D8A04206000E4E6E6B
:100C08001F0E4D6E000E0001D06F7CD04D06D8A08F
:100C18004E06B10E4D24D96E000E4E20DA6E45C038
:100C28000CF046C00DF047C00EF048C00FF049C0A8
:100C380010F04AC011F04BC012F04CC013F00A0E6D
:100C4800146E000E156E000E166E000E176E000E56
:100C5800186E000E196E000E1A6E000E1B6E33EC25
:100C680009F00CC035F00DC036F00EC037F00FC0DB
:100C780038F010C039F011C03AF012C03BF013C080
:100C88003CF035C01EF037C01FF092EC0CF01E503F
:100C9800300FDF6E3F06D8A040064106D8A04206B6
:100CA80045C00CF046C00DF047C00EF048C00FF02C
:100CB80049C010F04AC011F04BC012F04CC013F0FC
:100CC8000A0E146E000E156E000E166E000E176ECC
:100CD800000E186E000E196E000E1A6E000E1B6EB6
:100CE800EFEC07F00CC045F00DC046F00EC047F021
:100CF8000FC048F010C049F011C04AF012C04BF0C4
:100D080013C04CF04EBE1FD04E5003E14D04D8A086
:100D18001AD0455046104710481049104A104B1039
:100D28004C10D8A473D740BE05D0405002E13F0410
:100D3800D8B06CD742BE07D0425003E14104D8A0D6
:100D480002D068B263D743504410D8A402D068A434
:100D580017D04D06D8A04E0643504410D8A404D04E
:100D6800000E3E6E2B0E03D0000E3E6E2D0E3D6E15
:100D7800B10E4D24D96E000E4E20DA6E3DC0DFFF55
:100D88002BC020F02CC021F0B10E4D24226E000E95
:100D98004E20236E41C024F042C025F02AEC0AF010
:100DA80020C02BF021C02CF0120067AE689267BEFD
:100DB80005D0675008E16604D8B005D0000E436E30
:100DC800010E426E04D066C042F067C043F064C0B2
:100DD80044F065C045F068A804D0FE0E4426FF0E16
:100DE80045222DC046F02EC047F02FC048F030C035
:100DF80049F031C04AF032C04BF033C04CF034C037
:100E08004DF0000E4F6E1F0E4E6E000E0001D06F9B
:100E180093D04E06D8A04F060F0E4614506E516A56
:100E280051BE08D0515004E10A0E505CD8A002D03F
:100E3800570E01D0300E5024506E000E5120516EC6
:100E4800BF0E366EFF0E376E3550386E396A365023
:100E5800382637503922395006E11A0E385CD8B096
:100E680002D0010E01D0000E3E6E3F6A3E503F1088
:100E7800D8B427D09F0E366EFF0E376E200E501056
:100E8800386E000E5110396E3650382637503922D8
:100E9800395006E11A0E385CD8B002D0010E01D0E4
:100EA800000E406E416A40504110D8B40AD050C07C
:100EB80012F051C013F018EC0CF012C050F013C02F
:100EC80051F0B10E4E24D96E000E4F20DA6E50C08C
:100ED800DFFF4206D8A043064406D8A0450646C010
:100EE80036F047C037F048C038F049C039F04AC03A
:100EF8003AF04BC03BF04CC03CF04DC03DF0050E05
:100F080009D0D8903D323C323B323A32393238320D
:100F180037323632E82EF5D736C046F037C047F0BC
:100F280038C048F039C049F03AC04AF03BC04BF0ED
:100F38003CC04CF03DC04DF04FBE20D04F5004E1B6
:100F4800020E4E5CD8A01AD04650471048104910DF
:100F58004A104B104C104D10D8A45BD743BE05D097
:100F6800435002E14204D8B054D745BE07D045509B
:100F780003E14404D8A002D068B24BD768A816D0C1
:100F88004E06D8A04F06B10E4E24D96E000E4F2043
:100F9800DA6E35C0DFFF4E06D8A04F06B10E4E24DC
:100FA800D96E000E4F20DA6E300EDF6E2BC020F0A7
:100FB8002CC021F0B10E4E24226E000E4F20236E5D
:100FC80044C024F045C025F02AEC0AF020C02BF0DC
:100FD80021C02CF01200000E1D6E1BAE12D01B1E7D
:100FE8001A1E191E181E171E161E151E146C000E2A
:100FF800152216221722182219221A221B22010E44
:101008001D6E13AE12D0131E121E111E101E0F1EBF
:101018000E1E0D1E0C6C000E0D220E220F22102229
:10102800112212221322010E1D1A20EE1EF0070EA5
:10103800DE6AE806FDE21450151016101710181095
:1010480019101A101B10D8B446D0010E1C6E0AD005
:10105800D8901436153616361736183619361A3605
:101068001B361C2A1BAEF4D7D8901E361F362036E6
:101078002136223623362436253614500C5C15507A
:101088000D5816500E5817500F5818501058195020
:1010980011581A5012581B501358D8A011D0145078
:1010A8000C5E15500D5A16500E5A17500F5A1850FC
:1010B800105A1950115A1A50125A1B50135A1E809E
:1010C800D8901B321A3219321832173216321532AA
:1010D80014321C2EC9D71D50D8B410D0251E241E7A
:1010E800231E221E211E201E1F1E1E6C000E1F22E4
:1010F8002022212222222322242225221EC00CF073
:101108001FC00DF020C00EF021C00FF022C010F05B
:1011180023C011F024C012F025C013F01200000EF5
:10112800216E000E206E000E1A6E000E196E02D08F
:10113800134A142A010E1F6E13C0F6FF14C0F7FFDE
:101148000800F550200AD8B418D0F70E156EFF0E17
:10115800166E13C0F6FF14C0F7FF0800F550176E9F
:10116800186A1550172616501822185004E1050E53
:10117800175CD8A002D0000E1F6E1FC01BF01C6A9F
:101188001B501C10D8B408D0D3D7000E1A6E010E0D
:10119800196E134A142A2ED013C0F6FF14C0F7FF95
:1011A8000800F550156E166A1650000AD8A422D009
:1011B80015502B0AD8B4EDD7060AD8B4E6D71AD0FA
:1011C80020C00CF021C00DF0000E0F6E0A0E0E6E3E
:1011D80047EC0DF013C0F6FF14C0F7FF0800F550F8
:1011E8000C5E000E0D5A300E0C24206E000E0D20E1
:1011F800216ECFD7D00E156EFF0E166E13C0F6FFF8
:1012080014C0F7FF0800F550176E186A1550172616
:1012180016501822185006E10A0E175CD8B002D0F2
:10122800010E01D0000E1D6E1E6A1D501E10D8A49E
:10123800C7D719501A10D8A40DD020C015F021C056
:1012480016F0151E161E154A162A15C013F016C0DC
:1012580014F0120020C013F021C014F01200000E88
:101268001D6E13AE12D0131E121E111E101E0F1E5D
:101278000E1E0D1E0C6C000E0D220E220F221022C7
:10128800112212221322010E1D6E1BAE10D01B1E3E
:101298001A1E191E181E171E161E151E146C000E77
:1012A800152216221722182219221A221B2214503C
:1012B800151016101710181019101A101B10D8B482
:1012C8003CD0010E1C6E0AD0D8901436153616364E
:1012D8001736183619361A361B361C2A1BAEF4D7A1
:1012E80014500C5C15500D5816500E5817500F58C6
:1012F80018501058195011581A5012581B5013589A
:10130800D8A010D014500C5E15500D5A16500E5A15
:1013180017500F5A1850105A1950115A1A50125A79
:101328001B50135AD8901B321A32193218321732FE
:101338001632153214321C2ED3D71D50D8B410D003
:10134800131E121E111E101E0F1E0E1E0D1E0C6CDB
:10135800000E0D220E220F22102211221222132219
:101368000CC00CF00DC00DF00EC00EF00FC00FF049
:1013780010C010F011C011F012C012F013C013F019
:1013880012000600F6CF05F0F7CF06F0F8CF07F009
:10139800F5CF08F0F0A050D0F09081380F0B0F0B6C
:1013A8000B6E710E0B24F66EF76AFE0EF72208001C
:1013B800F550410AD8A404D0010E0001AE6F3CD00C
:1013C800710E0B24F66EF76AFE0EF7220800F55030
:1013D8002A0AD8A404D0010E0001AF6F2DD0000E48
:1013E8000A6E000E096E1DD0710E0B24F66EF76A98
:1013F800FE0EF7220800F550016E026A0950036ECE
:10140800046A300E0326000E04220150031807E177
:1014180002500418D8A403D0010EB06F0DD0094AA9
:101428000A2A0001AA51095C0A50800A016EAB51D0
:10143800800A0158D8A0D8D708C0F5FF07C0F8FF20
:1014480006C0F7FF05C0F6FF6C92110068A00AD02D
:1014580022C019F023C01AF020C01BF021C01CF0D4
:101468005CEC0CF025BE05D024C029F025C02AF07C
:1014780004D0000E2A6E000E296E000E286E000E93
:10148800276E0CD0000E116E200E106E20C012F0C8
:1014980021C013F02DEC0BF0274A282A2950275C8D
:1014A8002850800A266E2A50800A2658D8A0EAD7E3
:1014B80068B00AD022C019F023C01AF020C01BF06F
:1014C80021C01CF05CEC0CF022C00CF023C00DF025
:1014D80009EC0DF029500C24206E2A500D20216EA5
:1014E8001200000E146E000E156E000E166E000E21
:1014F800176E1050111012101310D8B42AD0010E04
:10150800186E06D0D8901036113612361336182AAF
:1015180013AEF8D7D890143615361636173610503D
:101528000C5C11500D5812500E5813500F58D8A07B
:1015380009D010500C5E11500D5A12500E5A13500B
:101548000F5A1480D8901332123211321032182EDA
:10155800E1D714C00CF015C00DF016C00EF017C07E
:101568000FF01200EE0EF66E1A0EF76E000EF86E01
:1015780001EE17F010EE14F00900F5CFEEFFE5507C
:10158800E150FAE1E60EF66E190EF76E000EF86EEF
:1015980000EE80F010EE2CF00900F5CFEEFFE550DC
:1015A800E150FAE1580EF66E1B0EF76E000EF86E5B
:1015B8000900F5CF6AF00900F5CF6BF000EEACF04A
:1015C800250EEE6AE806FDE1696A686A676A666A76
:1015D800656A646A6C906C92000EF86E000109EFFF
:1015E80000F0000E116E0DAE06D00C6C0D1ED8B0BA
:1015F8000D2A010E116E0FAE04D00E6C0F1ED8B05E
:101608000F2A0E500F10D8B418D0010E106E04D047
:10161800D8900E360F36102A0FAEFAD70E500C5C43
:101628000F500D58D8A004D00E500C5E0F500D5A14
:10163800D8900F320E32102EF1D71150D8B404D0F2
:101648000C6C0D1ED8B00D2A0CC00CF00DC00DF09E
:10165800120012501310D8B404D012501310D8A48A
:1016680004D0105093EC0DF0120020EE04F012504C
:10167800D9261350DA22DE50DE10D8B416D020EE68
:1016880004F01250D9261350DA2210EE02F012504C
:10169800E1261350E222DE50E65CE650800A186E1E
:1016A800DE50800A1858D8B0120020EE02F012500E
:1016B800D9261350DA22DE2A000EDD221200310E5E
:1016C800106EB20EE82EFED7102EFCD700D08C94E8
:1016D800030E6CEC0DF0110E106E3A0EE82EFED7CC
:1016E800102EFCD700D0030E6CEC0DF07D0EE82E0A
:1016F800FED7320E81EC0DF0280E81EC0DF0080EAD
:1017080081EC0DF0010E81EC0DF0110E106E3A0E09
:10171800E82EFED7102EFCD700D0060E81EC0DF077
:101728000F0E99EC0DF01200C69A94869488800EDC
:101738000C6E960E0D6E980E0E6E000E0F6E19C082
:101748001DF01AC01EF01BC01FF01CC020F0020EB6
:10175800D8901D361E361F362036E82EF9D71DC004
:1017680010F01EC011F01FC012F020C013F075EC6D
:101778000AF00C04C86E800EC76E280EC66E000EE6
:10178800C56E1200E8C05CF0E9C05DF0000E000113
:10179800AD6F000EAC6F13D0E6C052F0E7C053F047
:1017A8005C0E546E000E556EEAC056F0EBC057F052
:1017B800B2EC03F052500001AC275350AD235CC08B
:1017C800F6FF5DC0F7FF0800F5500009D8A4E4D77C
:1017D800ACC0E6F0ADC0E7F0120064506510D8A4C4
:1017E80005D064C02EF065C02FF006D0FF0E64242B
:1017F8002E6EFF0E65202F6E2DC0B1F0000E000179
:10180800B26F2BC020F02CC021F0B10E226E000E5A
:10181800236E2EC024F02FC025F02AEC0AF020C039
:101828002BF021C02CF012009F0E146EFF0E156EC7
:1018380012C016F013C017F01450162615501722B0
:10184800175006E11A0E165CD8B002D0010E01D06E
:10185800000E186E196A18501910D8B405D05F0E0A
:101868001214126E136A120012C012F013C013F091
:101878001200010E126E200E0C180D10D8B414D0E0
:10188800F70E0E6EFF0E0F6E0CC010F00DC011F0AB
:101898000E5010260F501122115004E1050E105C55
:1018A800D8A002D0000E126E12C00CF00D6A120001
:1018B800000E1F6E000E1E6E0BD01DC010F0116AB8
:1018C8001BC012F01CC013F02DEC0BF01E4A1F2A8F
:1018D8001E501924D96E1F501A20DA6EDF501D6E63
:1018E8001D50D8B41200E9D79F0E0E6EFF0E0F6E72
:1018F800200E0C10106E000E0D10116E0E501026DA
:101908000F501122115006E11A0E105CD8B002D007
:10191800010E01D0000E0C6E0D6A12001FBE05D01C
:101928001F5010E11E04D8B00DD01EC020F01FC0FB
:1019380021F0201E211E204A212A20C01EF021C08D
:101948001FF012001EC01EF01FC01FF012009F0ED5
:101958000E6EFF0E0F6E0CC010F00DC011F00E5081
:1019680010260F501122115006E11A0E105CD8B043
:1019780002D0010E01D0000E0C6E0D6A1200BF0ECF
:101988000E6EFF0E0F6E0CC010F00DC011F00E5051
:1019980010260F501122115006E11A0E105CD8B013
:1019A80002D0010E01D0000E0C6E0D6A1200D00E8E
:1019B8000E6EFF0E0F6E0CC010F00DC011F00E5021
:1019C80010260F501122115006E10A0E105CD8B0F3
:1019D80002D0010E01D0000E0C6E0D6A1200140028
:1019E8001E0028003B007B00D4004C019001FFFF43
:1019F800FFFF0100010001000000000001000100DC
:101A08000000FFFFFFFF050008000CC00EF00DC02E
:101A18000FF002D00C4A0D2A0CC0D9FF0DC0DAFF16
:101A2800DF50D8A4F7D70E500C5C0C6E0F500D5831
:101A38000D6E1200000EF2BE010E0C6EF29E8C8628
:101A4800140EE82EFED700D08C96530EE82EFED743
:101A580000F00CB002D0F29E01D0F28E1200EE0E11
:101A6800606E000E616E000E0001E66F000EE76FFB
:101A7800ECC0E8F0EDC0E9F0600EEA6F000EEB6F25
:101A8800C6EC0BF012000C500E02F3CF10F0F4CF9E
:101A980011F00C500F02F35011260D500E02F350A6
:101AA800112610C00CF011C00DF012000D6E8AEC5A
:101AB8000DF0C5868AEC0DF0C9CF0EF08AEC0DF05A
:101AC8000DB002D0C59A01D0C58AC5880E50120043
:101AD8000D6E8C500F0B8C6E0D38F00B8C108C6EBD
:101AE8001EEC0DF0120001000100010000000000D2
:101AF800010001000000FFFFFFFF0E6E0E380F0B04
:101B08006CEC0DF00E506CEC0DF01200C7B4FED763
:101B1800C5CF0CF01F0E0C16D8B41200F7D70F6EF5
:101B28008C840F5081EC0DF012000F6E8C940F50C6
:101B380081EC0DF012008AEC0DF00DC0C9FF120007
:101B48008AEC0DF0C58412008AEC0DF0C5801200F5
:021B58001E006D
:10FE7000003132334134353642373839432A302362
:10FE80004400405713030602195010400004104963
:10FE900074277320796120626F7920416C69210099
:10FEA000496E646976696475616C20496E666F009D
:10FEB0005072657373203020746F202564200048D1
:10FEC000652067657474696E20686F7420004F70D8
:10FED00065726174696F6E2054696D650044697361
:10FEE00074616E636520256420636D0023206F6656
:10FEF0002043616E69737465727300253032782F08
:10FF0000253032782F2530327800253032783A2566
:10FF10003032783A253032780043616E6973746507
:10FF20007220496E6465780043616E69737465720E
:10FF300020456D707479004E6F2042616C6C2041D9
:10FF4000646465640043616E69737465722046750C
:10FF50006C6C0025642043616E6973746572730074
:10FF60007669657720726573756C7473007374615C
:10FF700072747320617420300043616E736974651C
:10FF80007220256300416C6D6F737420646F6E6521
:10FF9000006F662043616E6973746572005072650C
:10FFA0007373204120746F002564207365636F6E46
:10FFB00064730023206F662042616C6C7300486993
:10FFC0002043756C6C2021002A20746F20657869AD
:10FFD0007400414E4420444F4E4500737570706C60
:10FFE0006965640025642062616C6C7300746F2025
:0FFFF00073746172740050726573732041000066
:020000040020DA
:08000000FFFFFFFFFFFFFFFF00
:020000040030CA
:0E000000FF021F1EFF8381FF0F400FE00F4025
:00000001FF
