:020000040000FA
:0400000007EF00F016
:0A000800748221ED0DF0A8EF0EF058
:10100000003132334134353642373839432A3023C0
:101010004400501040000410497427732079612067
:10102000626F7920416C692100496E646976696458
:1010300075616C20496E666F005072657373203065
:1010400020746F20256420004F7065726174696F91
:101050006E2054696D650044697374616E63652028
:10106000256420636D0023206F662043616E6973E1
:10107000746572730025642043616E6973746572D0
:10108000730043616E7369746572202563006F6637
:101090002043616E69737465720025642073656313
:1010A0006F6E64730023206F662042616C6C730066
:1010B000737570706C6965640025642062616C6C86
:0310C000730000BA
:1010C400000E8C6E000E956E0F0EC16EF086F8EC5D
:1010D4000DF0F28E000E0101066F000E056F000E7A
:1010E400016F000E006F000E046F010E036F180EE7
:1010F400686E100E696E2CEC0FF01A0E0001FD6F75
:101104005E0EFC6F6E0EE82EFED7FC2FFCD7FD2F73
:10111400FAD700F0010E5AEC0FF0110E0001FC6F2B
:101124003A0EE82EFED7FC2FFCD700F00101055142
:101134000611D8A42BD003050411D8A427D0010E7E
:101144005AEC0FF0110E0001FC6F3A0EE82EFED798
:10115400FC2FFCD700F00C0E5AEC0FF0480E686E12
:10116400100E696E2CEC0FF0900E5AEC0FF09A0EE4
:10117400686E100E696E000E6B6E1E0E6A6E2CEC9D
:101184000FF0000E0101046F000E036F0505061138
:10119400D8A42BD003050411D8A427D0010E5AECEF
:1011A4000FF0110E0001FC6F3A0EE82EFED7FC2F53
:1011B400FCD700F0800E5AEC0FF0660E686E100E2D
:1011C400696E2CEC0FF0900E5AEC0FF0750E686EF1
:1011D400100E696ED2C06AF0D3C06BF02CEC0FF025
:1011E400000E0101046F000E036F020E05190611B3
:1011F400D8A431D003050411D8A42DD0010E5AEC83
:101204000FF0110E0001FC6F3A0EE82EFED7FC2FF2
:10121400FCD700F0A50E686E100E696E2CEC0FF072
:10122400C00E5AEC0FF0B00E686E100E696E2CEC06
:101234000FF0D00E5AEC0FF0B90E686E100E696EF6
:10124400000E6B6E050E6A6E2CEC0FF0000E0101A1
:10125400046F000E036F030E05190611D8A434D0D1
:1012640003050411D8A430D0010E5AEC0FF0110E6E
:101274000001FC6F3A0EE82EFED7FC2FFCD700F0DD
:10128400290E686E100E696E2CEC0FF0C00E5AEC2D
:101294000FF08E0E686E100E696E2CEC0FF0D00EEF
:1012A4005AEC0FF0390E686E100E696EFF0E0001D5
:1012B400D2256A6EFF0ED3216B6E2CEC0FF0000E5C
:1012C4000101046F000E036F0001D751D8B44BD055
:1012D400010E5AEC0FF0110E0001FC6F3A0EE82ECD
:1012E400FED7FC2FFCD700F081380F0B0F0B010148
:1012F400026F820E686E100E696E010E0225F66E84
:10130400F76A100EF7220800F5506A6E6B6A2CEC2F
:101314000FF0900E5AEC0FF0570E686E100E696EB7
:10132400010E01010225F66EF76A100EF72208007D
:10133400F5500001FC6FFD6BD890FC37FD37340E7F
:10134400FC25D96E000EFD21DA6EDECF6AF0DDCF0A
:101354006BF02CEC0FF00001D651D8B4FCD7000E82
:10136400D76F000ED66FD00E0101001912E1070EDF
:101374000119D8A40ED0000E046F010E036F054BA3
:10138400062B030E0515056F066B000E016F000E8C
:10139400006F004B012B040E0001FC6F3D0EE82E84
:1013A400FED7FC2FFCD700D0C1D62DC045F02EC0EF
:1013B40046F02FC047F030C048F031C049F032C089
:1013C4004AF033C04BF034C04CF04CAE02D0010EA6
:1013D40001D0000E436E446A43504410D8B410D078
:1013E4004C1E4B1E4A1E491E481E471E461E456C77
:1013F400000E46224722482249224A224B224C22EE
:1014040071AE729271BE05D0715008E17004D8B00B
:1014140005D0000E406E010E3F6E04D070C03FF048
:1014240071C040F06EC041F06FC042F043504410B0
:10143400D8A402D072A403D04106D8A04206000E5C
:101444004E6E1F0E4D6E000E0001F76F7CD04D06E0
:10145400D8A04E06D80E4D24D96E000E4E20DA6E5A
:1014640045C00CF046C00DF047C00EF048C00FF068
:1014740049C010F04AC011F04BC012F04CC013F038
:101484000A0E146E000E156E000E166E000E176E08
:10149400000E186E000E196E000E1A6E000E1B6EF2
:1014A4008FEC0CF00CC035F00DC036F00EC037F0E8
:1014B4000FC038F010C039F011C03AF012C03BF040
:1014C40013C03CF035C01EF037C01FF0E9EC0EF03D
:1014D4001E50300FDF6E3F06D8A040064106D8A04C
:1014E400420645C00CF046C00DF047C00EF048C09F
:1014F4000FF049C010F04AC011F04BC012F04CC0BC
:1015040013F00A0E146E000E156E000E166E000E09
:10151400176E000E186E000E196E000E1A6E000E75
:101524001B6EEBEC0BF00CC045F00DC046F00EC08A
:1015340047F00FC048F010C049F011C04AF012C083
:101544004BF013C04CF04EBE1FD04E5003E14D047F
:10155400D8A01AD0455046104710481049104A10D8
:101564004B104C10D8A473D740BE05D0405002E1B4
:101574003F04D8B06CD742BE07D0425003E14104C7
:10158400D8A002D072B263D743504410D8A402D07A
:1015940072A417D04D06D8A04E0643504410D8A4C8
:1015A40004D0000E3E6E2B0E03D0000E3E6E2D0EA8
:1015B4003D6ED80E4D24D96E000E4E20DA6E3DC01D
:1015C400DFFF2BC020F02CC021F0D80E4D24226E5A
:1015D400000E4E20236E41C024F042C025F077EC6B
:1015E4000DF020C02BF021C02CF0120051C0D9FF07
:1015F40052C0DAFFDECFF6FFDDCFF7FF0800F5506B
:10160400250AD8A4CCD051C0D9FF52C0DAFFDE2AB3
:10161400000EDD22000E6F6E000E6E6E6EC072F054
:101624006FC073F07068716851C0D9FF52C0DAFF9F
:10163400DECFF6FFDDCFF7FF0800F550630AD8A42C
:1016440026D051C0D9FF52C0DAFFDE2A000EDD22B7
:1016540053C0D9FF54C0DAFFDFCF55F0020EDE26A7
:10166400DFCF56F0000EDD2255C0D9FF56C0DAFF99
:10167400DF505F6E4FC02BF050C02CF05FC02DF0D8
:1016840081EC0EF02BC04FF02CC050F0120051C072
:10169400D9FF52C0DAFFDECFF6FFDDCFF7FF080037
:1016A400F550640AD8B40DD051C0D9FF52C0DAFF46
:1016B400DECFF6FFDDCFF7FF0800F550690AD8A4A6
:1016C4003FD051C0D9FF52C0DAFFDE2A000EDD221E
:1016D40053C0D9FF54C0DAFFDFCF55F0020EDE2627
:1016E400DFCF56F0000EDD2255C0D9FF56C0DAFF19
:1016F400DECF57F0DDCF58F0000E58BEFF0E596E06
:101704005A6E5B6E5C6E5D6E5E6E4FC02BF050C0A9
:101714002CF057C02DF058C02EF059C02FF05AC0ED
:1017240030F05BC031F05CC032F05DC033F05EC0BD
:1017340034F0D7EC09F02BC04FF02CC050F012005D
:1017440051C0D9FF52C0DAFFDECFF6FFDDCFF7FF7D
:101754000800F550250AD8A416D051C0D9FF52C0AC
:10176400DAFFDE2A000EDD22000E116E250E106E49
:101774004FC012F050C013F0C2EC0DF0000E506ECA
:10178400010E4F6E120051C0D9FF52C0DAFFDE2A9B
:10179400000EDD22000E506E000E4F6E120051C07E
:1017A400D9FF52C0DAFFDECFF6FFDDCFF7FF080026
:1017B400F550106E116A4FC012F050C013F0C2EC15
:1017C4000DF051C0D9FF52C0DAFFDE2A000EDD222F
:1017D400D5D7000E1D6E1BAE12D01B1E1A1E191E6D
:1017E400181E171E161E151E146C000E1522162226
:1017F4001722182219221A221B22010E1D6E13AE63
:1018040012D0131E121E111E101E0F1E0E1E0D1EB0
:101814000C6C000E0D220E220F2210221122122215
:101824001322010E1D1A20EE1EF0070EDE6AE806D2
:10183400FDE21450151016101710181019101A1074
:101844001B10D8B446D0010E1C6E0AD0D8901436A2
:10185400153616361736183619361A361B361C2A1C
:101864001BAEF4D7D8901E361F36203621362236CA
:1018740023362436253614500C5C15500D5816505A
:101884000E5817500F5818501058195011581A5014
:1018940012581B501358D8A011D014500C5E155078
:1018A4000D5A16500E5A17500F5A1850105A1950F4
:1018B400115A1A50125A1B50135A1E80D8901B32B8
:1018C4001A321932183217321632153214321C2ECB
:1018D400C9D71D50D8B410D0251E241E231E221E85
:1018E400211E201E1F1E1E6C000E1F2220222122DC
:1018F40022222322242225221EC00CF01FC00DF018
:1019040020C00EF021C00FF022C010F023C011F04F
:1019140024C012F025C013F01200000E1D6E13AE89
:1019240012D0131E121E111E101E0F1E0E1E0D1E8F
:101934000C6C000E0D220E220F22102211221222F4
:101944001322010E1D6E1BAE10D01B1E1A1E191E73
:10195400181E171E161E151E146C000E15221622B4
:101964001722182219221A221B221450151016109D
:101974001710181019101A101B10D8B43CD0010EEF
:101984001C6E0AD0D890143615361636173618360B
:1019940019361A361B361C2A1BAEF4D714500C5CAD
:1019A40015500D5816500E5817500F5818501058FF
:1019B400195011581A5012581B501358D8A010D04F
:1019C40014500C5E15500D5A16500E5A17500F5ADB
:1019D4001850105A1950115A1A50125A1B50135AAF
:1019E400D8901B321A321932183217321632153285
:1019F40014321C2ED3D71D50D8B410D0131E121E6F
:101A0400111E101E0F1E0E1E0D1E0C6C000E0D223C
:101A14000E220F2210221122122213220CC00CF0CB
:101A24000DC00DF00EC00EF00FC00FF010C010F07E
:101A340011C011F012C012F013C013F0120006000E
:101A4400F6CF05F0F7CF06F0F8CF07F0F5CF08F0A2
:101A5400F0A041D0F09081380F0B0F0B0B6E010EEC
:101A64000B24F66EF76A100EF7220800F5502A0AC6
:101A7400D8A404D0010E0001D66F2DD0000E0A6E3A
:101A8400000E096E1DD0010E0B24F66EF76A100EBF
:101A9400F7220800F550016E026A0950036E046AC9
:101AA400300E0326000E04220150031807E10250F1
:101AB4000418D8A403D0010ED76F0DD0094A0A2AFE
:101AC4000001D251095C0A50800A016ED351800A88
:101AD4000158D8A0D8D708C0F5FF07C0F8FF06C042
:101AE400F7FF05C0F6FF7492110072A00AD022C05D
:101AF40019F023C01AF020C01BF021C01CF0CDEC5B
:101B04000EF025BE05D024C029F025C02AF004D04B
:101B1400000E2A6E000E296E000E286E000E276E2F
:101B24000CD0000E116E200E106E20C012F021C0D9
:101B340013F0C2EC0DF0274A282A2950275C2850BC
:101B4400800A266E2A50800A2658D8A0EAD772B096
:101B54000AD022C019F023C01AF020C01BF021C003
:101B64001CF0CDEC0EF022C00CF023C00DF002EC02
:101B74000FF029500C24206E2A500D20216E1200E3
:101B840012501310D8B404D012501310D8A404D097
:101B9400105054EC0FF0120020EE04F01250D9262D
:101BA4001350DA22DE50DE10D8B416D020EE04F042
:101BB4001250D9261350DA2210EE02F01250E12608
:101BC4001350E222DE50E65CE650800A186EDE50C6
:101BD400800A1858D8B0120020EE02F01250D9260C
:101BE4001350DA22DE2A000EDD221200310E106EAE
:101BF400B20EE82EFED7102EFCD700D08C94030E24
:101C040040EC0FF0110E106E3A0EE82EFED7102E97
:101C1400FCD700D0030E40EC0FF07D0EE82EFED76B
:101C2400320E4BEC0FF0280E4BEC0FF0080E4BEC81
:101C34000FF0010E4BEC0FF0110E106E3A0EE82E61
:101C4400FED7102EFCD700D0060E4BEC0FF00F0E73
:101C54005AEC0FF01200FFFFFFFFFFFFFFFFFFFF33
:101C6400FFFFFFFFFFFFFFFFFFFFFFFFFFFFFFFF80
:101C7400FFFFFFFFFFFFFFFFFFFFFFFFFFFFFFFF70
:101C8400FFFFFFFFFFFFFFFFFFFFFFFFFFFFFFFF60
:101C9400FFFFFFFFFFFFFFFFFFFFFFFFFFFFFFFF50
:101CA400FFFFFFFFFFFF050007001E0062C066F094
:101CB40063C067F0000E6D6E000E6C6E12D060C0D3
:101CC4004FF061C050F0660E516E000E526E64C04B
:101CD40053F065C054F0F8EC0AF04F506C265050A5
:101CE4006D2266C0F6FF67C0F7FF0800F5500009D3
:101CF400D8A4E5D76CC060F06DC061F012006E50DE
:101D04006F10D8A405D06EC02EF06FC02FF006D08F
:101D1400FF0E6E242E6EFF0E6F202F6E2DC0D8F096
:101D2400000E0001D96F2BC020F02CC021F0D80E7A
:101D3400226E000E236E2EC024F02FC025F077EC07
:101D44000DF020C02BF021C02CF012005A0EF66EBC
:101D54001C0EF76E000EF86E00EE80F010EE56F0DA
:101D64000900F5CFEEFFE550E150FAE100EED6F0C0
:101D7400220EEE6AE806FDE100EE6CF0080EEE6A53
:101D8400E806FDE174907492000EF86E100EF76E82
:101D9400000162EF08F0000E1F6E000E1E6E0BD0E5
:101DA4001DC010F0116A1BC012F01CC013F0C2EC6D
:101DB4000DF01E4A1F2A1E501924D96E1F501A20D6
:101DC400DA6EDF501D6E1D50D8B41200E9D71FBE65
:101DD40005D01F5010E11E04D8B00DD01EC020F055
:101DE4001FC021F0201E211E204A212A20C01EF0DF
:101DF40021C01FF012001EC01EF01FC01FF01200F1
:101E04000CC00EF00DC00FF002D00C4A0D2A0CC00D
:101E1400D9FF0DC0DAFFDF50D8A4F7D70E500C5C01
:101E24000C6E0F500D580D6E1200000EF2BE010E16
:101E34000C6EF29E8C86140EE82EFED700D08C9683
:101E4400530EE82EFED700F00CB002D0F29E01D063
:101E5400F28E12006A0E0001FA6F000EFB6F000E84
:101E6400606E000E616E68C062F069C063F0FA0EC5
:101E7400646E000E656E58EC0EF012000D6E8C5000
:101E84000F0B8C6E0D38F00B8C108C6E17EC0FF062
:101E940012000E6E0E380F0B40EC0FF00E5040EC9B
:101EA4000FF012000F6E8C840F504BEC0FF01200E9
:0C1EB4000F6E8C940F504BEC0FF01200DE
:020000040020DA
:08000000FFFFFFFFFFFFFFFF00
:020000040030CA
:0E000000FF021F1EFF8381FF0F400FE00F4025
:00000001FF
