:020000040000FA
:0400000007EF00F016
:0A00080074822EED0EF0C2EF0FF02F
:10100000003132334134353642373839432A3023C0
:101010004400501040000410497427732079612067
:10102000626F7920416C692100496E646976696458
:1010300075616C20496E666F005072657373203065
:1010400020746F20256420004F7065726174696F91
:101050006E2054696D650044697374616E63652028
:10106000256420636D0023206F662043616E6973E1
:10107000746572730043616E697374657220456DA7
:10108000707479004E6F2042616C6C20416464651D
:10109000640043616E69737465722046756C6C0000
:1010A00025642043616E6973746572730043616ED9
:1010B0007369746572202563006F662043616E69F1
:1010C00073746572002564207365636F6E647300CA
:1010D00023206F662042616C6C73002A20746F209D
:1010E0006578697400737570706C69656400256457
:1010F0002062616C6C730000000E8C6E000E956EA9
:101100000F0EC16EF0863DEC0FF0F28E000E000166
:10111000F86F000EF76F000EEB6F000EEA6F000E17
:10112000F66F010EF56F180E686E100E696E67ECA3
:1011300010F01A0E0001E96F5E0EE86F6E0EE82ED9
:10114000FED7E82FFCD7E92FFAD700F0010E95EC77
:1011500010F0110E0001E86F3A0EE82EFED7E82FCE
:10116000FCD700F00001F751F811D8A42BD0F505F9
:10117000F611D8A427D0010E95EC10F0110E000145
:10118000E86F3A0EE82EFED7E82FFCD700F00C0EE1
:1011900095EC10F0480E686E100E696E67EC10F05A
:1011A000900E95EC10F0C50E686E100E696E000E74
:1011B0006B6E1E0E6A6E67EC10F0000E0001F66F8B
:1011C000000EF56FF705F811D8A42BD0F505F61130
:1011D000D8A427D0010E95EC10F0110E0001E86F95
:1011E0003A0EE82EFED7E82FFCD700F0800E95ECE3
:1011F00010F0660E686E100E696E67EC10F0900EBF
:1012000095EC10F0A00E686E100E696EBEC06AF00C
:10121000BFC06BF067EC10F0000E0001F66F000E1F
:10122000F56F020EF719F811D8A431D0F505F611B3
:10123000D8A42DD0010E95EC10F0110E0001E86F2E
:101240003A0EE82EFED7E82FFCD700F0D00E686EDD
:10125000100E696E67EC10F0C00E95EC10F0E50E04
:10126000686E100E696E67EC10F0D00E95EC10F001
:10127000EE0E686E100E696E000E6B6E050E6A6ED5
:1012800067EC10F0000E0001F66F000EF56F030E14
:10129000F719F811D8A434D0F505F611D8A430D038
:1012A000010E95EC10F0110E0001E86F3A0EE82ED9
:1012B000FED7E82FFCD700F0290E686E100E696E7D
:1012C00067EC10F0C00E95EC10F0B90E686E100EC1
:1012D000696E67EC10F0D00E95EC10F0390E686E68
:1012E000100E696EFF0E0001BE256A6EFF0EBF2153
:1012F0006B6E67EC10F0000E0001F66F000EF56FDC
:10130000C351D8B440D181380F0B0F0BF26F000ED0
:10131000ED6F000EEC6F000EF46F000EF36F000E19
:10132000F16F010EF06F010EF225F66EF76A100EE6
:10133000F7220800F5CFE8F0D00EE825EE6FEF6B4E
:10134000FF0EEF2318D1F351F411D8A446D0F005C5
:10135000F111D8A442D0010E95EC10F0110E00014D
:10136000E86F3A0EE82EFED7E82FFCD700F0AD0E5E
:10137000686E100E696E010E0001F225F66EF76AB6
:10138000100EF7220800F5506A6E6B6A67EC10F0D9
:10139000900E95EC10F0570E686E100E696ED89096
:1013A0000001EE35D96EEF35DA6E940ED926000EB7
:1013B000DA22DECF6AF0DDCF6BF067EC10F0D00EF2
:1013C00095EC10F0DB0E686E100E696E67EC10F095
:1013D000000E0001F16F000EF06FF305F411D8A4B8
:1013E0004DD0F005F111D8A449D0010E95EC10F0C4
:1013F000110E0001E86F3A0EE82EFED7E82FFCD759
:1014000000F0AD0E686E100E696E010E0001F2253F
:10141000F66EF76A100EF7220800F5506A6E6B6AD6
:1014200067EC10F0900E95EC10F0D8900001EE35BE
:10143000D96EEF35DA6EA80ED926000EDA22DE0458
:10144000DE10D8A407D0920E686E100E696E67EC9D
:1014500010F006D0750E686E100E696E67EC10F015
:10146000D00E95EC10F0DB0E686E100E696E67EC16
:1014700010F0000E0001F16F000EF06F020EF31974
:10148000F411D8A44DD0F005F111D8A449D0010E23
:1014900095EC10F0110E0001E86F3A0EE82EFED721
:1014A000E82FFCD700F0AD0E686E100E696E010ECD
:1014B0000001F225F66EF76A100EF7220800F550CB
:1014C0006A6E6B6A67EC10F0900E95EC10F0D89095
:1014D0000001EE35D96EEF35DA6E800ED926000E9A
:1014E000DA22DE04DE10D8A407D0870E686E100E54
:1014F000696E67EC10F006D0840E686E100E696E8F
:1015000067EC10F0D00E95EC10F0DB0E686E100E4C
:10151000696E67EC10F0000E0001F16F000EF06FC5
:10152000D00EEC191DE1070EED19D8A419D0000E4C
:10153000F16F010EF06FF34BF42BF3C00CF0F4C01D
:101540000DF0000E0F6E030E0E6ECFEC0EF00CC001
:10155000F3F00DC0F4F0000E0001ED6F000EEC6F23
:10156000EC4BED2B040E0001E86F3D0EE82EFED78C
:10157000E82FFCD700D00001C251D8B4E4D6000E49
:10158000C36F000EC26FD00EEA1912E1070EEB19FD
:10159000D8A40ED0000EF66F010EF56FF74BF82BA6
:1015A000030EF715F76FF86B000EEB6F000EEA6F86
:1015B000EA4BEB2B040E0001E86F3D0EE82EFED740
:1015C000E82FFCD700D0CED52DC045F02EC046F078
:1015D0002FC047F030C048F031C049F032C04AF067
:1015E00033C04BF034C04CF04CAE02D0010E01D0F1
:1015F000000E436E446A43504410D8B410D04C1EC1
:101600004B1E4A1E491E481E471E461E456C000EB4
:1016100046224722482249224A224B224C2271AEBE
:10162000729271BE05D0715008E17004D8B005D037
:10163000000E406E010E3F6E04D070C03FF071C0CE
:1016400040F06EC041F06FC042F043504410D8A447
:1016500002D072A403D04106D8A04206000E4E6EFE
:101660001F0E4D6E000E0001E36F7CD04D06D8A01A
:101670004E06C40E4D24D96E000E4E20DA6E45C0C3
:101680000CF046C00DF047C00EF048C00FF049C046
:1016900010F04AC011F04BC012F04CC013F00A0E0B
:1016A000146E000E156E000E166E000E176E000EF4
:1016B000186E000E196E000E1A6E000E1B6E9CEC5A
:1016C0000DF00CC035F00DC036F00EC037F00FC075
:1016D00038F010C039F011C03AF012C03BF013C01E
:1016E0003CF035C01EF037C01FF024EC10F01E5047
:1016F000300FDF6E3F06D8A040064106D8A0420654
:1017000045C00CF046C00DF047C00EF048C00FF0C9
:1017100049C010F04AC011F04BC012F04CC013F099
:101720000A0E146E000E156E000E166E000E176E69
:10173000000E186E000E196E000E1A6E000E1B6E53
:10174000F8EC0CF00CC045F00DC046F00EC047F0B0
:101750000FC048F010C049F011C04AF012C04BF061
:1017600013C04CF04EBE1FD04E5003E14D04D8A024
:101770001AD0455046104710481049104A104B10D7
:101780004C10D8A473D740BE05D0405002E13F04AE
:10179000D8B06CD742BE07D0425003E14104D8A074
:1017A00002D072B263D743504410D8A402D072A4BE
:1017B00017D04D06D8A04E0643504410D8A404D0EC
:1017C000000E3E6E2B0E03D0000E3E6E2D0E3D6EB3
:1017D000C40E4D24D96E000E4E20DA6E3DC0DFFFE0
:1017E0002BC020F02CC021F0C40E4D24226E000E20
:1017F0004E20236E41C024F042C025F084EC0EF050
:1018000020C02BF021C02CF0120051C0D9FF52C0D3
:10181000DAFFDECFF6FFDDCFF7FF0800F550250A2F
:10182000D8A4CCD051C0D9FF52C0DAFFDE2A000EB6
:10183000DD22000E6F6E000E6E6E6EC072F06FC015
:1018400073F07068716851C0D9FF52C0DAFFDECF03
:10185000F6FFDDCFF7FF0800F550630AD8A426D0C5
:1018600051C0D9FF52C0DAFFDE2A000EDD2253C07C
:10187000D9FF54C0DAFFDFCF55F0020EDE26DFCFEE
:1018800056F0000EDD2255C0D9FF56C0DAFFDF50FA
:101890005F6E4FC02BF050C02CF05FC02DF09BEC62
:1018A0000FF02BC04FF02CC050F0120051C0D9FFE8
:1018B00052C0DAFFDECFF6FFDDCFF7FF0800F550AC
:1018C000640AD8B40DD051C0D9FF52C0DAFFDECFC0
:1018D000F6FFDDCFF7FF0800F550690AD8A43FD026
:1018E00051C0D9FF52C0DAFFDE2A000EDD2253C0FC
:1018F000D9FF54C0DAFFDFCF55F0020EDE26DFCF6E
:1019000056F0000EDD2255C0D9FF56C0DAFFDECFFB
:1019100057F0DDCF58F0000E58BEFF0E596E5A6ECC
:101920005B6E5C6E5D6E5E6E4FC02BF050C02CF037
:1019300057C02DF058C02EF059C02FF05AC030F0CB
:101940005BC031F05CC032F05DC033F05EC034F09B
:10195000E4EC0AF02BC04FF02CC050F0120051C044
:10196000D9FF52C0DAFFDECFF6FFDDCFF7FF080068
:10197000F550250AD8A416D051C0D9FF52C0DAFFBD
:10198000DE2A000EDD22000E116E250E106E4FC0F5
:1019900012F050C013F007EC0FF0000E506E010E65
:1019A0004F6E120051C0D9FF52C0DAFFDE2A000E7E
:1019B000DD22000E506E000E4F6E120051C0D9FF96
:1019C00052C0DAFFDECFF6FFDDCFF7FF0800F5509B
:1019D000106E116A4FC012F050C013F007EC0FF0F8
:1019E00051C0D9FF52C0DAFFDE2A000EDD22D5D762
:1019F000000E1D6E1BAE12D01B1E1A1E191E181EC5
:101A0000171E161E151E146C000E15221622172204
:101A1000182219221A221B22010E1D6E13AE12D09B
:101A2000131E121E111E101E0F1E0E1E0D1E0C6CFC
:101A3000000E0D220E220F2210221122122213223A
:101A4000010E1D1A20EE1EF0070EDE6AE806FDE20A
:101A50001450151016101710181019101A101B100A
:101A6000D8B446D0010E1C6E0AD0D8901436153664
:101A700016361736183619361A361B361C2A1BAE80
:101A8000F4D7D8901E361F3620362136223623361C
:101A90002436253614500C5C15500D5816500E582F
:101AA00017500F5818501058195011581A501258F2
:101AB0001B501358D8A011D014500C5E15500D5A5D
:101AC00016500E5A17500F5A1850105A1950115AD2
:101AD0001A50125A1B50135A1E80D8901B321A32B9
:101AE0001932183217321632153214321C2EC9D759
:101AF0001D50D8B410D0251E241E231E221E211EC8
:101B0000201E1F1E1E6C000E1F22202221222222B8
:101B10002322242225221EC00CF01FC00DF020C05D
:101B20000EF021C00FF022C010F023C011F024C02D
:101B300012F025C013F01200000E1D6E13AE12D06D
:101B4000131E121E111E101E0F1E0E1E0D1E0C6CDB
:101B5000000E0D220E220F22102211221222132219
:101B6000010E1D6E1BAE10D01B1E1A1E191E181E54
:101B7000171E161E151E146C000E15221622172293
:101B8000182219221A221B22145015101610171091
:101B9000181019101A101B10D8B43CD0010E1C6E6E
:101BA0000AD0D89014361536163617361836193628
:101BB0001A361B361C2A1BAEF4D714500C5C155079
:101BC0000D5816500E5817500F58185010581950DD
:101BD00011581A5012581B501358D8A010D0145036
:101BE0000C5E15500D5A16500E5A17500F5A1850B9
:101BF000105A1950115A1A50125A1B50135AD89091
:101C00001B321A3219321832173216321532143288
:101C10001C2ED3D71D50D8B410D0131E121E111E67
:101C2000101E0F1E0E1E0D1E0C6C000E0D220E221D
:101C30000F2210221122122213220CC00CF00DC010
:101C40000DF00EC00EF00FC00FF010C010F011C05C
:101C500011F012C012F013C013F012000600F6CFFC
:101C600005F0F7CF06F0F8CF07F0F5CF08F0F0A0B9
:101C700041D0F09081380F0B0F0B0B6E010E0B242F
:101C8000F66EF76A100EF7220800F5502A0AD8A45B
:101C900004D0010E0001C26F2DD0000E0A6E000E9E
:101CA000096E1DD0010E0B24F66EF76A100EF72296
:101CB0000800F550016E026A0950036E046A300E86
:101CC0000326000E04220150031807E102500418F5
:101CD000D8A403D0010EC36F0DD0094A0A2A00010F
:101CE000BE51095C0A50800A016EBF51800A01583A
:101CF000D8A0D8D708C0F5FF07C0F8FF06C0F7FF87
:101D000005C0F6FF7492110072A00AD022C019F02B
:101D100023C01AF020C01BF021C01CF008EC10F00A
:101D200025BE05D024C029F025C02AF004D0000E1D
:101D30002A6E000E296E000E286E000E276E0CD043
:101D4000000E116E200E106E20C012F021C013F094
:101D500007EC0FF0274A282A2950275C2850800AD0
:101D6000266E2A50800A2658D8A0EAD772B00AD028
:101D700022C019F023C01AF020C01BF021C01CF0B3
:101D800008EC10F022C00CF023C00DF03DEC10F078
:101D900029500C24206E2A500D20216E1200000EB6
:101DA000116E0DAE06D00C6C0D1ED8B00D2A010EB2
:101DB000116E0FAE04D00E6C0F1ED8B00F2A0E504D
:101DC0000F10D8B418D0010E106E04D0D8900E3673
:101DD0000F36102A0FAEFAD70E500C5C0F500D586C
:101DE000D8A004D00E500C5E0F500D5AD8900F3270
:101DF0000E32102EF1D71150D8B404D00C6C0D1E39
:101E0000D8B00D2A0CC00CF00DC00DF0120012500D
:101E10001310D8B404D012501310D8A404D010500A
:101E20008FEC10F0120020EE04F01250D92613505F
:101E3000DA22DE50DE10D8B416D020EE04F01250B4
:101E4000D9261350DA2210EE02F01250E126135078
:101E5000E222DE50E65CE650800A186EDE50800A10
:101E60001858D8B0120020EE02F01250D9261350A4
:101E7000DA22DE2A000EDD221200310E106EB20EC2
:101E8000E82EFED7102EFCD700D08C94030E7BECEE
:101E900010F0110E106E3A0EE82EFED7102EFCD761
:101EA00000D0030E7BEC10F07D0EE82EFED7320E34
:101EB00086EC10F0280E86EC10F0080E86EC10F080
:101EC000010E86EC10F0110E106E3A0EE82EFED7C1
:101ED000102EFCD700D0060E86EC10F00F0E95ECFD
:101EE00010F0120062C066F063C067F0000E6D6E05
:101EF000000E6C6E12D060C04FF061C050F0660EE4
:101F0000516E000E526E64C053F065C054F005EC83
:101F10000CF04F506C2650506D2266C0F6FF67C023
:101F2000F7FF0800F5500009D8A4E5D76CC060F0B1
:101F30006DC061F012006E506F10D8A405D06EC055
:101F40002EF06FC02FF006D0FF0E6E242E6EFF0E07
:101F50006F202F6E2DC0C4F0000E0001C56F2BC086
:101F600020F02CC021F0C40E226E000E236E2EC075
:101F700024F02FC025F084EC0EF020C02BF021C0FF
:101F80002CF01200CE0EF66E1F0EF76E000EF86EDD
:101F900000EE80F010EE42F00900F5CFEEFFE550C4
:101FA000E150FAE100EEC2F0220EEE6AE806FDE131
:101FB00000EE6CF0080EEE6AE806FDE17490749293
:101FC000000EF86E100EF76E00017CEF08F0FFFFB8
:101FD000FFFFFFFFFFFFFFFFFFFFFFFFFFFFFFFF11
:101FE000FFFFFFFFFFFFFFFFFFFFFFFFFFFFFFFF01
:101FF000FFFFFFFFFFFFFFFFFFFFFFFFFFFFFFFFF1
:10200000FFFFFFFFFFFFFFFFFFFF050007001E00B0
:10201000000E1F6E000E1E6E0BD01DC010F0116A58
:102020001BC012F01CC013F007EC0FF01E4A1F2A51
:102030001E501924D96E1F501A20DA6EDF501D6E03
:102040001D50D8B41200E9D71FBE05D01F5010E1B3
:102050001E04D8B00DD01EC020F01FC021F0201EDD
:10206000211E204A212A20C01EF021C01FF012008C
:102070001EC01EF01FC01FF012000CC00EF00DC0DD
:102080000FF002D00C4A0D2A0CC0D9FF0DC0DAFFA8
:10209000DF50D8A4F7D70E500C5C0C6E0F500D58C3
:1020A0000D6E1200000EF2BE010E0C6EF29E8C86BA
:1020B000140EE82EFED700D08C96530EE82EFED7D5
:1020C00000F00CB002D0F29E01D0F28E12006A0E27
:1020D0000001E66F000EE76F000E606E000E616E8D
:1020E00068C062F069C063F0E60E646E000E656E53
:1020F00072EC0FF012000D6E8C500F0B8C6E0D38C1
:10210000F00B8C108C6E52EC10F012000E6E0E382C
:102110000F0B7BEC10F00E507BEC10F012000F6EEA
:102120008C840F5086EC10F012000F6E8C940F50C0
:0621300086EC10F0120025
:020000040020DA
:08000000FFFFFFFFFFFFFFFF00
:020000040030CA
:0E000000FF021F1EFF8381FF0F400FE00F4025
:00000001FF
