:020000040000FA
:0400000007EF00F016
:100008007A82E0ED05F0D2EF0AF0000E8C6E000E59
:10001800956E0F0EC16EF0864EEC0BF0F28E0C0E44
:10002800DBEC0DF0010EDBEC0DF0110E0001E46FBE
:100038003A0EE82EFED7E42FFCD700F0F00E0001B0
:10004800DC6FFF0EDD6F92EC0DF0C00EDBEC0DF0F7
:10005800E70E0001DC6FFF0EDD6F92EC0DF0D00EA5
:10006800DBEC0DF0260E0001DC6FFF0EDD6F92EC6D
:100078000DF00001FB51D8B4FCD7010EDBEC0DF0FC
:10008800110E0001E46F3A0EE82EFED7E42FFCD7DC
:1000980000F0800E0001DC6FFE0EDD6F92EC0DF0BB
:1000A800330E0001E56FBB0EE46FDF0EE82EFED7BE
:1000B800E42FFCD7E52FFAD700D0900EDBEC0DF03B
:1000C800B00E0001DC6FFE0EDD6F92EC0DF0330E0A
:1000D8000001E56FBB0EE46FDF0EE82EFED7E42FBC
:1000E800FCD7E52FFAD700D0010EDBEC0DF0110E8E
:1000F8000001E46F3A0EE82EFED7E42FFCD700F09B
:10010800B80E0001DC6FFF0EDD6F92EC0DF0330EC0
:100118000001E56FBB0EE46FDF0EE82EFED7E42F7B
:10012800FCD7E52FFAD700D0900EDBEC0DF07F0E50
:100138000001DC6FFF0EDD6F92EC0DF0D00EDBECF2
:100148000DF01A0E0001E56F5E0EE46F6E0EE82EDC
:10015800FED7E42FFCD7E52FFAD700F0CC0E00012C
:10016800DC6FFF0EDD6F92EC0DF0330E0001E56FD2
:10017800BB0EE46FDF0EE82EFED7E42FFCD7E52F89
:10018800FAD700D0000E0001FB6F010EDBEC0DF07A
:10019800110E0001E46F3A0EE82EFED7E42FFCD7CB
:1001A80000F0970E0001DC6FFF0EDD6F92EC0DF092
:1001B800900EDBEC0DF04D0E0001DC6FFF0EDD6FD5
:1001C80092EC0DF00001FB51D8B4FCD7000E756E0F
:1001D800010E746E010EDBEC0DF0110E0001E46FE0
:1001E8003A0EE82EFED7E42FFCD700F0EC0E000103
:1001F800DC6FFE0EDD6F92EC0DF0900EDBEC0DF077
:10020800670E0001DC6FFF0EDD6F92EC0DF0330E10
:100218000001E56FBB0EE46FDF0EE82EFED7E42F7A
:10022800FCD7E52FFAD700D0000E0001F46F000EBE
:10023800F36F000EE76F000EE66F000EFD6F000E05
:10024800FC6F010EDBEC0DF0110E0001E46F3A0EAD
:10025800E82EFED7E42FFCD700F0BF0E0001DC6FBC
:10026800FE0EDD6F92EC0DF0900EDBEC0DF0A20EA1
:100278000001DC6FFF0EDD6F000EDF6F1E0EDE6FFC
:1002880092EC0DF00001FD51D8B43CD181380F0B30
:100298000F0BEE6F000EE96F000EE86F000EF06FA7
:1002A800000EEF6F000EED6F010EEC6F690EEE257C
:1002B800F66EF76AFE0EF7220800F5CFE4F0D00ECE
:1002C800E425EA6FEB6BFF0EEB2314D1EF51F0112D
:1002D800D8A448D0EC05ED11D8A444D0010EDBEC2D
:1002E8000DF0110E0001E46F3A0EE82EFED7E42F50
:1002F800FCD700F0730E0001DC6FFF0EDD6F690E96
:10030800EE25F66EF76AFE0EF7220800F550DE6F4E
:10031800DF6B92EC0DF0900EDBEC0DF0CE0E0001D1
:10032800DC6FFE0EDD6FD890EA35D96EEB35DA6EEC
:10033800140ED926010EDA22DECFDEF0DDCFDFF093
:1003480092EC0DF0D00EDBEC0DF0C20E0001DC6F6C
:10035800FF0EDD6F92EC0DF0000E0001ED6F000E48
:10036800EC6F9DD0EF05F011D8A44AD0EC05ED1143
:10037800D8A446D0010EDBEC0DF0110E0001E46F9D
:100388003A0EE82EFED7E42FFCD700F0730E0001DA
:10039800DC6FFF0EDD6F690EEE25F66EF76AFE0E56
:1003A800F7220800F550DE6FDF6B92EC0DF0900E2F
:1003B800DBEC0DF0D8900001EA35D96EEB35DA6E3A
:1003C800280ED926010EDA22DE04DE10D8A407D0C2
:1003D800180EDC6FFF0EDD6F92EC0DF006D0FB0EF1
:1003E800DC6FFE0EDD6F92EC0DF0D00EDBEC0DF045
:1003F800C20E0001DC6FFF0EDD6F92EC0DF0ACD782
:10040800020EEF19F011D8A44AD0EC05ED11D8A4CA
:1004180046D0010EDBEC0DF0110E0001E46F3A0E30
:10042800E82EFED7E42FFCD700F0730E0001DC6F36
:10043800FF0EDD6F690EEE25F66EF76AFE0EF722E7
:100448000800F550DE6FDF6B92EC0DF0900EDBECE0
:100458000DF0D8900001EA35D96EEB35DA6E000E52
:10046800D926010EDA22DE04DE10D8A407D00D0E3C
:10047800DC6FFF0EDD6F92EC0DF006D00A0EDC6F1C
:10048800FF0EDD6F92EC0DF0D00EDBEC0DF0C20E1E
:100498000001DC6FFF0EDD6F92EC0DF05DD7B80E3A
:1004A800E8191DE10B0EE919D8A419D0000EED6F5B
:1004B800010EEC6FEF4BF02BEFC080F0F0C081F035
:1004C800000E836F030E826F15EC0BF080C0EFF007
:1004D80081C0F0F0000E0001E96F000EE86FE84BF4
:1004E800E92B040E0001E46F3D0EE82EFED7E42F41
:1004F800FCD700D00001FC51D8B4E8D6000EFD6F3F
:10050800000EFC6FD00EE6190EE1070EE719D8A40D
:100518000AD0F34BF42B030EF315F36FF46B000EB4
:10052800E76F000EE66FE64BE72B040E0001E46F61
:100538003D0EE82EFED7E42FFCD775D6A1C0B9F042
:10054800A2C0BAF0A3C0BBF0A4C0BCF0A5C0BDF067
:10055800A6C0BEF0A7C0BFF0A8C0C0F00001C0AFE1
:1005680002D0010E01D0000EB76FB86BB751B811A9
:10057800D8B410D0C01FBF1FBE1FBD1FBC1FBB1FDC
:10058800BA1FB96D000EBA23BB23BC23BD23BE23FB
:10059800BF23C023F8AFF993F8BF05D0F85108E19D
:1005A800F705D8B005D0000EB46F010EB36F04D0B4
:1005B800F7C0B3F0F8C0B4F0F5C0B5F0F6C0B6F0C7
:1005C800B751B811D8A402D0F9A503D0B507D8A05F
:1005D800B607000EC26F1F0EC16F000E01015B6FE0
:1005E8007DD0C107D8A0C2073C0EC125D96E010E27
:1005F800C221DA6EB9C080F0BAC081F0BBC082F007
:10060800BCC083F0BDC084F0BEC085F0BFC086F01A
:10061800C0C087F00A0E886F000E896F000E8A6FBF
:10062800000E8B6F000E8C6F000E8D6F000E8E6F9C
:10063800000E8F6F11EC09F080C0A9F081C0AAF0FC
:1006480082C0ABF083C0ACF084C0ADF085C0AEF022
:1006580086C0AFF087C0B0F0A9C092F0ABC093F0ED
:10066800F0EC0CF000019251300FDF6EB307D8A008
:10067800B407B507D8A0B607B9C080F0BAC081F0F2
:10068800BBC082F0BCC083F0BDC084F0BEC085F0A2
:10069800BFC086F0C0C087F00A0E886F000E896F51
:1006A800000E8A6F000E8B6F000E8C6F000E8D6F20
:1006B800000E8E6F000E8F6FC8EC07F080C0B9F087
:1006C80081C0BAF082C0BBF083C0BCF084C0BDF06A
:1006D80085C0BEF086C0BFF087C0C0F00001C2BFB1
:1006E8001FD0C25103E1C105D8A01AD0B951BA111F
:1006F800BB11BC11BD11BE11BF11C011D8A471D757
:10070800B4BF05D0B45102E1B305D8B06AD7B6BFBB
:1007180007D0B65103E1B505D8A002D0F9B361D727
:10072800B751B811D8A402D0F9A517D0C107D8A0DD
:10073800C207B751B811D8A404D0000EB26F2B0E5F
:1007480003D0000EB26F2D0EB16F3C0EC125D96ECD
:10075800010EC221DA6EB1C0DFFF9FC094F0A0C0C5
:1007680095F03C0EC125966F010EC221976FB5C05A
:1007780098F0B6C099F036EC0AF094C09FF095C096
:10078800A0F0120022C03AF023C03BF024C03CF095
:1007980025C03DF026C03EF027C03FF028C040F0FD
:1007A80029C041F041AE02D0010E01D0000E386ED2
:1007B800396A38503910D8B410D0411E401E3F1E37
:1007C8003E1E3D1E3C1E3B1E3A6C000E3B223C2248
:1007D8003D223E223F22402241220001F8AFF993F8
:1007E800F8BF05D0F85108E1F705D8B005D0000EDC
:1007F800356E010E346E04D0F7C034F0F8C035F011
:10080800F5C036F0F6C037F038503910D8A402D009
:10081800F9A503D03606D8A03706000E436E1F0E82
:10082800426E000E01015B6F7CD04206D8A04306E1
:100838003C0E4224D96E010E4320DA6E3AC001F014
:100848003BC002F03CC003F03DC004F03EC005F0E0
:100858003FC006F040C007F041C008F00A0E096E1C
:10086800000E0A6E000E0B6E000E0C6E000E0D6E62
:10087800000E0E6E000E0F6E000E106EA4EC09F046
:1008880001C02AF002C02BF003C02CF004C02DF0E8
:1008980005C02EF006C02FF007C030F008C031F0B8
:1008A8002AC013F02CC014F00AEC0DF01350300FCE
:1008B800DF6E3406D8A035063606D8A037063AC00B
:1008C80001F03BC002F03CC003F03DC004F03EC064
:1008D80005F03FC006F040C007F041C008F00A0E1E
:1008E800096E000E0A6E000E0B6E000E0C6E000EE6
:1008F8000D6E000E0E6E000E0F6E000E106E6DEC7B
:1009080008F001C03AF002C03BF003C03CF004C05C
:100918003DF005C03EF006C03FF007C040F008C0FB
:1009280041F043BE20D0435003E14204D8A01BD07D
:100938003A503B103C103D103E103F104010411003
:10094800D8A473D735BE05D0355002E13404D8B0E9
:100958006CD737BE08D0375003E13604D8A003D08F
:100968000001F9B362D738503910D8A403D0000178
:10097800F9A517D04206D8A0430638503910D8A494
:1009880004D0000E336E2B0E03D0000E336E2D0EE6
:10099800326E3C0E4224D96E010E4320DA6E32C00C
:1009A800DFFF20C015F021C016F03C0E4224176E60
:1009B800010E4320186E36C019F037C01AF085ECC6
:1009C8000AF015C020F016C021F01200C5C0D9FFEA
:1009D800C6C0DAFFDECFF6FFDDCFF7FF0800F5501F
:1009E800250AD8A4CED0C5C0D9FFC6C0DAFFDE2AF2
:1009F800000EDD22000E0001F66F000EF56FF5C047
:100A0800F9F0F6C0FAF0F769F869C5C0D9FFC6C0B1
:100A1800DAFFDECFF6FFDDCFF7FF0800F550630AF7
:100A2800D8A426D0C5C0D9FFC6C0DAFFDE2A000E7A
:100A3800DD22C7C0D9FFC8C0DAFFDFCFC9F0020E78
:100A4800DE26DFCFCAF0000EDD22C9C0D9FFCAC03A
:100A5800DAFFDF50D36FC3C09FF0C4C0A0F0D3C08B
:100A6800A1F01EEC0CF09FC0C3F0A0C0C4F01200AF
:100A7800C5C0D9FFC6C0DAFFDECFF6FFDDCFF7FF6E
:100A88000800F550640AD8B40DD0C5C0D9FFC6C057
:100A9800DAFFDECFF6FFDDCFF7FF0800F550690A71
:100AA800D8A43FD0C5C0D9FFC6C0DAFFDE2A000EE1
:100AB800DD22C7C0D9FFC8C0DAFFDFCFC9F0020EF8
:100AC800DE26DFCFCAF0000EDD22C9C0D9FFCAC0BA
:100AD800DAFFDECFCBF0DDCFCCF0000ECCBFFF0EBF
:100AE800CD6FCE6FCF6FD06FD16FD26FC3C09FF075
:100AF800C4C0A0F0CBC0A1F0CCC0A2F0CDC0A3F080
:100B0800CEC0A4F0CFC0A5F0D0C0A6F0D1C0A7F049
:100B1800D2C0A8F0A2EC02F09FC0C3F0A0C0C4F0FD
:100B28001200C5C0D9FFC6C0DAFFDECFF6FFDDCFA1
:100B3800F7FF0800F550250AD8A417D0C5C0D9FF7B
:100B4800C6C0DAFFDE2A000EDD22000E856F250EF4
:100B5800846FC3C086F0C4C087F086EC0BF0000E2B
:100B68000001C46F010EC36F1200C5C0D9FFC6C013
:100B7800DAFFDE2A000EDD22000EC46F000EC36FFE
:100B88001200C5C0D9FFC6C0DAFFDECFF6FFDDCF41
:100B9800F7FF0800F5500001846F856BC3C086F02D
:100BA800C4C087F086EC0BF0C5C0D9FFC6C0DAFF19
:100BB800DE2A000EDD22D3D70600E1CF67F0E2CFB0
:100BC80068F0D9CF69F0DACF6AF0F6CF6BF0F7CFDB
:100BD8006CF0F8CF6DF0F5CF6EF0F0A0CFD0F090BC
:100BE80081380F0B0F0B716E690E7124F66EF76A60
:100BF800FE0EF7220800F550410AD8A42ED074043E
:100C08007510D8A426D0010EE9EC0DF0110E636E14
:100C18003A0EE82EFED7632EFCD700D0400E5D6E4C
:100C2800FF0E5E6E51EC0DF0900EE9EC0DF05A0ED1
:100C38005D6EFF0E5E6E51EC0DF01A0E646E5E0E68
:100C4800636E6E0EE82EFED7632EFCD7642EFAD79D
:100C580083D0010E0001FB6F91D0690E7124F66EEE
:100C6800F76AFE0EF7220800F5502A0AD8A42ED0FB
:100C780074507510D8A426D0010EE9EC0DF0110EB1
:100C8800636E3A0EE82EFED7632EFCD700D0400ED6
:100C98005D6EFF0E5E6E51EC0DF0900EE9EC0DF0FE
:100CA800F80E5D6EFF0E5E6E51EC0DF01A0E646E5E
:100CB8005E0E636E6E0EE82EFED7632EFCD7642E92
:100CC800FAD74AD0010E0001FC6F58D0000E706EA2
:100CD800000E6F6E48D0690E7124F66EF76AFE0E2C
:100CE800F7220800F550636E646A6F50656E666A95
:100CF800300E6526000E66226350651832E1645096
:100D08006618D8A42ED074507510D8A427D0010E18
:100D1800E9EC0DF0110E636E3A0EE82EFED7632E45
:100D2800FCD700D0400E5D6EFF0E5E6E51EC0DF0EC
:100D3800900EE9EC0DF0F80E5D6EFF0E5E6E51EC54
:100D48000DF01A0E646E5E0E636E6E0EE82EFED700
:100D5800632EFCD7642EFAD700D010D0010EFD6F99
:100D68000DD06F4A702A0001FE516F5C7050800AE6
:100D7800636EFF51800A6358D8A0ADD76EC0F5FFE7
:100D88006DC0F8FF6CC0F7FF6BC0F6FF6AC0DAFFF2
:100D980069C0D9FF68C0E2FF67C0E1FF7A9211001D
:100DA80046C0D9FF47C0DAFFDECFF6FFDDCFF7FF39
:100DB8000800F550250AD8A4CDD046C0D9FF47C0B1
:100DC800DAFFDE2A000EDD22000E0001F66F000EAB
:100DD800F56FF5C0F9F0F6C0FAF0F769F86946C0A2
:100DE800D9FF47C0DAFFDECFF6FFDDCFF7FF0800F7
:100DF800F550630AD8A426D046C0D9FF47C0DAFF09
:100E0800DE2A000EDD2248C0D9FF49C0DAFFDFCF55
:100E18004AF0020EDE26DFCF4BF0000EDD224AC07C
:100E2800D9FF4BC0DAFFDF50546E44C020F045C0F4
:100E380021F054C022F070EC0CF020C044F021C026
:100E480045F0120046C0D9FF47C0DAFFDECFF6FFF3
:100E5800DDCFF7FF0800F550640AD8B40DD046C0BE
:100E6800D9FF47C0DAFFDECFF6FFDDCFF7FF080076
:100E7800F550690AD8A43FD046C0D9FF47C0DAFF69
:100E8800DE2A000EDD2248C0D9FF49C0DAFFDFCFD5
:100E98004AF0020EDE26DFCF4BF0000EDD224AC0FC
:100EA800D9FF4BC0DAFFDECF4CF0DDCF4DF0000E9E
:100EB8004DBEFF0E4E6E4F6E506E516E526E536E9B
:100EC80044C020F045C021F04CC022F04DC023F0B2
:100ED8004EC024F04FC025F050C026F051C027F076
:100EE80052C028F053C029F0C6EC03F020C044F0EB
:100EF80021C045F0120046C0D9FF47C0DAFFDECF57
:100F0800F6FFDDCFF7FF0800F550250AD8A416D064
:100F180046C0D9FF47C0DAFFDE2A000EDD22000EE8
:100F2800066E250E056E44C007F045C008F0BDECFE
:100F38000BF0000E456E010E446E120046C0D9FF3C
:100F480047C0DAFFDE2A000EDD22000E456E000ED5
:100F5800446E120046C0D9FF47C0DAFFDECFF6FF65
:100F6800DDCFF7FF0800F550056E066A44C007F0AC
:100F780045C008F0BDEC0BF046C0D9FF47C0DAFF0A
:100F8800DE2A000EDD22D5D7000E0001916F8FAF4B
:100F980012D08F1F8E1F8D1F8C1F8B1F8A1F891FBA
:100FA800886D000E89238A238B238C238D238E231F
:100FB8008F23010E916F87AF12D0871F861F851F61
:100FC800841F831F821F811F806D000E812382234F
:100FD80083238423852386238723010E911B20EEF8
:100FE80092F0070EDE6AE806FDE2885189118A113F
:100FF8008B118C118D118E118F11D8B446D0010E22
:10100800906F0AD0D890883789378A378B378C37D2
:101018008D378E378F37902B8FAFF4D7D890923784
:101028009337943795379637973798379937885144
:10103800805D895181598A5182598B5183598C51CC
:1010480084598D5185598E5186598F518759D8A009
:1010580011D08851805F8951815B8A51825B8B51A5
:10106800835B8C51845B8D51855B8E51865B8F5180
:10107800875B9281D8908F338E338D338C338B334B
:101088008A3389338833902FC9D79151D8B410D077
:10109800991F981F971F961F951F941F931F926D56
:1010A800000E93239423952396239723982399231B
:1010B80092C080F093C081F094C082F095C083F014
:1010C80096C084F097C085F098C086F099C087F0E4
:1010D8001200000E126E10AE12D0101E0F1E0E1E41
:1010E8000D1E0C1E0B1E0A1E096C000E0A220B2276
:1010F8000C220D220E220F221022010E126E08AEB3
:1011080012D0081E071E061E051E041E031E021E00
:10111800016C000E02220322042205220622072265
:101128000822010E121A20EE13F0070EDE6AE806F6
:10113800FDE209500A100B100C100D100E100F10C4
:101148001010D8B446D0010E116E0AD0D8900936C6
:101158000A360B360C360D360E360F361036112A77
:1011680010AEF4D7D890133614361536163617360F
:10117800183619361A360950015C0A5002580B50B5
:1011880003580C5004580D5005580E5006580F506F
:10119800075810500858D8A011D00950015E0A50BD
:1011A800025A0B50035A0C50045A0D50055A0E504F
:1011B800065A0F50075A1050085A1380D890103208
:1011C8000F320E320D320C320B320A320932112E26
:1011D800C9D71250D8B410D01A1E191E181E171EBF
:1011E800161E151E141E136C000E1422152216222C
:1011F8001722182219221A2213C001F014C002F073
:1012080015C003F016C004F017C005F018C006F0AA
:1012180019C007F01AC008F01200000E0001916F03
:1012280087AF12D0871F861F851F841F831F821FC9
:10123800811F806D000E81238223832384238523CD
:1012480086238723010E916F8FAF10D08F1F8E1FBB
:101258008D1F8C1F8B1F8A1F891F886D000E892385
:101268008A238B238C238D238E238F2388518911E6
:101278008A118B118C118D118E118F11D8B43CD01D
:10128800010E906F0AD0D890883789378A378B3704
:101298008C378D378E378F37902B8FAFF4D7885197
:1012A800805D895181598A5182598B5183598C515A
:1012B80084598D5185598E5186598F518759D8A097
:1012C80010D08851805F8951815B8A51825B8B5134
:1012D800835B8C51845B8D51855B8E51865B8F510E
:1012E800875BD8908F338E338D338C338B338A332F
:1012F80089338833902FD3D79151D8B410D0871F12
:10130800861F851F841F831F821F811F806D000E0B
:10131800812382238323842385238623872380C0F4
:1013280080F081C081F082C082F083C083F084C0E5
:1013380084F085C085F086C086F087C087F01200EB
:10134800000E126E08AE12D0081E071E061E051EDD
:10135800041E031E021E016C000E02220322042238
:101368000522062207220822010E126E10AE10D0A6
:10137800101E0F1E0E1E0D1E0C1E0B1E0A1E096CC3
:10138800000E0A220B220C220D220E220F221022FE
:1013980009500A100B100C100D100E100F10101021
:1013A800D8B43CD0010E116E0AD0D89009360A364E
:1013B8000B360C360D360E360F361036112A10AE97
:1013C800F4D70950015C0A5002580B5003580C50CE
:1013D80004580D5005580E5006580F500758105015
:1013E8000858D8A010D00950015E0A50025A0B5074
:1013F800035A0C50045A0D50055A0E50065A0F50F5
:10140800075A1050085AD89010320F320E320D3247
:101418000C320B320A320932112ED3D71250D8B4FB
:1014280010D0081E071E061E051E041E031E021EDF
:10143800016C000E02220322042205220622072242
:10144800082201C001F002C002F003C003F004C08A
:1014580004F005C005F006C006F007C007F008C094
:1014680008F012000001F9A10AD096C08DF097C0CB
:101478008EF094C08FF095C090F0B6EC0CF000019F
:1014880099BF05D098C09DF099C09EF004D0000E79
:101498009E6F000E9D6F000E9C6F000E9B6F0DD00F
:1014A800000E856F200E846F94C086F095C087F07B
:1014B80086EC0BF000019B4B9C2B9D519B5D9C5136
:1014C800800A9A6F9E51800A9A59D8A0E9D7F9B133
:1014D8000AD096C08DF097C08EF094C08FF095C05A
:1014E80090F0B6EC0CF096C080F097C081F023EC39
:1014F8000DF000019D518025946F9E518121956FBB
:1015080012000001F9A10AD017C00EF018C00FF0A0
:1015180015C010F016C011F0D4EC0CF01ABE05D0AE
:1015280019C01EF01AC01FF004D0000E1F6E000E66
:101538001E6E000E1D6E000E1C6E0CD0000E066E88
:10154800200E056E15C007F016C008F0BDEC0BF0B4
:101558001C4A1D2A1E501C5C1D50800A1B6E1F5001
:10156800800A1B58D8A0EAD70001F9B10AD017C0E1
:101578000EF018C00FF015C010F016C011F0D4EC22
:101588000CF017C001F018C002F068EC0DF01E5006
:101598000124156E1F500220166E1200300EF66ED2
:1015A800190EF76E000EF86E01EE00F010EE3CF02A
:1015B8000900F5CFEEFFE550E150FAE1E20EF66ED4
:1015C8001B0EF76E000EF86E0900F5CFFEF009004D
:1015D800F5CFFFF0DE0EF66E1B0EF76E000EF86EFE
:1015E80000EE76F010EE04F00900F5CFEEFFE550BE
:1015F800E150FAE101EE3CF0200EEE6AE806FDE16A
:1016080000EEF5F0090EEE6AE806FDE1756A746A07
:10161800736A726A7A907A92000EF86E000109EF86
:1016280000F0000E0001856F81AF06D0806D811F2C
:10163800D8B0812B010E856F83AF04D0826D831FD4
:10164800D8B0832B82518311D8B418D0010E846F7F
:1016580004D0D89082378337842B83AFFAD782514E
:10166800805D83518159D8A004D08251805F835115
:10167800815BD89083338233842FF1D78551D8B4D6
:1016880004D0806D811FD8B0812B80C080F081C0CC
:1016980081F01200310E0001846FB20EE82EFED7E1
:1016A800842FFCD700F08C94030EA6EC0DF0110EDD
:1016B8000001846F3A0EE82EFED7842FFCD700F085
:1016C800030EA6EC0DF07D0EE82EFED7320EB3EC1D
:1016D8000DF0280EB3EC0DF0080EB3EC0DF0010E72
:1016E800B3EC0DF0110E0001846F3A0EE82EFED710
:1016F800842FFCD700F0060EB3EC0DF00F0EDBECD8
:101708000DF01200000186518711D8B404D086511B
:101718008711D8A404D08451D3EC0DF0120020EE28
:1017280004F08651D9268751DA22DE50DE10D8B46B
:1017380016D020EE04F08651D9268751DA2210EE11
:1017480002F08651E1268751E222DE50E65CE6503F
:10175800800A8C6FDE50800A8C59D8B0120020EEB7
:1017680002F08651D9268751DA22DE2A000EDD22C0
:10177800120007500810D8B404D007500810D8A495
:1017880004D00550E3EC0DF0120020EE04F00750F1
:10179800D9260850DA22DE50DE10D8B416D020EE52
:1017A80004F00750D9260850DA2210EE02F007504C
:1017B800E1260850E222DE50E65CE650800A0D6E13
:1017C800DE50800A0D58D8B0120020EE02F0075003
:1017D800D9260850DA22DE2A000EDD221200D6C0F1
:1017E800DAF0D7C0DBF0000E736E000E726E14D004
:1017F800D4C0C3F0D5C0C4F0DA0E0001C56F000E26
:10180800C66FD8C0C7F0D9C0C8F0EAEC04F0000130
:10181800C3517226C4517322DAC0F6FFDBC0F7FF4A
:101828000800F5500009D8A4E3D772C0D4F073C0FB
:10183800D5F012000001F551F611D8A405D0F5C075
:10184800A2F0F6C0A3F006D0FF0EF525A26FFF0E9A
:10185800F621A36FA1C03CF1000E01013D6F9FC0AE
:1018680094F0A0C095F03C0E0001966F010E976FA2
:10187800A2C098F0A3C099F036EC0AF094C09FF08B
:1018880095C0A0F0120057C05BF058C05CF0000E85
:10189800736E000E726E12D055C044F056C045F0FB
:1018A8005B0E466E000E476E59C048F05AC049F0AC
:1018B800D4EC06F044507226455073225BC0F6FF04
:1018C8005CC0F7FF0800F5500009D8A4E5D772C03E
:1018D80055F073C056F012000001F551F611D8A466
:1018E80005D0F5C023F0F6C024F006D0FF0EF5258C
:1018F800236EFF0EF621246E22C03CF1000E01017A
:101908003D6F20C015F021C016F03C0E176E010E79
:10191800186E23C019F024C01AF085EC0AF015C01F
:1019280020F016C021F012000100010001000000A3
:101938000000010001000000FFFFFFFF14001E006F
:1019480028003B007B00D4004C019001FFFFFFFF03
:10195800010001000100000000000100010000007A
:10196800FFFFFFFF000E0001936F000E926F0CD077
:1019780091C084F0856B8FC086F090C087F086ECAC
:101988000BF00001924B932B92518D25D96E9351F8
:101998008E21DA6EDF50916F9151D8B41200E8D7DA
:1019A800000E146E000E136E0BD012C005F0066AFE
:1019B80010C007F011C008F0BDEC0BF0134A142A50
:1019C80013500E24D96E14500F20DA6EDF50126EA9
:1019D8001250D8B41200E9D7000193BF05D0935133
:1019E80010E19205D8B00DD092C094F093C095F054
:1019F800941F951F944B952B94C092F095C093F02B
:101A0800120092C092F093C093F0120014BE05D059
:101A1800145010E11304D8B00DD013C015F014C041
:101A280016F0151E161E154A162A15C013F016C0F4
:101A380014F0120013C013F014C014F0120080C088
:101A480082F081C083F003D00001804B812B80C0DD
:101A5800D9FF81C0DAFFDF50D8A4F6D70001825140
:101A6800805D806F83518159816F1200000EF2BE34
:101A7800010E0001806FF29E8C86140EE82EFED7B0
:101A880000D08C96530EE82EFED700F0000180B1EE
:101A980002D0F29E01D0F28E12005F0E616E000E2F
:101AA800626E000E556E000E566E5DC057F05EC039
:101AB80058F0610E596E000E5A6E47EC0CF055C086
:101AC8005FF056C060F0120001C003F002C004F0DD
:101AD80002D0014A022A01C0D9FF02C0DAFFDF5052
:101AE800D8A4F7D70350015C016E04500258026E67
:101AF8001200000EF2BE010E016EF29E8C86140ECC
:101B0800E82EFED700D08C96530EE82EFED700F0B4
:101B180001B002D0F29E01D0F28E1200DE0E00015A
:101B2800E26F000EE36F000ED46F000ED56FDCC0BD
:101B3800D6F0DDC0D7F0E20ED86F000ED96FF3EC07
:101B48000BF012000001816F8C500F0B8C6E00019E
:101B58008139F00B8C108C6E3AEC0DF012000001FC
:101B6800826F000182390F0BA6EC0DF00001825143
:101B7800A6EC0DF01200026E8C500F0B8C6E023822
:101B8800F00B8C108C6E7DEC0DF01200036E033898
:101B98000F0BBFEC0DF00350BFEC0DF0120000016D
:101BA800836F8C8400018351B3EC0DF012000001A7
:101BB800836F8C9400018351B3EC0DF01200046E16
:101BC8008C840450CAEC0DF01200046E8C940450FE
:0C1BD800CAEC0DF0120005001E00080011
:10FE6800003132334134353642373839432A30236A
:10FE78004400501040000410497427732079612011
:10FE8800626F7920416C692100496E646976696402
:10FE980075616C20496E666F00507265737320300F
:10FEA80020746F2025642000486520676574746994
:10FEB8006E20686F7420004F7065726174696F6E90
:10FEC8002054696D650044697374616E636520250B
:10FED8006420636D0023206F662043616E6973742C
:10FEE8006572730043616E697374657220496E644C
:10FEF80065780043616E697374657220456D70742E
:10FF080079004E6F2042616C6C2041646465640026
:10FF180043616E69737465722046756C6C0041208C
:10FF2800666F7220416C69203B290025642043617B
:10FF38006E697374657273004572726F723A2050FD
:10FF480072657373007669657720726573756C7472
:10FF58007300436F727265637420204B6579007378
:10FF6800746172747320617420300043616E736928
:10FF780074657220256300416C6D6F737420646F23
:10FF88006E65006F662043616E6973746572005018
:10FF980072657373204120746F0025642073656354
:10FFA8006F6E64730023206F662042616C6C73006F
:10FFB80048692043756C6C2021002A20746F2065E5
:10FFC80078697400414E4420444F4E450073757063
:10FFD800706C6965640025642062616C6C730074E0
:10FFE8006F207374617274005072657373204100DE
:08FFF8004120204B6579000057
:020000040020DA
:08000000FFFFFFFFFFFFFFFF00
:020000040030CA
:0E000000FF021F1EFF8381FF0F400FE00F4025
:00000001FF
