:020000040000FA
:0400000007EF00F016
:10000800748276ED1EF04DEF23F0000E8C6E000E1C
:10001800956E0D0EC16EC08EF0866EEC22F0F28EDB
:10002800A00E186E860E196E010E1A6E000E1B6E4B
:10003800A3EC22F0D58ED59CD59AD598D586000EFE
:10004800D66E000ED76E939493968A948A96949E51
:100058008B9E948494929288929A93908A90949C7E
:100068008B9C92849286000E0101966F000E976F0A
:10007800C00E986F3F0E996F0A0E7B6F2B0E7C6F28
:10008800DD0E7D6F410E7E6F000E8D6F000E8C6F42
:10009800000E8F6F000E8E6F000E606F000E5F6F88
:1000A800000E626F000E616F000E876F000E866F84
:1000B800000E896F000E886F000E956F000E946F0A
:1000C800000E646F000E636F000E8B6F000E8A6F58
:1000D800000E836F000E826F000E776F000E766F32
:1000E800000E9C6F000E9D6F000E9E6F000E9F6F9E
:1000F800000E756F000E746F000E9B6F000E9A6FE6
:10010800000E666F000E656F5CD0020EB4EC20F036
:1001180038C03FF039C040F03AC041F03BC042F02F
:1001280096C143F097C144F098C145F099C146F093
:10013800EDEC1EF0D8B017D08A84040E646EE40E7D
:10014800E82EFED7642EFCD700D08A94D60E00D0B5
:1001580000D0E82EFCD700D0040E646E3E0EE82EC8
:10016800FED7642EFCD7030EB4EC20F038C03FF065
:1001780039C040F03AC041F03BC042F096C143F06C
:1001880097C144F098C145F099C146F0EDEC1EF0D6
:10019800D8B017D08A86040E646EE40EE82EFED717
:1001A800642EFCD700D0D60E00D000D0E82EFCD7A5
:1001B80000D08A96040E646E3E0EE82EFED7642E9A
:1001C800FCD7020EB4EC20F038C03FF039C040F044
:1001D8003AC041F03BC042F096C143F097C144F0A9
:1001E80098C145F099C146F0EDEC1EF0D8B017D093
:1001F800020EB4EC20F038C03FF039C040F03AC0ED
:1002080041F03BC042F096C143F097C144F098C119
:1002180045F099C146F0EDEC1EF0D8A076D70C0E4B
:10022800EDEC25F07AD0010EEDEC25F0110E646EA0
:100238003A0EE82EFED7642EFCD700D0710E0001CE
:10024800E46FFF0EE56F3FEC25F0C00EEDEC25F0F6
:10025800FCEC25F0000E0D6ED00E0C6EF3EC25F0C4
:10026800000E0D6E000E0C6EF3EC25F0F8EC25F088
:10027800FCEC25F0000E0D6ED10E0C6EF3EC25F0A3
:10028800000E01017A6F050E7A6501D00DD0690E56
:100298007A25D96EDA6A010EDA22000EAEEC25F064
:1002A800DF6E01017A2BEFD7010EAEEC25F00101CC
:1002B8006F6FF8EC25F0C00EEDEC25F0860E00010E
:1002C800E46FFE0EE56F6FC1E6F0E76B6EC1E8F014
:1002D800E96B6DC1EAF0EB6B3FEC25F0900EEDECAD
:1002E80025F0950E0001E46FFE0EE56F6BC1E6F098
:1002F800E76B6AC1E8F0E96B69C1EAF0EB6B3FECC8
:1003080025F00D0E656EAF0E646EB60EE82EFED7A4
:10031800642EFCD7652EFAD700D001010B51D8B452
:1003280082D7010EEDEC25F0110E646E3A0EE82E20
:10033800FED7642EFCD700D0F28A000E0101716F3F
:10034800000E706F8DD3210E646E760EE82EFED7E8
:10035800642EFCD700D0C2EC21F013C094F114C075
:1003680095F101018E518C1907E18F518D19D8A48F
:1003780003D0CEEC24F00FD08E518C5D8D51800AC5
:10038800646E8F51800A6458D8B003D078EC25F099
:1003980002D066EC25F096C13FF097C140F098C1B5
:1003A80041F099C142F0020EB4EC20F038C043F09D
:1003B80039C044F03AC045F03BC046F0EDEC1EF0C1
:1003C800D8B052D0010186518711D8A44DD0000E63
:1003D800876F010E866F8E4B8F2B9CC138F09DC1A5
:1003E80039F09EC13AF09FC13BF0000E236E000E1B
:1003F800246E400E256E410E266E7BC11FF07CC117
:1004080020F07DC121F07EC122F00DEC16F01FC056
:100418003CF020C03DF021C03EF022C03FF087EC08
:1004280014F038C09CF139C09DF13AC09EF13BC030
:100438009FF1010EEDEC25F0110E646E3A0EE82ED8
:10044800FED7642EFCD700D0450E0001E46FFF0EE6
:10045800E56F9CC1E6F09DC1E7F09EC1E8F09FC141
:10046800E9F03FEC25F020D0020EB4EC20F038C0C3
:100478003FF039C040F03AC041F03BC042F0000EB6
:10048800436E000E446E800E456E3F0E466EEDECD8
:100498001EF0D8B009D0010186058711D8A404D070
:1004A800000E876F000E866F96C13FF097C140F02F
:1004B80098C141F099C142F0030EB4EC20F038C065
:1004C80043F039C044F03AC045F03BC046F0EDEC8B
:1004D8001EF0D8B052D0010188518911D8A44DD04E
:1004E800000E896F010E886F8C4B8D2B9CC138F0E4
:1004F8009DC139F09EC13AF09FC13BF0000E236EBA
:10050800000E246E400E256E410E266E7BC11FF034
:100518007CC120F07DC121F07EC122F00DEC16F0E7
:100528001FC03CF020C03DF021C03EF022C03FF08B
:1005380087EC14F038C09CF139C09DF13AC09EF1A7
:100548003BC09FF1010EEDEC25F0110E646E3A0EE2
:10055800E82EFED7642EFCD700D0450E0001E46FCC
:10056800FF0EE56F9CC1E6F09DC1E7F09EC1E8F083
:100578009FC1E9F03FEC25F020D0030EB4EC20F049
:1005880038C03FF039C040F03AC041F03BC042F0BB
:10059800000E436E000E446E800E456E3F0E466E92
:1005A800EDEC1EF0D8B009D0010188058911D8A456
:1005B80004D0000E896F000E886F010183BF06D03A
:1005C800835103E1110E825DD8B0A6D08BBF06D04F
:1005D8008B5103E1110E8A5DD8B09ED095BF06D02D
:1005E800955103E1110E945DD8B096D09A519B11A4
:1005F800D8A492D0010EEDEC25F0110E646E3A0EDF
:10060800E82EFED7642EFCD700D0900EEDEC25F036
:10061800D80E0001E46FFF0EE56F3FEC25F0D00E19
:10062800EDEC25F02A0E0001E46FFE0EE56F94C193
:10063800E6F095C1E7F08AC1E8F08BC1E9F082C124
:10064800EAF083C1EBF03FEC25F08B8C1A0E656E57
:100658005E0E646E6E0EE82EFED7642EFCD7652EF5
:10066800FAD700D08B9CD89001010635D96E073592
:10067800DA6EC80ED926010EDA22000EDE6E000EE2
:10068800DD6E9CC148F09DC149F09EC14AF09FC1F2
:100698004BF0BBEC1FF0D89001010635D96E073539
:1006A800DA6EB40ED926010EDA2248C0DEFF49C040
:1006B800DDFFD8900635D96E0735DA6EA00ED9263B
:1006C800010EDA22000EDE6E000EDD6E064B072BE1
:1006D800000E3C6E000E3D6EF00E3E6E410E3F6EFB
:1006E8009CC138F09DC139F09EC13AF09FC13BF0E2
:1006F80087EC14F038C048F039C049F03AC04AF0E5
:100708003BC04BF0BBEC1FF048C076F149C077F115
:1007180001019A4B9B2B03D183BF06D0835103E180
:10072800320E825DD8B0FBD08BBF06D08B5103E16F
:10073800320E8A5DD8B0F3D095BF06D0955103E14B
:10074800320E945DD8B0EBD09A519B11D8A4E7D063
:10075800010EEDEC25F0110E646E3A0EE82EFED770
:10076800642EFCD700D0900EEDEC25F0E60E0001CB
:10077800E46FFF0EE56F3FEC25F0D00EEDEC25F0B1
:100788002A0E0001E46FFE0EE56F94C1E6F095C1F4
:10079800E7F08AC1E8F08BC1E9F082C1EAF083C1D1
:1007A800EBF03FEC25F08B8C76C111F077C112F09D
:1007B800000E12BEFF0E136E146E010EA4EC1CF098
:1007C80011C03FF012C040F013C041F014C042F015
:1007D8009CC143F09DC144F09EC145F09FC146F0C5
:1007E800EDEC1EF0D8B058D0000E0101716F010E6B
:1007F800706FD8900635D96E0735DA6EC80ED926CF
:10080800010EDA22010EDE6E000EDD6E9CC148F08C
:100818009DC149F09EC14AF09FC14BF0BBEC1FF04F
:10082800D89001010635D96E0735DA6EB40ED9268F
:10083800010EDA2248C0DEFF49C0DDFFD890063538
:10084800D96E0735DA6EA00ED926010EDA22010E0E
:10085800DE6E000EDD6E064B072B044B052B000EDB
:100868003C6E000E3D6EF00E3E6E410E3F6E9CC11A
:1008780038F09DC139F09EC13AF09FC13BF087EC3A
:1008880014F038C048F039C049F03AC04AF03BC0CB
:100898004BF0BBEC1FF038D7D89001010635D96E64
:1008A8000735DA6EC80ED926010EDA22010EDE6E81
:1008B800000EDD6E9CC148F09DC149F09EC14AF012
:1008C8009FC14BF0BBEC1FF0D89001010635D96EE3
:1008D8000735DA6EB40ED926010EDA2248C0DEFFDB
:1008E80049C0DDFFD8900635D96E0735DA6EA00EFF
:1008F800D926010EDA22000EDE6E000EDD6E064BE2
:10090800072B1A0E656E5E0E646E6E0EE82EFED70D
:10091800642EFCD7652EFAD700D08B9CF9D69A05A1
:100928009B11D8A416D095BF06D0955107E10A0EA1
:10093800945DD8B003D08E07D8A08F0795BF09D093
:10094800955104E11F0E945DD8A003D08C07D8A060
:100958008D0770057111D8A421D00F0E9A199B111B
:10096800D8A41CD0000E716F000E706F8B8C12D043
:100978008B8E210E646E760EE82EFED7642EFCD781
:1009880000D08B9EA30E646E550EE82EFED7642E03
:10099800FCD700F081A0ECD78B9C8B9E010EEDEC70
:1009A80025F0110E646E3A0EE82EFED7642EFCD7A1
:1009B80000D0450E0001E46FFF0EE56F9CC1E6F024
:1009C8009DC1E7F09EC1E8F09FC1E9F03FEC25F03A
:1009D800C00EEDEC25F0D00E0001E46FFF0EE56FC0
:1009E8009AC1E6F09BC1E7F03FEC25F0900EEDECE4
:1009F80025F0AD0E0001E46FFF0EE56F76C1E6F05D
:100A080077C1E7F03FEC25F0D00EEDEC25F07C0E39
:100A18000001E46FFF0EE56FC2EC21F013C0E6F0B1
:100A280014C0E7F03FEC25F08AC182F18BC183F155
:100A380094C18AF195C18BF1280E01019A199B1175
:100A4800D8A405D0000E9B6F000E9A6F09D09BBFEB
:100A580007D09B5103E19A05D8A002D09A4B9B2B53
:100A6800950E236EBF0E246ED60E256E3C0E266E96
:100A780000C111F001C112F002C113F003C114F05A
:100A8800010EA4EC1CF011C01FF012C020F013C01E
:100A980021F014C022F0DEEC12F01FC03FF020C09D
:100AA80040F021C041F022C042F0000E436E000E1B
:100AB800446EC80E456E420E466EEDEC1EF0D8B080
:100AC80091D19CC13FF09DC140F09EC141F09FC1B2
:100AD80042F0000E436E000E446EC80E456E430E83
:100AE800466EEDEC1EF0D8B07DD1010107BF2BD4C6
:100AF800075105E10B0E065DD8B074D124D472D12C
:100B080001018E518C1907E18F518D19D8A403D09A
:100B1800E6EC24F00FD08E518C5D8D51800A646E06
:100B28008F51800A6458D8B003D08AEC25F002D0DF
:100B38009CEC25F096C13FF097C140F098C141F078
:100B480099C142F0020EB4EC20F038C043F039C02D
:100B580044F03AC045F03BC046F0EDEC1EF0D8B08A
:100B680052D0010186518711D8A44DD0000E876F4D
:100B7800010E866F8E4B8F2B9CC148F09DC149F0AA
:100B88009EC14AF09FC14BF0000E236E000E246EEA
:100B9800400E256E410E266E7BC11FF07CC120F0F1
:100BA8007DC121F07EC122F00DEC16F01FC04CF083
:100BB80020C04DF021C04EF022C04FF0BEEC23F013
:100BC80048C09CF149C09DF14AC09EF14BC09FF1BD
:100BD800010EEDEC25F0110E646E3A0EE82EFED7EC
:100BE800642EFCD700D0450E0001E46FFF0EE56FC0
:100BF8009CC1E6F09DC1E7F09EC1E8F09FC1E9F015
:100C08003FEC25F020D0020EB4EC20F038C03FF0C5
:100C180039C040F03AC041F03BC042F0000E436E8C
:100C2800000E446E800E456E3F0E466EEDEC1EF0D3
:100C3800D8B009D0010186058711D8A404D0000EC8
:100C4800876F000E866F96C13FF097C140F098C13C
:100C580041F099C142F0030EB4EC20F038C043F0E3
:100C680039C044F03AC045F03BC046F0EDEC1EF008
:100C7800D8B052D0010188518911D8A44DD0000EA6
:100C8800896F010E886F8C4B8D2B9CC148F09DC1DC
:100C980049F09EC14AF09FC14BF0000E236E000E32
:100CA800246E400E256E410E266E7BC11FF07CC15E
:100CB80020F07DC121F07EC122F00DEC16F01FC09E
:100CC8004CF020C04DF021C04EF022C04FF0BEECD9
:100CD80023F048C09CF149C09DF14AC09EF14BC029
:100CE8009FF1010EEDEC25F0110E646E3A0EE82E20
:100CF800FED7642EFCD700D0450E0001E46FFF0E2E
:100D0800E56F9CC1E6F09DC1E7F09EC1E8F09FC188
:100D1800E9F03FEC25F020D0030EB4EC20F038C009
:100D28003FF039C040F03AC041F03BC042F0000EFD
:100D3800436E000E446E800E456E3F0E466EEDEC1F
:100D48001EF0D8B009D0010188058911D8A404D0B3
:100D5800000E896F000E886F010EEDEC25F0110E64
:100D6800646E3A0EE82EFED7642EFCD700D0450EEE
:100D78000001E46FFF0EE56F9CC1E6F09DC1E7F04E
:100D88009EC1E8F09FC1E9F03FEC25F0C00EEDEC04
:100D980025F0900E0001E46FFF0EE56F8CC1E6F0C0
:100DA8008DC1E7F03FEC25F0900EEDEC25F0860EB6
:100DB8000001E46FFF0EE56F8EC1E6F08FC1E7F02A
:100DC8003FEC25F0D00EEDEC25F07C0E0001E46F31
:100DD800FF0EE56FC2EC21F013C0E6F014C0E7F097
:100DE8003FEC25F0000E3F6E000E406EA00E416EE7
:100DF800C10E426E9CC143F09DC144F09EC145F0B6
:100E08009FC146F0EDEC1EF0D8A07AD6F29A950E66
:100E1800236EBF0E246ED60E256E3C0E266E00C1C4
:100E280011F001C112F002C113F003C114F0010E58
:100E3800A4EC1CF011C01FF012C020F013C021F068
:100E480014C022F0DEEC12F01FC048F020C049F0B8
:100E580021C04AF022C04BF0BBEC1FF048C008F19B
:100E680049C009F13AEC1BF0000E0101916F000E28
:100E7800906F000E756F000E746F000E936F010E69
:100E8800926F000E0B6F010EEDEC25F0110E646EE3
:100E98003A0EE82EFED7642EFCD700D0500E000183
:100EA800E46FFF0EE56F3FEC25F0900EEDEC25F0BA
:100EB800070E0001E46FFF0EE56F3FEC25F001011E
:100EC8000B51D8B4FCD7010EEDEC25F0110E646E71
:100ED8003A0EE82EFED7642EFCD700D0A40E0001EF
:100EE800E46FFE0EE56F3FEC25F0900EEDEC25F07B
:100EF800210E0001E46FFF0EE56F3FEC25F0330E85
:100F0800656EBB0E646EE00EE82EFED7642EFCD72D
:100F1800652EFAD7000E0101916F000E906F000E3A
:100F2800936F000E926F000E756F000E746F000EB7
:100F38000D6F010E0E6F010E0C6F01019051911192
:100F4800D8A429D092059311D8A425D0010EEDEC90
:100F580025F0110E646E3A0EE82EFED7642EFCD7EB
:100F680000D0590E0001E46FFE0EE56F3FEC25F04E
:100F7800900EEDEC25F05B0E0001E46FFF0EE56FBF
:100F880008C1E6F009C1E7F03FEC25F0000E0101C9
:100F9800936F000E926F90059111D8A42DD09205F1
:100FA8009311D8A429D0010EEDEC25F0110E646E32
:100FB8003A0EE82EFED7642EFCD700D0800EEDEC5A
:100FC80025F0770E0001E46FFE0EE56F3FEC25F08B
:100FD800900EEDEC25F0FA0E0001E46FFE0EE56FC1
:100FE80006C1E6F007C1E7F03FEC25F0000E01016D
:100FF800936F000E926FA8D0020E90199111D8A489
:101008002FD092059311D8A42BD0010EEDEC25F02A
:10101800110E646E3A0EE82EFED7642EFCD700D06F
:10102800660E0001E46FFF0EE56F3FEC25F0C00E81
:10103800EDEC25F0B60E0001E46FFF0EE56F3FEC16
:1010480025F0D00EEDEC25F0BF0E0001E46FFF0E89
:10105800E56F04C1E6F005C1E7F03FEC25F0C6D71F
:10106800030E90199111D8A435D092059311D8A4E4
:1010780031D0010EEDEC25F0110E646E3A0EE82E1B
:10108800FED7642EFCD700D03A0E0001E46FFE0EA6
:10109800E56F3FEC25F0C00EEDEC25F0390E0001B0
:1010A800E46FFF0EE56F3FEC25F0D00EEDEC25F078
:1010B8004A0E0001E46FFE0EE56FFF0E01010625E2
:1010C8000001E66FFF0E010107210001E76F3FEC09
:1010D80025F08CD7040E90199111D8A435D092051B
:1010E8009311D8A431D0010EEDEC25F0110E646EE9
:1010F8003A0EE82EFED7642EFCD700D0EC0E000185
:10110800E46FFE0EE56F3FEC25F0C00EEDEC25F028
:10111800DF0E0001E46FFF0EE56F3FEC25F0D00E07
:10112800EDEC25F0A40E0001E46FFF0EE56FFF0E55
:10113800010106250001E66FFF0E010107210001EC
:10114800E76F3FEC25F052D70D51D8B44AD0010EC5
:10115800EDEC25F0110E646E3A0EE82EFED7642EE3
:10116800FCD700D0DE0E0001E46FFE0EE56F3FEC09
:1011780025F0C00EEDEC25F0DF0E0001E46FFF0E48
:10118800E56F3FEC25F0900EEDEC25F0140E000114
:10119800E46FFF0EE56F3FEC25F0D00EEDEC25F087
:1011A800C80E0001E46FFF0EE56F3FEC25F001016A
:1011B8000E51D8B4FCD7130E0A25F66EF76AFE0E48
:1011C800F7220800F5CF64F0D00E6424676F686BCF
:1011D800FF0E682367C111F068C112F063EC1AF0C2
:1011E80099D60E51D8B449D181380F0B0F0B816FA6
:1011F800000E736F000E726F000E856F000E846F05
:10120800000E806F010E7F6F130E8125F66EF76A50
:10121800FE0EF7220800F5CF64F0D00E6424786F34
:10122800796BFF0E792321D184518511D8A449D037
:101238007F058011D8A445D0010EEDEC25F0110EE4
:10124800646E3A0EE82EFED7642EFCD700D02D0E21
:101258000001E46FFF0EE56F130E01018125F66EA4
:10126800F76AFE0EF7220800F5500001E66FE76BFB
:101278003FEC25F0900EEDEC25F0680E0001E46FD0
:10128800FE0EE56FD89001017835D96E7935DA6EA2
:10129800B40ED926010EDA22DECFE6F0DDCFE7F074
:1012A8003FEC25F0D00EEDEC25F09A0E0001E46F2E
:1012B800FF0EE56F3FEC25F0000E0101806F000E78
:1012C8007F6F84058511D8A451D07F058011D8A4DB
:1012D8004DD0010EEDEC25F0110E646E3A0EE82E9D
:1012E800FED7642EFCD700D02D0E0001E46FFF0E50
:1012F800E56F130E01018125F66EF76AFE0EF722DF
:101308000800F5500001E66FE76B3FEC25F0900E02
:10131800EDEC25F0D89001017835D96E7935DA6E83
:10132800C80ED926010EDA22DE04DE10D8A408D0B1
:10133800D00E0001E46FFE0EE56F3FEC25F007D0FC
:10134800B30E0001E46FFE0EE56F3FEC25F0D00E02
:10135800EDEC25F09A0E0001E46FFF0EE56F3FEC0F
:1013680025F0000E0101806F000E7F6F020E8419B8
:101378008511D8A451D07F058011D8A44DD0010E75
:10138800EDEC25F0110E646E3A0EE82EFED7642EB1
:10139800FCD700D02D0E0001E46FFF0EE56F130E91
:1013A80001018125F66EF76AFE0EF7220800F55056
:1013B8000001E66FE76B3FEC25F0900EEDEC25F0B1
:1013C800D89001017835D96E7935DA6EA00ED92614
:1013D800010EDA22DE04DE10D8A408D0C50E000102
:1013E800E46FFE0EE56F3FEC25F007D0C20E00015A
:1013F800E46FFE0EE56F3FEC25F0D00EEDEC25F026
:101408009A0E0001E46FFF0EE56F3FEC25F0000E29
:101418000101806F000E7F6FB80E72191DE10B0E6F
:101428007319D8A419D0000E806F010E7F6F844BFA
:10143800852B84C10BF085C10CF0000E0E6E030ED7
:101448000D6E00EC22F00BC084F10CC085F1000E8B
:101458000101736F000E726F724B732B040E646E72
:101468003E0EE82EFED7642EFCD701010C51D8B4ED
:10147800DBD6000E0E6F000E0C6FD00E74191DE136
:10148800070E7519D8A419D0000E936F010E926F2C
:10149800904B912B90C10BF091C10CF0000E0E6E89
:1014A800050E0D6E00EC22F00BC090F10CC091F10E
:1014B800000E0101756F000E746F744B752B040ECE
:1014C800646E3E0EE82EFED7642EFCD736D5000E8D
:1014D80000019B6F000E9A6F54C0ACF055C0ADF080
:1014E80056C0AEF057C0AFF0AFAF16D0000E9B6F2E
:1014F800010E9A6FACC00BF0ADC00CF0AEC00DF091
:10150800AFC00EF0FEEC24F00BC0ACF00CC0ADF098
:101518000DC0AEF00EC0AFF0000E0001B36F000EAC
:10152800B26F6EC09FF06FC0A0F09A519B11D8A403
:1015380002D072A413D09A519B11D8A404D0000EE3
:10154800856F2B0E03D0000E856F2D0E846F84C01F
:101558000FF1B24BB32B9F07D8A0A007ACC00BF07C
:10156800ADC00CF0AEC00DF0AFC00EF055EC1FF0E2
:101578000B040C10D8A44CD0BF0E596EFF0E5A6E37
:1015880058505B6E5C6A59505B265A505C225C501E
:1015980006E11A0E5B5CD8B002D0010E01D0000E35
:1015A8000001866F876B86518711D8B40DD00F0E56
:1015B800B2250B6E010EB3210C6EEB0E0D6EFF0EF5
:1015C8000E6EFCEC22F00CD00F0EB2250B6E010E45
:1015D800B3210C6EF30E0D6EFF0E0E6EFCEC22F0B6
:1015E8000001FD0E9F27FF0EA02352C01FF053C01D
:1015F80020F00F0E216E010E226E9FC023F0A0C0B6
:1016080024F069EC20F01FC052F020C053F0120003
:10161800ACC00BF0ADC00CF0AEC00DF0AFC00EF01A
:1016280055EC1FF00B500C10D8A44CD0BF0E596EBF
:10163800FF0E5A6E58505B6E5C6A59505B265A50C2
:101648005C225C5006E11A0E5B5CD8B002D0010E39
:1016580001D0000E0001886F896B88518911D8B4B8
:101668000DD00F0EB2250B6E010EB3210C6EEF0ECE
:101678000D6EFF0E0E6EFCEC22F00CD00F0EB22594
:101688000B6E010EB3210C6EF70E0D6EFF0E0E6E73
:10169800FCEC22F00001FD0E9F27FF0EA02352C094
:1016A8001FF053C020F00F0E216E010E226E9FC056
:1016B80023F0A0C024F069EC20F01FC052F020C035
:1016C80053F01200000E0001B46F000EB56F800ECB
:1016D800B66F3F0EB76F000EB16F000EB06FACC0A3
:1016E8000BF0ADC00CF0AEC00DF0AFC00EF0000EA8
:1016F8000F6E000E106E000E116E000E126EFAECD8
:1017080020F0D8A01ED076D0B4C01FF0B5C020F00D
:10171800B6C021F0B7C022F0000E236E000E246E72
:10172800200E256E410E266EDEEC12F01FC0B4F0BE
:1017380020C0B5F021C0B6F022C0B7F00001B04B10
:10174800B12BACC03FF0ADC040F0AEC041F0AFC06F
:1017580042F0000E236E000E246E200E256E410E00
:10176800266EB4C01FF0B5C020F0B6C021F0B7C0D7
:1017780022F0DEEC12F01FC043F020C044F021C07C
:1017880045F022C046F0EDEC1EF0D8A01FD0BCD723
:10179800B4C01FF0B5C020F0B6C021F0B7C022F029
:1017A800000E236E000E246E200E256E410E266E4E
:1017B8000DEC16F01FC0B4F020C0B5F021C0B6F093
:1017C80022C0B7F00001B007D8A0B107ACC03FF005
:1017D800ADC040F0AEC041F0AFC042F0B4C043F07D
:1017E800B5C044F0B6C045F0B7C046F0EDEC1EF009
:1017F800D8A0CED758C011F0126A73EC23F011505C
:101808000001A16FA1C09EF0670EA119D8A419D03C
:1018180070507110D8A404D0000E716E010E706E55
:1018280071BE05D0715008E17004D8B005D0000E23
:101838009D6F060E9C6F08D070C09CF071C09DF023
:1018480003D071AEF9D7F3D7670EA119D8A422D067
:10185800B1AF06D0FC0EB05DFF0EB159D8A018D0BC
:10186800FF0E596EFF0E5A6E9CC05BF09DC05CF077
:1018780059505B265A505C22B0515B5C5C50800A20
:101888005D6EB151800A5D58D8A002D0660E01D0B5
:10189800650E9E6F9CC094F09DC095F0670EA119CF
:1018A800D8A405D0660E9E19D8B4B1AF02D0944B17
:1018B800952B660E9E19D8A416D0B1AF0CD0000E89
:1018C800B46F000EB56F800EB66F3F0EB76F000E87
:1018D800B16F000EB06F670EA119D8B404D0B05123
:1018E8009427B1519523000EAB6F000EAA6FACC0C0
:1018F800A2F0ADC0A3F0AEC0A4F0AFC0A5F0B4C0D4
:1019080080F0B5C081F0B6C082F0B7C083F07BD05C
:10191800A2C01FF0A3C020F0A4C021F0A5C022F0EF
:10192800B4C023F0B5C024F0B6C025F0B7C026F087
:101938000DEC16F01FC038F020C039F021C03AF085
:1019480022C03BF088EC19F038C0A6F039C0A7F0E7
:101958003AC0A8F03BC0A9F0A6C048F0A7C049F01B
:10196800A8C04AF0A9C04BF0BBEC1FF048C098F0E3
:1019780049C099F0A2C048F0A3C049F0A4C04AF0F9
:10198800A5C04BF0B4C023F0B5C024F0B6C025F014
:10199800B7C026F0A6C01FF0A7C020F0A8C021F04D
:1019A800A9C022F0DEEC12F01FC04CF020C04DF0B0
:1019B80021C04EF022C04FF0BEEC23F048C0A2F088
:1019C80049C0A3F04AC0A4F04BC0A5F0B4C01FF0B2
:1019D800B5C020F0B6C021F0B7C022F0000E236ECB
:1019E800000E246E200E256E410E266E0DEC16F0AC
:1019F8001FC0B4F020C0B5F021C0B6F022C0B7F0C7
:101A08000001AA4BAB2B9451AA5DAB51800A596EC9
:101A18009551800A5958D8A07BD7B4C01FF0B5C0DB
:101A280020F0B6C021F0B7C022F0000E236E000EE1
:101A3800246EA00E256E400E266EDEEC12F01FC03E
:101A4800A6F020C0A7F021C0A8F022C0A9F0A2C02B
:101A58003FF0A3C040F0A4C041F0A5C042F0A6C02A
:101A680043F0A7C044F0A8C045F0A9C046F0EDEC8B
:101A78001EF0D8B003D0000E000118D0A2C00BF0A1
:101A8800A3C00CF0A4C00DF0A5C00EF0A6C00FF0C6
:101A9800A7C010F0A8C011F0A9C012F0FAEC20F00D
:101AA800D8A00BD0000198B108D0000EA66F000E88
:101AB800A76F000EA86F000EA96FACC038F0ADC0BC
:101AC80039F0AEC03AF0AFC03BF0A6C03CF0A7C0BA
:101AD8003DF0A8C03EF0A9C03FF087EC14F038C034
:101AE800A2F039C0A3F03AC0A4F03BC0A5F080C072
:101AF800B4F081C0B5F082C0B6F083C0B7F0650E0F
:101B080000019E19D8B405D0B0C096F0B1C097F0C6
:101B180004D0000E976F000E966F000E936F000EA4
:101B2800926F000E916F000E906F000EAB6F000E5B
:101B3800AA6FC7D0A2C01FF0A3C020F0A4C021F094
:101B4800A5C022F0B4C023F0B5C024F0B6C025F07B
:101B5800B7C026F00DEC16F01FC038F020C039F0E1
:101B680021C03AF022C03BF088EC19F038C0A6F04A
:101B780039C0A7F03AC0A8F03BC0A9F0A6C048F009
:101B8800A7C049F0A8C04AF0A9C04BF0BBEC1FF0B1
:101B980048C098F049C099F072B80DD0000198512A
:101BA8009911D8A408D0670EA119D8B497AF03D05B
:101BB800904B912B3AD0000192519311D8B497AF22
:101BC80022D00F0EB225D96E010EB321DA6E2E0E79
:101BD800DF6EB24BB32B9F07D8A0A007000E936F00
:101BE800010E926F10D00F0EB225D96E010EB321DF
:101BF800DA6E300EDF6EB24BB32B9F07D8A0A0076A
:101C08009007D8A0910790519111D8A4ECD70F0E46
:101C1800B225D96E010EB321DA6E9851300FDF6EFE
:101C2800B24BB32B9F07D8A0A007A2C048F0A3C00F
:101C380049F0A4C04AF0A5C04BF0B4C023F0B5C029
:101C480024F0B6C025F0B7C026F0A6C01FF0A7C084
:101C580020F0A8C021F0A9C022F0DEEC12F01FC0CD
:101C68004CF020C04DF021C04EF022C04FF0BEEC29
:101C780023F048C0A2F049C0A3F04AC0A4F04BC06A
:101C8800A5F0B4C01FF0B5C020F0B6C021F0B7C0B1
:101C980022F0000E236E000E246E200E256E410EDB
:101CA800266E0DEC16F01FC0B4F020C0B5F021C0B0
:101CB800B6F022C0B7F000019607D8A09707AA4B44
:101CC800AB2B9451AA5DAB51800A596E9551800A8D
:101CD8005958D8B008D0B3BF2DD7B35104E14B0E33
:101CE800B25DD8A027D792519311D8B472A80AD060
:101CF8000F0EB225D96E010EB321DA6E2E0EDF6EED
:101D0800B24BB32B0F0EB225D96E010EB321DA6E8A
:101D1800000EDF6E650E9E19D8A4ADD0000EAB6F15
:101D28004F0EAA6F0F0EAA25D96E010EAB21DA6EDF
:101D3800000EDF6E000E9B6F000E9A6FB1AF08D0D9
:101D4800000E9B6F010E9A6FB06DB11FD8B0B12B0A
:101D5800000E9D6F020E9C6F2BD0AA07D8A0AB0770
:101D68000F0EAA25D96E010EAB21DA6EB0C00BF0AA
:101D7800B1C00CF0000E0E6E0A0E0D6E00EC22F0D3
:101D88000B50300FDF6EB0C00BF0B1C00CF0000E7E
:101D98000E6E0A0E0D6E3FEC21F00BC0B0F00CC0B9
:101DA800B1F000019C07D8A09D079F07D8A0A00705
:101DB800B051B111D8A4D1D79DBF05D09D51CDE167
:101DC8009C05D8B0CAD7AA07D8A0AB079A519B11CF
:101DD800D8A404D0000E8B6F2B0E03D0000E8B6F8F
:101DE8002D0E8A6F0F0EAA25D96E010EAB21DA6E61
:101DF8008AC0DFFF9F07D8A0A007AA07D8A0AB0713
:101E0800BF0E596EFF0E5A6E58505B6E5C6A595081
:101E18005B265A505C225C5006E11A0E5B5CD8B017
:101E280002D0010E01D0000E8E6F8F6B8E518F1174
:101E3800D8A404D0000E8D6F650E03D0000E8D6FF0
:101E4800450E8C6F0F0EAA25D96E010EAB21DA6EE6
:101E58008CC0DFFF9F07D8A0A0070F0EB2250B6E1E
:101E6800010EB3210C6E0F0EAA250D6E010EAB21CB
:101E78000E6EFCEC22F052C01FF053C020F00F0E83
:101E8800216E010E226E9FC023F0A0C024F069ECE1
:101E980020F01FC052F020C053F01200BAC0D9FF82
:101EA800BBC0DAFFDECFF6FFDDCFF7FF0800F55045
:101EB800250AD8A465D3BAC0D9FFBBC0DAFFDE2A89
:101EC800000EDD22000E6F6E000E6E6E6EC072F098
:101ED8006FC073F070687168000E0001CF6F000E5C
:101EE80014D07280BAC0D9FFBBC0DAFFDE2A000E58
:101EF800DD222ED07282F6D77284F4D77286F2D79A
:101F08007288F0D7000ECF6F010ECE6F21D0BAC005
:101F1800D9FFBBC0DAFFDECFF6FFDDCFF7FF080041
:101F2800F5505E6E5F6A5F50000AD8A4EBD75E502A
:101F3800200AD8B4E3D7030AD8B4E2D7080AD8B439
:101F4800DBD7060AD8B4CDD71D0AD8B4D3D7DAD789
:101F5800CE51CF11D8B4DBD772B07292BAC0D9FFC4
:101F6800BBC0DAFFDECFF6FFDDCFF7FF0800F55084
:101F78002A0AD8A423D0BAC0D9FFBBC0DAFFDE2A08
:101F8800000EDD22BCC0D9FFBDC0DAFFDFCF5EF096
:101F9800020EDE26DFCF5FF0000EDD225EC0D9FF25
:101FA8005FC0DAFFDECF6EF0DDCF6FF06FAE40D0EE
:101FB80072806E6C6F1ED8B06F2A3AD0BAC0D9FF43
:101FC800BBC0DAFFDECF12F0DDCF13F044EC1DF01A
:101FD80012C06EF013C06FF007D0BAC0D9FFBBC0F3
:101FE800DAFFDE2A000EDD22D00E5E6EFF0E5F6E77
:101FF800BAC0D9FFBBC0DAFFDECFF6FFDDCFF7FFEF
:102008000800F550606E616A5E5060265F5061227C
:10201800615006E10A0E605CD8B002D0010E01D012
:10202800000E0001D06FD16BD051D111D8A4D5D7F3
:10203800BAC0D9FFBBC0DAFFDECFF6FFDDCFF7FFAE
:102048000800F5502E0AD8A46ED0000E716E000E4E
:10205800706EBAC0D9FFBBC0DAFFDE2A000EDD22DF
:10206800BAC0D9FFBBC0DAFFDECFF6FFDDCFF7FF7E
:102078000800F5502A0AD8A41CD0BAC0D9FFBBC0A2
:10208800DAFFDE2A000EDD22BCC0D9FFBDC0DAFFB0
:10209800DFCF5EF0020EDE26DFCF5FF0000EDD221E
:1020A8005EC0D9FF5FC0DAFFDECF70F0DDCF71F020
:1020B8003AD0BAC0D9FFBBC0DAFFDECF12F0DDCF0D
:1020C80013F044EC1DF012C070F013C071F007D08B
:1020D800BAC0D9FFBBC0DAFFDE2A000EDD22D00E5F
:1020E8005E6EFF0E5F6EBAC0D9FFBBC0DAFFDECFEF
:1020F800F6FFDDCFF7FF0800F550606E616A5E50AD
:1021080060265F506122615006E10A0E605CD8B01B
:1021180002D0010E01D0000E0001D26FD36BD25154
:10212800D311D8A4D5D7BAC0D9FFBBC0DAFFDECF48
:10213800F6FFDDCFF7FF0800F550116E126A73EC59
:1021480023F011500001DA6FDA51D8B435D0BAC093
:10215800D9FFBBC0DAFFDECF5EF0DDCF5FF0010E46
:102168005E26000E5F225EC0F6FF5FC0F7FF080024
:10217800F550116E126A73EC23F011500001DB6FF9
:10218800DB51D8B419D0BAC0D9FFBBC0DAFFDECF53
:102198005EF0DDCF5FF0020E5E26000E5F225EC0AD
:1021A800F6FF5FC0F7FF0800F550116E126A73EC76
:1021B80023F011500001DC6FBAC0D9FFBBC0DAFFB1
:1021C800DECFF6FFDDCFF7FF0800F550630AD8A48D
:1021D80026D0BAC0D9FFBBC0DAFFDE2A000EDD2246
:1021E800BCC0D9FFBDC0DAFFDFCF5EF0020EDE262D
:1021F800DFCF5FF0000EDD225EC0D9FF5FC0DAFFDF
:10220800DF50DD6FB8C02AF0B9C02BF0DDC02CF06C
:1022180026EC23F02AC0B8F02BC0B9F01200BAC0DF
:10222800D9FFBBC0DAFFDECFF6FFDDCFF7FF08002E
:10223800F550640AD8B40DD0BAC0D9FFBBC0DAFFD4
:10224800DECFF6FFDDCFF7FF0800F550690AD8A406
:102258003FD0BAC0D9FFBBC0DAFFDE2A000EDD22AC
:10226800BCC0D9FFBDC0DAFFDFCF5EF0020EDE26AC
:10227800DFCF5FF0000EDD225EC0D9FF5FC0DAFF5E
:10228800DECFBEF0DDCFBFF0000EBFBFFF0EC06FC8
:10229800C16FC26FC36FC46FC56FB8C02AF0B9C031
:1022A8002BF0BEC02CF0BFC02DF0C0C02EF0C1C0B6
:1022B8002FF0C2C030F0C3C031F0C4C032F0C5C086
:1022C80033F051EC17F02AC0B8F02BC0B9F0120067
:1022D800660EDA19D8A43FD0BAC0D9FFBBC0DAFF5E
:1022E800DECFF6FFDDCFF7FF0800F5CFDDF0BAC08F
:1022F800D9FFBBC0DAFFDE2A000EDD22BCC0D9FF41
:10230800BDC0DAFFDFCF5EF0040EDE26DFCF5FF060
:10231800000EDD225EC0D9FF5FC0DAFFDECFD6F047
:10232800DECFD7F0DECFD8F0DECFD9F0B8C052F08C
:10233800B9C053F0D6C054F0D7C055F0D8C056F045
:10234800D9C057F0DDC058F06BEC0AF052C0B8F0B5
:1023580053C0B9F01200DA0E0B6E000E0C6EFB0EB5
:102368000D6EFF0E0E6E000E106E020E0F6E18EC44
:1023780020F00B500C10D8A46AD0BAC0D9FFBBC04B
:10238800DAFFDECF5EF0DDCF5FF0010E5E26000ED5
:102398005F225EC0F6FF5FC0F7FF0800F5CFDDF0F3
:1023A800BF0E5E6EFF0E5F6EBAC0D9FFBBC0DAFF0C
:1023B800DECFF6FFDDCFF7FF0800F550606E616AEB
:1023C8005E5060265F506122615006E11A0E605C23
:1023D800D8B002D0010E01D0000E0001D46FD56B29
:1023E800D451D511BCC0D9FFBDC0DAFFDFCF5EF034
:1023F800040EDE26DFCF5FF0000EDD225EC0D9FFBF
:102408005FC0DAFFDECFD6F0DECFD7F0DECFD8F070
:10241800DECFD9F0020EBAC0D9FFBBC0DAFFDE2684
:10242800000EDD22B8C052F0B9C053F0D6C054F047
:10243800D7C055F0D8C056F0D9C057F0DDC058F015
:102448006BEC0AF052C0B8F053C0B9F01200BAC031
:10245800D9FFBBC0DAFFDECFF6FFDDCFF7FF0800FC
:10246800F550780AD8B40DD0BAC0D9FFBBC0DAFF8E
:10247800DECFF6FFDDCFF7FF0800F550580AD8A4E5
:102488004ED0BAC0D9FFBBC0DAFFDECFF6FFDDCF32
:10249800F7FF0800F5CFDDF0BAC0D9FFBBC0DAFFFF
:1024A800DE2A000EDD22BCC0D9FFBDC0DAFFDFCFB7
:1024B8005EF0020EDE26DFCF5FF0000EDD225EC08A
:1024C800D9FF5FC0DAFFDECF60F0DDCF61F060C01A
:1024D800C6F061C0C7F00001C86BC96BCA6BCB6B93
:1024E800CC6BCD6BB8C02AF0B9C02BF0C6C02CF0AD
:1024F800C7C02DF0C8C02EF0C9C02FF0CAC030F038
:10250800CBC031F0CCC032F0CDC033F0DDC034F0F8
:1025180072EC18F02AC0B8F02BC0B9F01200BAC09B
:10252800D9FFBBC0DAFFDECFF6FFDDCFF7FF08002B
:10253800F550250AD8A417D0BAC0D9FFBBC0DAFF16
:10254800DE2A000EDD22000E106E250E0F6EB8C0BA
:1025580011F0B9C012F038EC22F0000E0001B96F8A
:10256800010EB86F1200BAC0D9FFBBC0DAFFDE2A6D
:10257800000EDD22000E0001B96F000EB86F1200C8
:10258800BAC0D9FFBBC0DAFFDECFF6FFDDCFF7FF59
:102598000800F5500F6E106AB8C011F0B9C012F0FB
:1025A80038EC22F0BAC0D9FFBBC0DAFFDE2A000E31
:1025B800DD22D3D72250800B2B6E22502224316E7D
:1025C80021BE31803150D8B40DD03128D8A408D0DC
:1025D800000E1F6E000E206E000E216E000E226E81
:1025E800218E08D0000E1F6E000E206E000E216E88
:1025F800000E226E2650800B2B1A265026242C6E95
:1026080025BE2C802C50D8B40DD02C28D8A408D0A6
:10261800000E236E000E246E000E256E000E266E30
:10262800258E08D0000E236E000E246E000E256E37
:10263800000E266E2C50D8B403D03150D8A409D03F
:10264800000E1F6E000E206E000E216E000E226E10
:10265800120025501F02F3CF36F0F4CF37F0365072
:102668002D6E2E6A2F6A306A3750326E336A346A9A
:10267800356A24502002F3CF36F0F4CF37F03650C5
:102688002D26000E2E222F22302237503226000E01
:1026980033223422352223502102F3CF36F0F4CFEF
:1026A80037F036502D26000E2E222F22302237509A
:1026B8003226000E3322342235222FC030F02EC0AD
:1026C8002FF02DC02EF02D6A23502002F3CF36F0C4
:1026D800F4CF37F036502D2637502E22000E2F22F9
:1026E800000E302224501F02F3CF36F0F4CF37F01B
:1026F80036502D2637502E22000E2F22000E302263
:102708002FC030F02EC02FF02DC02EF02D6A235090
:102718001F02F3CF36F0F4CF37F036502D2637505E
:102728002E22000E2F22000E302225502002F3CF39
:1027380036F0F4CF37F03650322637503322000EB9
:102748003422000E352224502102F3CF36F0F4CF84
:1027580037F03650322637503322000E3422000E1E
:10276800352225502102F3CF36F0F4CF37F036501A
:10277800276E3750286E296A2A6A29C02AF028C08D
:1027880029F027C028F0276A2750322628503322FC
:10279800295034222A5035222DC027F02EC028F087
:1027A8002FC029F030C02AF0190E05D0D8902A324F
:1027B800293228322732E82EF9D7275032262850D6
:1027C8003322295034222A5035222FC030F02EC00F
:1027D8002FF02DC02EF02D6A2C5031C027F0286A1A
:1027E8002726000E2822820E2724366EFF0E282068
:1027F800376E0FD0D890323633363436353630BE51
:102808003280D8902D362E362F3630363606D8A060
:10281800370634AEEFD7000E2C6E30AE17D0FF0E51
:102828002D14276EFF0E2E14286EFF0E2F14296EFE
:102838007F0E30142A6E2750281029102A10D8B479
:1028480003D0010E2C6E02D032B0FBD72C50D8B476
:102858001FD0010E3226000E33223422352235A035
:1028680017D032C027F033C028F034C029F035C063
:102878002AF02A342A3229322832273227C032F065
:1028880028C033F029C034F02AC035F0364A372A38
:1028980037BE0DD0375003E13628D8A008D0000E37
:1028A800326E000E336E800E346E7F0E20D037BE2F
:1028B80005D037500EE13604D8B00BD0000E326E7A
:1028C800000E336E000E346E000E356E000E2B6E49
:1028D8000FD036C031F0FF0E3216FF0E33167F0EC2
:1028E8003416000E351631B0348ED8903130356E2E
:1028F8002B50351232C01FF033C020F034C021F005
:1029080035C022F012003B50800B446E3B503B24F4
:10291800466E3ABE46804650D8B40DD04628D8A454
:1029280008D0000E386E000E396E000E3A6E000E9A
:102938003B6E3A8E06D0000E386E000E396E000ED1
:102948003A6E000E3B6E3F50800B456E4450451862
:10295800D8A4448C3F503F24456E3EBE4580455028
:10296800D8B40DD04528D8A408D0000E3C6E000E6F
:102978003D6E000E3E6E000E3F6E3E8E06D0000E7F
:102988003C6E000E3D6E000E3E6E000E3F6E4650D1
:10299800455CD8B022D044AC02D0800E441A46C060
:1029A80047F045C046F047C045F038C047F03CC046
:1029B80038F047C03CF039C047F03DC039F047C057
:1029C8003DF03AC047F03EC03AF047C03EF03BC049
:1029D80047F03FC03BF047C03FF0000E476E4650FF
:1029E80045C040F0416A405E000E415A41BE2CD0BD
:1029F800415004E11A0E405CD8A026D03850391056
:102A08003A103B10D8B402D0010E01D0000E476E28
:102A1800000E386E000E396E000E3A6E000E3B6ED8
:102A280045C046F015D047A005D0D89047300109D9
:102A3800476E02D0D890473238B0478E3B343B328D
:102A48003A3239323832462A4550465CD8A0EBD75C
:102A580044BC28D04650D8A409D0000E386E000EC9
:102A6800396E000E3A6E000E3B6E12003C5038264E
:102A78003D5039223E503A223F503B223BA071D074
:102A880047A005D0D89047300109476E02D0D890AA
:102A9800473238B0478E3B343B323A3239323832DB
:102AA800462A5FD03C50385C3D5039583E503A5821
:102AB8003B50800A406E3F50800A4058D8B025D01D
:102AC80038503C5C406E39503D58416E3A503E5843
:102AD800426E3B503F58436EFF0E4024386EFF0E47
:102AE8004120396EFF0E42203A6EFF0E43203B6EA6
:102AF800800E441A476C4750D8A40FD0010E3826D0
:102B0800000E39223A223B2208D03C50385E3D5014
:102B1800395A3E503A5A3F503B5A385039103A10B9
:102B28003B10D8A41CD04750D8A419D0000E386E3A
:102B3800000E396E000E3A6E000E3B6E1200D890F1
:102B4800383639363A363B3647BE388047A002D049
:102B5800D88001D0D89047364650D8A446063AAE19
:102B6800EED7000E456E47AE0BD047C040F07F0E43
:102B78004016D8B403D0010E456E02D038B0FBD74A
:102B88004550D8B420D0010E3826000E39223A22FA
:102B98003B223BA018D038C040F039C041F03AC0C1
:102BA80042F03BC043F04334433242324132403278
:102BB80040C038F041C039F042C03AF043C03BF061
:102BC8004628D8A4462A4628D8B403D04650D8A4C4
:102BD8000DD0000E386E000E396E000E3A6E000EE3
:102BE8003B6E4650D8A402D0000E446E46A002D0D8
:102BF8003A8E01D03A9ED89046303B6E44BE3B8E0A
:102C080038C038F039C039F03AC03AF03BC03BF030
:102C180012002250800B2F6E22502224366E21BEC5
:102C280036803650D8B40DD03628D8A408D0000E37
:102C38001F6E000E206E000E216E000E226E218E79
:102C480006D0000E1F6E000E206E000E216E000EC4
:102C5800226E2650800B2F1A26502624376E25BE4A
:102C680037803750D8B40DD03728D8A408D0000EF4
:102C7800236E000E246E000E256E000E266E258E25
:102C880006D0000E236E000E246E000E256E000E78
:102C9800266E2350241025102610D8A417D0000E15
:102CA8001F6E000E206E000E216E000E226E800E2A
:102CB80021127F0E22122F5022121FC01FF020C097
:102CC80020F021C021F022C022F012003650D8A4F2
:102CD80009D0000E1F6E000E206E000E216E000E31
:102CE800226E1200375036C027F0286A275E000E81
:102CF800285A7F0E2724306E000E2820316E1FC000
:102D08002BF020C02CF021C02DF022C02EF0000E98
:102D18001F6E000E206E000E216E000E226E000E39
:102D2800326E000E336E000E346E000E356E000EDD
:102D3800376E28D03750D8B411D0D8902B362C36CF
:102D48002D362E36D8901F3620362136223635BEFF
:102D58001F80D890323633363436353623502B5CC4
:102D680024502C5825502D5826502E58D8A009D01C
:102D7800358C23502B5E24502C5A25502D5A265022
:102D88002E5A372A190E3764D5D72B502C102D10F0
:102D98002E10D8B411D032800FD0D8901F362036DC
:102DA8002136223635BE1F80D89032363336343637
:102DB80035363006D8A0310621AEEFD7000E376E73
:102DC80035AE17D0FF0E3214276EFF0E3314286E5F
:102DD800FF0E3414296E7F0E35142A6E27502810E2
:102DE80029102A10D8B403D0010E376E02D01FB0B4
:102DF800FBD73750D8B41FD0010E1F26000E202253
:102E08002122222222A017D01FC027F020C028F09C
:102E180021C029F022C02AF02A342A322932283245
:102E2800273227C01FF028C020F029C021F02AC06F
:102E380022F0304A312A31BE10D0315003E1302817
:102E4800D8A00BD0000E316E3068000E1F6E000E39
:102E5800206E000E216E000E226E31BE05D031505C
:102E680011E13004D8B00ED0000E316E000E306E75
:102E7800000E1F6E000E206E000E216E000E226ED8
:102E8800000E2F6E30C036F036A002D0218E01D051
:102E9800219ED8903630226E0ED72CC044F02DC01B
:102EA80045F02EC046F02FC047F030C048F031C082
:102EB80049F032C04AF033C04BF04BAE02D0010E9D
:102EC80001D0000E426E436A42504310D8B410D06D
:102ED8004B1E4A1E491E481E471E461E451E446C70
:102EE800000E452246224722482249224A224B22E6
:102EF80071AE729271BE05D0715008E17004D8B0FD
:102F080005D0000E3F6E010E3E6E04D070C03EF03C
:102F180071C03FF06EC040F06FC041F042504310A6
:102F2800D8A402D072A403D04006D8A04106000E4F
:102F38004D6E4F0E4C6E000E01015E6F7CD04C063C
:102F4800D8A04D060F0E4C24D96E010E4D20DA6E16
:102F580044C00BF045C00CF046C00DF047C00EF061
:102F680048C00FF049C010F04AC011F04BC012F031
:102F78000A0E136E000E146E000E156E000E166EFD
:102F8800000E176E000E186E000E196E000E1A6EE7
:102F9800E4EC1DF00BC034F00CC035F00DC036F079
:102FA8000EC037F00FC038F010C039F011C03AF039
:102FB80012C03BF034C01DF036C01EF054EC24F0B3
:102FC8001D50300FDF6E3E06D8A03F064006D8A041
:102FD800410644C00BF045C00CF046C00DF047C098
:102FE8000EF048C00FF049C010F04AC011F04BC0B5
:102FF80012F00A0E136E000E146E000E156E000EFF
:10300800166E000E176E000E186E000E196E000E6A
:103018001A6E00EC1CF00BC044F00CC045F00DC05B
:1030280046F00EC047F00FC048F010C049F011C07C
:103038004AF012C04BF04DBE1FD04D5003E14C0476
:10304800D8A01AD0445045104610471048104910CF
:103058004A104B10D8A473D73FBE05D03F5002E1A9
:103068003E04D8B06CD741BE07D0415003E14004BC
:10307800D8A002D072B263D742504310D8A402D06D
:1030880072A417D04C06D8A04D0642504310D8A4BD
:1030980004D0000E3D6E2B0E03D0000E3D6E2D0E9B
:1030A8003C6E0F0E4C24D96E010E4D20DA6E3CC0DA
:1030B800DFFF2AC01FF02BC020F00F0E4C24216E1A
:1030C800010E4D20226E40C023F041C024F069EC6F
:1030D80020F01FC02AF020C02BF0120071AE7292AF
:1030E80071BE05D0715008E17004D8B005D0000E4B
:1030F800426E010E416E04D070C041F071C042F0C2
:103108006EC043F06FC044F072A804D0FE0E432690
:10311800FF0E44222CC045F02DC046F02EC047F0CB
:103128002FC048F030C049F031C04AF032C04BF0EF
:1031380033C04CF0000E4E6E4F0E4D6E000E010166
:103148005E6F93D04D06D8A04E060F0E45144F6EF5
:10315800506A50BE08D0505004E10A0E4F5CD8A007
:1031680002D0570E01D0300E4F244F6E000E502063
:10317800506EBF0E356EFF0E366E3450376E386A9D
:103188003550372636503822385006E11A0E375C4B
:10319800D8B002D0010E01D0000E3D6E3E6A3D50FF
:1031A8003E10D8B427D09F0E356EFF0E366E200E17
:1031B8004F10376E000E5010386E35503726365087
:1031C8003822385006E11A0E375CD8B002D0010E0A
:1031D80001D0000E3F6E406A3F504010D8B40AD06C
:1031E8004FC011F050C012F099EC23F011C04FF00D
:1031F80012C050F00F0E4D24D96E010E4E20DA6E1B
:103208004FC0DFFF4106D8A042064306D8A04406B7
:1032180045C035F046C036F047C037F048C038F0F2
:1032280049C039F04AC03AF04BC03BF04CC03CF0C2
:10323800050E09D0D8903C323B323A323932383216
:10324800373236323532E82EF5D735C045F036C03C
:1032580046F037C047F038C048F039C049F03AC0A6
:103268004AF03BC04BF03CC04CF04EBE20D04E5014
:1032780004E1020E4D5CD8A01AD045504610471004
:10328800481049104A104B104C10D8A45BD742BEC6
:1032980005D0425002E14104D8B054D744BE07D00B
:1032A800445003E14304D8A002D072B24BD772A8AD
:1032B80016D04D06D8A04E060F0E4D24D96E010E1D
:1032C8004E20DA6E34C0DFFF4D06D8A04E060F0E32
:1032D8004D24D96E010E4E20DA6E300EDF6E2AC0F4
:1032E8001FF02BC020F00F0E4D24216E010E4E2032
:1032F800226E43C023F044C024F069EC20F01FC0C4
:103308002AF020C02BF0120066C048F067C049F0D0
:1033180068C04AF069C04BF038C048F039C049F07D
:103328003AC04AF03BC04BF0810E3C6EFF0E3D6E3A
:1033380048C03EF049C03FF04AC040F04BC041F0A1
:10334800180E05D0D890413240323F323E32E82E36
:10335800F9D73E503C24466E000E3D20476E47BECE
:103368000FD0475004E1170E465CD8A009D038C0EA
:1033780038F039C039F03AC03AF03BC03BF012009F
:1033880047BE5ED046C03CF0FF0E3D6EFF0E3E6E5F
:103398007F0E3F6E000E406E3C6601D007D0403471
:1033A80040323F323E323D323C2EF6D73DC042F0ED
:1033B8003EC043F03FC044F040C045F0425048147E
:1033C8003C6E435049143D6E44504A143E6E45507D
:1033D8004B143F6E3C503D103E103F10D8B4C7D739
:1033E80048C03CF049C03DF04AC03EF04BC03FF0F9
:1033F800200E05D0D8903F323E323D323C32E82E86
:10340800F9D73C503D103E103F10D8B408D0425078
:1034180048264350492244504A2245504B22421CD8
:103428003C6E431C3D6E441C3E6E451C3F6E3C503A
:1034380048163D5049163E504A163F504B1636D056
:1034480048C03CF049C03DF04AC03EF04BC03FF098
:10345800200E05D0D8903F323E323D323C32E82E25
:10346800F9D73C503D103E103F10D8A408D0000EAC
:10347800486E000E496E000E4A6E000E16D0D890A7
:1034880048343C6E49343D6E4A343E6E4B343F6E90
:103498003C503D103E103F10D8B408D0000E486E86
:1034A800000E496E800E4A6EBF0E4B6E48C038F053
:1034B80049C039F04AC03AF04BC03BF01200000E48
:1034C800CBEC25F0136E200E13600BD0000ECBEC66
:1034D80025F0000ECBEC25F0136E13501D6E1E6AFE
:1034E80009D0000E0B6E000E6DEC24F0000E1E6E5F
:1034F800000E1D6E11501D5C1D6E12501E581E6E62
:103508001EAE06D01F0E1D241D6E000E1E201E6E40
:103518001DC00BF01EC00CF0000E0E6E210E0D6EBD
:1035280053EC25F00BC01FF00CC020F01F28CBEC8B
:1035380025F0136E13500101086F096B1F50020F1D
:10354800CBEC25F0136E13500101066F076B1F506B
:10355800030FCBEC25F0136E13500101046F056BBC
:10356800000E186E000E176E17501F24136E185099
:103578002020146E040E1324156E000E1420166EEF
:103588001550CBEC25F0136E146AD8901734D96E09
:103598001834DA6EC80ED926010EDA2213C0DEFFFF
:1035A80014C0DDFF174A182A18BEDED7185004E1E8
:1035B8000A0E175CD8A0D8D7000E1A6E000E196E26
:1035C80019501F24136E1A502020146E0E0E132447
:1035D800156E000E1420166E1550CBEC25F0136EE8
:1035E800146AD8901934D96E1A34DA6EB40ED92602
:1035F800010EDA2213C0DEFF14C0DDFF194A1A2AB1
:103608001ABEDED71A5004E10A0E195CD8A0D8D722
:10361800000E1C6E000E1B6E1B501F24136E1C50D8
:103628002020146E180E1324156E000E1420166E2A
:103638001550CBEC25F0136E146AD8901B34D96E54
:103648001C34DA6EA00ED926010EDA2213C0DEFF72
:1036580014C0DDFF1B4A1C2A1CBEDED71C5005E126
:103668000A0E1B5CD8B01200D7D71200000ECBECA4
:1036780025F0116E200E11600BD0000ECBEC25F05A
:10368800000ECBEC25F0116E1150136E146A09D0A0
:10369800000E0B6E000E6DEC24F0000E146E000E82
:1036A800136E1F0E13181410D8A409D0000E0B6E39
:1036B800000E6DEC24F0000E146E000E136E13C095
:1036C8000BF014C00CF0000E0E6E210E0D6E53ECB4
:1036D80025F00BC01DF00CC01EF008C10BF01D2812
:1036E8006DEC24F006C10BF01D50020F6DEC24F0B8
:1036F80004C10BF01D50030F6DEC24F0000E186E82
:10370800000E176E17501D24116E18501E20126ED1
:10371800040E1124156E000E1220166ED890173460
:10372800D96E1834DA6EC80ED926010EDA22DF50A7
:103738000B6E15506DEC24F0174A182A18BEE2D704
:10374800185004E10A0E175CD8A0DCD7000E1A6ED8
:10375800000E196E19501D24116E1A501E20126E7B
:103768000E0E1124156E000E1220166ED890193404
:10377800D96E1A34DA6EB40ED926010EDA22DF5069
:103788000B6E15506DEC24F0194A1A2A1ABEE2D7AE
:103798001A5004E10A0E195CD8A0DCD7000E1C6E82
:1037A800000E1B6E1B501D24116E1C501E20126E25
:1037B800180E1124156E000E1220166ED8901B34A8
:1037C800D96E1C34DA6EA00ED926010EDA22DF502B
:1037D8000B6E15506DEC24F01B4A1C2A1CBEE2D758
:1037E8001C5004E10A0E1B5CD8A0DCD713280B6E12
:1037F800000E6DEC24F01200000E1C6E1AAE12D0F2
:103808001A1E191E181E171E161E151E141E136CBE
:10381800000E1422152216221722182219221A2203
:10382800010E1C6E12AE12D0121E111E101E0F1E9B
:103838000E1E0D1E0C1E0B6C000E0C220D220E22ED
:103848000F22102211221222010E1C1A20EE1DF046
:10385800070EDE6AE806FDE2135014101510161064
:103868001710181019101A10D8B446D0010E1B6E74
:103878000AD0D89013361436153616361736183639
:1038880019361A361B2A1AAEF4D7D8901D361E36AA
:103898001F362036213622362336243613500B5C49
:1038A80014500C5815500D5816500E5817500F58E4
:1038B80018501058195011581A501258D8A011D031
:1038C80013500B5E14500C5A15500D5A16500E5AC0
:1038D80017500F5A1850105A1950115A1A50125A94
:1038E8001D80D8901A321932183217321632153212
:1038F800143213321B2EC9D71C50D8B410D0241E32
:10390800231E221E211E201E1F1E1E1E1D6C000EA1
:103918001E221F22202221222222232224221DC0ED
:103928000BF01EC00CF01FC00DF020C00EF021C01F
:103938000FF022C010F023C011F024C012F01200C2
:10394800196E1950D8A414AE1AD011C015F012C0AF
:1039580016F013C017F014C018F0151E161E171E07
:10396800181E152A000E16221722182215C01BF041
:1039780016C01CF017C01DF018C01EF008D011C0EA
:103988001BF012C01CF013C01DF014C01EF0115023
:10399800121013101410D8A409D0000E116E000EC6
:1039A800126E000E136E000E146E1200960E1A6E32
:1039B80006D01A2AD8901E321D321C321B32000E35
:1039C8001B14156E000E1C14166E000E1D14176EB7
:1039D800FE0E1E14186E1550161017101810D8B4B5
:1039E8000DD0E7D71A2A010E1B26000E1C221D2215
:1039F8001E22D8901E321D321C321B32000E1B14A0
:103A0800156E000E1C14166E000E1D14176EFF0E98
:103A18001E14186E1550161017101810D8B407D0A9
:103A2800E1D71A06D8901B361C361D361E361DBE29
:103A380003D0020E1A60F5D71AA01D9ED8901A322C
:103A48001AC015F0166A176A186A15C018F0176AAE
:103A5800166A156A15501B1216501C1217501D12A3
:103A680018501E121950D8A414AE01D01E8E1BC0B7
:103A780011F01CC012F01DC013F01EC014F012008B
:103A8800000E206E000E1F6E000E196E000E186ECE
:103A980002D0124A132A010E1E6E12C0F6FF13C07E
:103AA800F7FF0800F550200AD8B418D0F70E146EA6
:103AB800FF0E156E12C0F6FF13C0F7FF0800F55091
:103AC800166E176A1450162615501722175004E15F
:103AD800050E165CD8A002D0000E1E6E1EC01AF08D
:103AE8001B6A1A501B10D8B408D0D3D7000E196E11
:103AF800010E186E124A132A2ED012C0F6FF13C0F8
:103B0800F7FF0800F550146E156A1550000AD8A47E
:103B180022D014502B0AD8B4EDD7060AD8B4E6D769
:103B28001AD01FC00BF020C00CF0000E0E6E0A0E4B
:103B38000D6E53EC25F012C0F6FF13C0F7FF080016
:103B4800F5500B5E000E0C5A300E0B241F6E000E43
:103B58000C20206ECFD7D00E146EFF0E156E12C03B
:103B6800F6FF13C0F7FF0800F550166E176A1450D9
:103B7800162615501722175006E10A0E165CD8B003
:103B880002D0010E01D0000E1C6E1D6A1C501D10C3
:103B9800D8A4C7D718501910D8A40DD01FC014F036
:103BA80020C015F0141E151E144A152A14C012F050
:103BB80015C013F012001FC012F020C013F012003D
:103BC800000E1C6E12AE12D0121E111E101E0F1EF9
:103BD8000E1E0D1E0C1E0B6C000E0C220D220E224A
:103BE8000F22102211221222010E1C6E1AAE10D0C2
:103BF8001A1E191E181E171E161E151E141E136CCB
:103C0800000E1422152216221722182219221A220F
:103C180013501410151016101710181019101A1028
:103C2800D8B43CD0010E1B6E0AD0D8901336143687
:103C3800153616361736183619361A361B2A1AAE9E
:103C4800F4D713500B5C14500C5815500D581650DF
:103C58000E5817500F5818501058195011581A501C
:103C68001258D8A010D013500B5E14500C5A15508F
:103C78000D5A16500E5A17500F5A1850105A1950FC
:103C8800115A1A50125AD8901A3219321832173259
:103C980016321532143213321B2ED3D71C50D8B417
:103CA80010D0121E111E101E0F1E0E1E0D1E0C1EF1
:103CB8000B6C000E0C220D220E220F221022112254
:103CC80012220BC00BF00CC00CF00DC00DF00EC092
:103CD8000EF00FC00FF010C010F011C011F012C09C
:103CE80012F012000600F6CF05F0F7CF06F0F8CF75
:103CF80007F0F5CF08F081380F0B0F0B01010A6FA1
:103D0800F2A407D0010E0027000E0123022303238B
:103D1800F294F0A054D0F090130E0A25F66EF76ACC
:103D2800FE0EF7220800F550410AD8A403D0010E70
:103D38000B6F45D0130E0A25F66EF76AFE0EF722B2
:103D48000800F550230AD8A403D0010E0C6F37D011
:103D5800130E0A25F66EF76AFE0EF7220800F550D4
:103D6800420AD8A403D0010E0D6F29D0000E0A6EA6
:103D7800000E096E130E0A25F66EF76AFE0EF7227C
:103D88000800F550016E026A0950036E046A300E8D
:103D98000326000E04220150031807E102500418FC
:103DA800D8A403D0010E0E6F0AD0094A0A2A0ABE07
:103DB800E1D70A5004E10A0E095CD8A0DBD708C095
:103DC800F5FF07C0F8FF06C0F7FF05C0F6FF7492BD
:103DD8001100000E3F14476E000E4014486E800E0E
:103DE8004114496E7F0E42144A6E475048104910DC
:103DF8004A10D8A408D0000E3F6E000E406E000E88
:103E0800416E000E426E000E4314476E000E4414BD
:103E1800486E800E4514496E7F0E46144A6E475010
:103E2800481049104A10D8A408D0000E436E000E5E
:103E3800446E000E456E000E466E42AE09D03F6CD1
:103E4800401ED8B0402A411ED8B0412A800E4256A2
:103E580046AE09D0436C441ED8B0442A451ED8B09B
:103E6800452A800E4656000E3F1A000E401A000ED4
:103E7800411A800E421A000E431A000E441A000E10
:103E8800451A800E461A43503F5C445040584550EE
:103E9800415846504258D8B002D0D8901200D88025
:103EA80012006AC015F06BC016F06CC017F06DC038
:103EB80018F00BC015F00CC016F00DC017F00EC0AE
:103EC80018F015C00FF016C010F017C011F018C088
:103ED80012F0180E05D0D8901232113210320F326B
:103EE800E82EF9D70F50136E146A13501410D8A483
:103EF80019D0D89015340F6E1634106E1734116E11
:103F08001834126E0F50101011101210D8A405D0CA
:103F1800000E0C6E020E0B6E1200000E0C6E030EDD
:103F28000B6E120013281410D8A41CD015C00FF063
:103F380016C010F017C011F018C012F0090ED89072
:103F48000F36103611361236E82EF9D70F501010EA
:103F580011101210D8A402D0010E01D0000E0B6E61
:103F68000C6A1200000E0C6E040E0B6E12004A341E
:103F78004B34516E5150D8A409D0000E486E000E33
:103F8800496E000E4A6E000E4B6E120048C04CF08F
:103F980049C04DF04AC04EF04BC04FF0200E05D03E
:103FA800D8904F324E324D324C32E82EF9D74C5021
:103FB800506E4A8EFF0E4816FF0E4916FF0E4A161F
:103FC800000E4B16960E515E51AE0DD05150800A20
:103FD800970FD8A0D2D7D8904B324A3249324832BC
:103FE800513EF9D70DD01F0E516407D0C6D7D890CF
:103FF800483649364A364B3651065150D8A4F7D779
:104008005050D8B408D04B1E4A1E491E486C000EAA
:1040180049224A224B2248C048F049C049F04AC0C8
:104028004AF04BC04BF012000BC012F00CC013F05A
:104038000DC014F00EC015F00F06D8A010060F28FA
:104048000FE11028D8A40CD0000E0C6E000E0B6ED9
:104058001200124A132A144A152A0F06D8A010066D
:1040680012C0D9FF13C0DAFFDF50D8B41CD014C077
:10407800F6FF15C0F7FF0800F5500009D8B413D0B3
:104088000F501010D8B40FD012C0D9FF13C0DAFFE8
:10409800DF50116E14C0F6FF15C0F7FF0800F55089
:1040A8001118D8B4D6D712C0D9FF13C0DAFFDF5021
:1040B800116E14C0F6FF15C0F7FF0800F550115C2B
:1040C8000B6E0C6AD8A00C06120072A00AD021C090
:1040D80018F022C019F01FC01AF020C01BF01EEC07
:1040E80024F024BE05D023C028F024C029F004D031
:1040F800000E296E000E286E000E276E000E266E2A
:104108000CD0000E106E200E0F6E1FC011F020C0D4
:1041180012F038EC22F0264A272A2850265C27502D
:10412800800A256E2950800A2558D8A0EAD772B08F
:104138000AD021C018F022C019F01FC01AF020C000
:104148001BF01EEC24F021C00BF022C00CF015EC83
:1041580025F028500B241F6E29500C20206E1200C9
:104168003E6E3EC03CF00F0E3C16D8903C36D890C0
:104178003C34C26EC280C282C2B2FED7C350C4CF22
:104188003CF03D6A3CC03DF03C6A3C100B6E3D5033
:104198000C6E000E0E6E050E0D6E53EC25F00BC066
:1041A80011F00CC012F0000E12BEFF0E136E146E4A
:1041B800010EA4EC1CF011C01FF012C020F013C0B7
:1041C80021F014C022F0000E236EC00E246E7F0E64
:1041D800256E440E266E0DEC16F01FC038F020C078
:1041E80039F021C03AF022C03BF01200000E0B1447
:1041F800136E000E0C14146E800E0D14156E7F0EC7
:104208000E14166E1350141015101610D8A408D0DA
:10421800000E0B6E000E0C6E000E0D6E000E0E6E74
:10422800000E0F14136E000E1014146E800E11146D
:10423800156E7F0E1214166E1350141015101610EA
:10424800D8A408D0000E0F6E000E106E000E116E6E
:10425800000E126E0F500B180AE110500C1807E1EF
:1042680011500D1804E112500E18D8B402D0D8908D
:104278001200D8801200000E106E0EAE06D00D6C23
:104288000E1ED8B00E2A010E106E0CAE06D00B6CA6
:104298000C1ED8B00C2A010E101A000E126E000E59
:1042A800116E0D500E10D8B41CD0010E0F6E04D034
:1042B800D8900D360E360F2A0EAEFAD7D890113692
:1042C80012360D500B5C0E500C58D8A005D00D506E
:1042D8000B5E0E500C5A1180D8900E320D320F2EF4
:1042E800EDD71050D8B404D0116C121ED8B0122AD1
:1042F80011C00BF012C00CF01200000E136E000E6D
:10430800146E000E156E000E166E0F501010111060
:104318001210D8B42AD0010E176E06D0D8900F36D6
:10432800103611361236172A12AEF8D7D89013362F
:104338001436153616360F500B5C10500C581150A9
:104348000D5812500E58D8A009D00F500B5E1050BF
:104358000C5A11500D5A12500E5A1380D89012321E
:10436800113210320F32172EE1D713C00BF014C0E0
:104378000CF015C00DF016C00EF01200000ECF6E36
:10438800000ECE6E8B82080EE82EFED700F08B92C0
:1043980082A4FED7CD80000E1A6E000E196E02D0D0
:1043A800194A1A2A82A408D01ABEFAD7E80E195C4C
:1043B800030E1A58D8A0F4D7CD90CF50166E156AB0
:1043C800CE50176E186A155017101B6E165018101D
:1043D8001C6E1BC00BF01CC00CF0000E0E6E9B0E6A
:1043E8000D6E3FEC21F00BC01BF00CC01CF01BC085
:1043F80013F01CC014F01200000E106E0CAE06D0A4
:104408000B6C0C1ED8B00C2A010E106E0EAE04D028
:104418000D6C0E1ED8B00E2A0D500E10D8B418D040
:10442800010E0F6E04D0D8900D360E360F2A0EAE40
:10443800FAD70D500B5C0E500C58D8A004D00D5074
:104448000B5E0E500C5AD8900E320D320F2EF1D74B
:104458001050D8B404D00B6C0C1ED8B00C2A0BC06A
:104468000BF00CC00CF0120011501210D8B404D08C
:1044780011501210D8A404D00F50E7EC25F0120008
:1044880020EE04F01150D9261250DA22DE50DE1048
:10449800D8B416D020EE04F01150D9261250DA22E2
:1044A80010EE02F01150E1261250E222DE50E65CD6
:1044B800E650800A176EDE50800A1758D8B01200EE
:1044C80020EE02F01150D9261250DA22DE2A000E10
:1044D800DD221200310E0F6EB20EE82EFED70F2E1F
:1044E800FCD700D08C94030EC0EC25F0110E0F6E93
:1044F8003A0EE82EFED70F2EFCD700D0030EC0ECE4
:1045080025F07D0EE82EFED7320ED5EC25F0280ECC
:10451800D5EC25F0080ED5EC25F0010ED5EC25F0EC
:10452800110E0F6E3A0EE82EFED70F2EFCD700D0D4
:10453800060ED5EC25F00F0EEDEC25F01200C69A0C
:1045480094869488800E0B6E960E0C6E980E0D6EE7
:10455800000E0E6E18C01CF019C01DF01AC01EF017
:104568001BC01FF0020ED8901C361D361E361F3693
:10457800E82EF9D71CC00FF01DC010F01EC011F0B6
:104588001FC012F081EC21F00B04C86E800EC76EBC
:10459800280EC66E000EC56E1200E0C062F0E1C0C3
:1045A80063F0000E0001F16F000EF06F13D0DEC053
:1045B800B8F0DFC0B9F0620EBA6F000EBB6FE2C090
:1045C800BCF0E3C0BDF052EC0FF00001B851F02789
:1045D800B951F12362C0F6FF63C0F7FF0800F55038
:1045E8000009D8A4E4D7F0C0DEF0F1C0DFF0120073
:1045F8000DC011F00EC012F00BC013F00CC014F077
:1046080011500F6E1250106E114A122A0FC0F6FF89
:1046180010C0F7FF000EF86E13C0D9FF14C0DAFF00
:10462800134A142A0F0EF76403D00800F55005D07A
:10463800F6CFE1FFF7CFE2FFE750DF6EDF50D8B4E7
:104648001200DED76E506F10D8A405D06EC02DF0C2
:104658006FC02EF006D0FF0E6E242D6EFF0E6F2059
:104668002E6E2CC00FF1000E0101106F2AC01FF032
:104678002BC020F00F0E216E010E226E2DC023F0EC
:104688002EC024F069EC20F01FC02AF020C02BF0C7
:104698001200000EF66E480EF76E000EF86E01EE70
:1046A800A0F010EE3CF00900F5CFEEFFE550E15028
:1046B800FAE101EE00F05F0EEE6AE806FDE10001A6
:1046C800F16BF06B00EE66F00E0EEE6AE806FDE1A7
:1046D80074907492000EF86E000109EF00F0BF0E9E
:1046E800136EFF0E146E11C015F012C016F01350A1
:1046F800152614501622165006E11A0E155CD8B06D
:1047080002D0010E01D0000E176E186A175018104B
:10471800D8B406D0200E1110116E1250126E12006D
:1047280011C011F012C012F012009F0E136EFF0E8E
:10473800146E11C015F012C016F01350152614503F
:104748001622165006E11A0E155CD8B002D0010EDA
:1047580001D0000E176E186A17501810D8B405D07B
:104768005F0E1114116E126A120011C011F012C0FE
:1047780012F01200000E4C1A000E4D1A000E4E1ABE
:10478800800E4F1A48C038F049C039F04AC03AF094
:104798004BC03BF04CC03CF04DC03DF04EC03EF02D
:1047A8004FC03FF087EC14F038C048F039C049F0EA
:1047B8003AC04AF03BC04BF01200010E116E200EB9
:1047C8000B180C10D8B414D0F70E0D6EFF0E0E6E29
:1047D8000BC00FF00CC010F00D500F260E50102219
:1047E800105004E1050E0F5CD8A002D0000E116E27
:1047F80011C00BF00C6A1200FFFFFFFFFFFFFFFF65
:10480800FFFFFFFFFFFFFFFFFFFFFFFFFFFFFFFFB0
:10481800FFFFFFFFFFFFFFFFFFFFFFFFFFFFFFFFA0
:10482800FFFFFFFFFFFFFFFFFFFFFFFFFFFFFFFF90
:10483800FFFFFFFF000E1E6E000E1D6E0BD01CC08A
:104848000FF0106A1AC011F01BC012F038EC22F0F9
:104858001D4A1E2A1D501824D96E1E501920DA6EC2
:10486800DF501C6E1C50D8B41200E9D79F0E0D6E95
:10487800FF0E0E6E200E0B100F6E000E0C10106E39
:104888000D500F260E501022105006E11A0E0F5C24
:10489800D8B002D0010E01D0000E0B6E0C6A1200C7
:1048A8001EBE05D01E5010E11D04D8B00DD01DC08D
:1048B8001FF01EC020F01F1E201E1F4A202A1FC0E6
:1048C8001DF020C01EF012001DC01DF01EC01EF0FD
:1048D80012000C6EA6B2FED70CC0A9FF0BC0A8FF31
:1048E800A684000EF2BE010E0D6EF29E550EA76E46
:1048F800AA0EA76EA6820DA002D0F28E01D0F29E5B
:10490800A69412009F0E0D6EFF0E0E6E0BC00FF0D8
:104918000CC010F00D500F260E501022105006E15A
:104928001A0E0F5CD8B002D0010E01D0000E0B6E2B
:104938000C6A1200BF0E0D6EFF0E0E6E0BC00FF04C
:104948000CC010F00D500F260E501022105006E12A
:104958001A0E0F5CD8B002D0010E01D0000E0B6EFB
:104968000C6A1200D00E0D6EFF0E0E6E0BC00FF00B
:104978000CC010F00D500F260E501022105006E1FA
:104988000A0E0F5CD8B002D0010E01D0000E0B6EDB
:104998000C6A12008A848A86050E0B6E370EE82E82
:1049A800FED70B2EFCD700F08A94C80E00D0E82E54
:1049B800FDD78A96040E0B6E3E0EE82EFED70B2E00
:1049C800FCD712008A848A86040E0B6EE40EE82E49
:1049D800FED70B2EFCD700D08A96C80E00D0E82E42
:1049E800FDD78A94040E0B6E3E0EE82EFED70B2ED2
:1049F800FCD712000B500C100D100E10D8B408D0B4
:104A0800000E0B1A000E0C1A000E0D1A800E0E1A4C
:104A18000BC00BF00CC00CF00DC00DF00EC00EF06A
:104A280012000BC00DF00CC00EF002D00B4A0C2A7D
:104A38000BC0D9FF0CC0DAFFDF50D8A4F7D70D5050
:104A48000B5C0B6E0E500C580C6E1200000EF2BE72
:104A5800010E0B6EF29E8C86140EE82EFED700D047
:104A68008C96530EE82EFED700F00BB002D0F29EC3
:104A780001D0F28E1200E60E0001EE6F000EEF6F0D
:104A8800000EDE6F000EDF6FE4C0E0F0E5C0E1F07D
:104A9800EE0EE26F000EE36FD1EC22F012000B5025
:104AA8000D02F3CF0FF0F4CF10F00B500E02F350BD
:104AB80010260C500D02F35010260FC00BF010C03A
:104AC8000CF012008A86060E0B6EAD0EE82EFED78D
:104AD8000B2EFCD700D08A96040E0B6E3E0EE82EE5
:104AE800FED70B2EFCD712008A84040E0B6E910E93
:104AF800E82EFED70B2EFCD700F08A94040E0B6E1E
:104B08003E0EE82EFED70B2EFCD712008A84060E26
:104B18000B6EAD0EE82EFED70B2EFCD700D08A9474
:104B2800040E0B6E3E0EE82EFED70B2EFCD712009D
:104B38008A86040E0B6E910EE82EFED70B2EFCD73C
:104B480000F08A96040E0B6E3E0EE82EFED70B2E52
:104B5800FCD712000C6EDEEC25F0C586DEEC25F0E5
:104B6800C9CF0DF0DEEC25F00CB002D0C59A01D00B
:104B7800C58AC5880D5012000C6E8C500F0B8C6EB8
:104B88000C38F00B8C108C6E2AEC25F012000B6E92
:104B9800A6B0FED7A6B2FCD70BC0A9FFA680A85026
:104BA80012000D6E0D380F0BC0EC25F00D50C0EC47
:104BB80025F01200C7B4FED7C5CF0BF01F0E0B1699
:104BC800D8B41200F7D70E6E8C840E50D5EC25F0B1
:104BD80012000E6E8C940E50D5EC25F01200DEEC0F
:104BE80025F00CC0C9FF1200DEEC25F0C5841200C8
:084BF800DEEC25F0C58012007F
:10FE1200003132334134353642373839432A3023C0
:10FE22004400501040000410663A25642C703A25B4
:10FE3200642C70323A256400496E6469766964758F
:10FE4200616C20496E666F005072657373203020BA
:10FE5200746F20256420004F7065726174696F6E43
:10FE62002054696D650044697374616E6365202571
:10FE72006420636D0023206F662043616E69737492
:10FE820065727300253032782F253032782F253075
:10FE9200327800253032783A253032783A253032BD
:10FEA200780043616E697374657220496E64657887
:10FEB2000043616E697374657220456D70747900D8
:10FEC2004E6F2042616C6C20416464656400436142
:10FED2006E69737465722046756C6C005069636B51
:10FEE2002070726576696F75730056696577207048
:10FEF200726576696F75730025642043616E69735C
:10FF020074657273007669657720726573756C74B7
:10FF12007300302069732043757272656E740073CA
:10FF2200746172747320617420300043616E73696E
:10FF3200746572202563006F662043616E69737475
:10FF4200657200446973743A20252E33660050723C
:10FF5200657373204120746F002564207365636F9D
:10FF62006E64730023206F662042616C6C730041E3
:10FF720020746F20737461727400556C7472613AEC
:10FF82002025640072696768743A202564006C65F4
:10FF92006674793A202564002320746F206578699D
:10FFA2007400507265737320422000636F6D703A63
:10FFB20020256400737570706C6965640025642087
:10FFC20062616C6C73003020746F20342000636EA9
:10FFD200743A20256400636C6F73656400747269FF
:10FFE200616C73006F70656E00494E46004E414E63
:0DFFF20000696E66006E616E006C660000B6
:020000040020DA
:08000000FFFFFFFFFFFFFFFF00
:020000040030CA
:0E000000FF021F1EFF8381FF0F400FE00F4025
:00000001FF
