:020000040000FA
:0400000007EF00F016
:0A00080074823FED0EF0D3EF0FF00D
:10100000003132334134353642373839432A3023C0
:101010004400501040000410497427732079612067
:10102000626F7920416C692100496E646976696458
:1010300075616C20496E666F005072657373203065
:1010400020746F20256420004F7065726174696F91
:101050006E2054696D650044697374616E63652028
:10106000256420636D0023206F662043616E6973E1
:10107000746572730043616E697374657220456DA7
:10108000707479004E6F2042616C6C20416464651D
:10109000640043616E69737465722046756C6C0000
:1010A00025642043616E6973746572730043616ED9
:1010B0007369746572202563006F662043616E69F1
:1010C00073746572002564207365636F6E647300CA
:1010D00023206F662042616C6C7300737570706CB6
:1010E0006965640025642062616C6C730000000E09
:1010F0008C6E000E956E0F0EC16EF0864EEC0FF0EA
:10110000F28E000E0001FB6F000EFA6F000EF16F01
:10111000000EF06F000EF96F010EF86F180E686E7A
:10112000100E696E78EC10F01A0E0001E96F5E0E79
:10113000E86F6E0EE82EFED7E82FFCD7E92FFAD71E
:1011400000F0010EA6EC10F0110E0001E86F3A0E4F
:10115000E82EFED7E82FFCD700F00001FA51FB1172
:10116000D8A42BD0F805F911D8A427D0010EA6ECED
:1011700010F0110E0001E86F3A0EE82EFED7E82FAE
:10118000FCD700F00C0EA6EC10F0480E686E100EA6
:10119000696E78EC10F0900EA6EC10F0C50E686E3B
:1011A000100E696E000E6B6E1E0E6A6E78EC10F0FB
:1011B000000E0001F96F000EF86FFA05FB11D8A4BC
:1011C0002BD0F805F911D8A427D0010EA6EC10F009
:1011D000110E0001E86F3A0EE82EFED7E82FFCD77B
:1011E00000F0800EA6EC10F0660E686E100E696EB0
:1011F00078EC10F0900EA6EC10F0A00E686E100EB9
:10120000696EBEC06AF0BFC06BF078EC10F0000EE3
:101210000001F96F000EF86F020EFA19FB11D8A445
:1012200031D0F805F911D8A42DD0010EA6EC10F09C
:10123000110E0001E86F3A0EE82EFED7E82FFCD71A
:1012400000F0D00E686E100E696E78EC10F0C00ED3
:10125000A6EC10F0DB0E686E100E696E78EC10F0E4
:10126000D00EA6EC10F0E40E686E100E696E000E43
:101270006B6E050E6A6E78EC10F0000E0001F96FCF
:10128000000EF86F030EFA19FB11D8A434D0F8053C
:10129000F911D8A430D0010EA6EC10F0110E000107
:1012A000E86F3A0EE82EFED7E82FFCD700F0290EA3
:1012B000686E100E696E78EC10F0C00EA6EC10F09F
:1012C000B90E686E100E696E78EC10F0D00EA6ECB8
:1012D00010F0390E686E100E696EFF0E0001BE250B
:1012E0006A6EFF0EBF216B6E78EC10F0000E0001ED
:1012F000F96F000EF86FC351D8B456D181380F0B77
:101300000F0BFC6F000EF36F000EF26F000EF76F05
:10131000000EF66F000EF56F010EF46F3DD1F65121
:10132000F711D8A447D0F405F511D8A443D0010E85
:10133000A6EC10F0110E0001E86F3A0EE82EFED771
:10134000E82FFCD700F0AD0E686E100E696E010E2E
:101350000001FC25F66EF76A100EF7220800F55022
:101360006A6E6B6A78EC10F0900EA6EC10F0570ED7
:10137000686E100E696E010E0001FC25F66EF76AAC
:10138000100EF7220800F550E86FE96BD890E837A7
:10139000E937340EE825D96E000EE921DA6EDECF8A
:1013A0006AF0DDCF6BF078EC10F0000E0001F56F05
:1013B000000EF46FF605F711D8A45FD0F405F5110F
:1013C000D8A45BD0010EA6EC10F0110E0001E86F5E
:1013D0003A0EE82EFED7E82FFCD700F0AD0E686E6F
:1013E000100E696E010E0001FC25F66EF76A100EF4
:1013F000F7220800F5506A6E6B6A78EC10F0900ED8
:10140000A6EC10F0D00E0001E86FFF0EE96F010EA0
:10141000FC25F66EF76A100EF7220800F550EA6F09
:10142000EB6BE851EA27E951EB23EA05EB11D8A46D
:1014300002D0010E01D0000EEC6FED6BD890EC37AE
:10144000ED37A80EEC25D96E000EED21DA6EDE50D8
:10145000DE10D8B407D0920E686E100E696E78EC6C
:1014600010F006D0750E686E100E696E78EC10F0F4
:10147000000E0001F56F000EF46F020EF619F71161
:10148000D8A45FD0F405F511D8A45BD0010EA6EC6A
:1014900010F0110E0001E86F3A0EE82EFED7E82F8B
:1014A000FCD700F0AD0E686E100E696E010E0001E3
:1014B000FC25F66EF76A100EF7220800F5506A6EEA
:1014C0006B6A78EC10F0900EA6EC10F0D00E0001D4
:1014D000E86FFF0EE96F010EFC25F66EF76A100E3D
:1014E000F7220800F550EA6FEB6BE851EA27E95163
:1014F000EB23EA05EB11D8A402D0010E01D0000EB7
:10150000EC6FED6BD890EC37ED37800EEC25D96E93
:10151000000EED21DA6EDE50DE10D8B407D0870E53
:10152000686E100E696E78EC10F006D0840E686E4E
:10153000100E696E78EC10F0000E0001F56F000ED1
:10154000F46FD00EF2191DE1070EF319D8A419D0CB
:10155000000EF56F010EF46FF64BF72BF6C00CF092
:10156000F7C00DF0000E0F6E030E0E6EE0EC0EF0E5
:101570000CC0F6F00DC0F7F0000E0001F36F000E86
:10158000F26FF24BF32B040E0001E86F3D0EE82ED4
:10159000FED7E82FFCD700D00001C251D8B4BFD687
:1015A000000EC36F000EC26FD00EF01912E1070ECD
:1015B000F119D8A40ED0000EF96F010EF86FFA4B96
:1015C000FB2B030EFA15FA6FFB6B000EF16F000E8A
:1015D000F06FF04BF12B040E0001E86F3D0EE82E8A
:1015E000FED7E82FFCD700D0B8D52DC045F02EC0CF
:1015F00046F02FC047F030C048F031C049F032C04B
:101600004AF033C04BF034C04CF04CAE02D0010E67
:1016100001D0000E436E446A43504410D8B410D039
:101620004C1E4B1E4A1E491E481E471E461E456C38
:10163000000E46224722482249224A224B224C22AF
:1016400071AE729271BE05D0715008E17004D8B0CD
:1016500005D0000E406E010E3F6E04D070C03FF00A
:1016600071C040F06EC041F06FC042F04350441072
:10167000D8A402D072A403D04106D8A04206000E1E
:101680004E6E1F0E4D6E000E0001E36F7CD04D06B6
:10169000D8A04E06C40E4D24D96E000E4E20DA6E30
:1016A00045C00CF046C00DF047C00EF048C00FF02A
:1016B00049C010F04AC011F04BC012F04CC013F0FA
:1016C0000A0E146E000E156E000E166E000E176ECA
:1016D000000E186E000E196E000E1A6E000E1B6EB4
:1016E000ADEC0DF00CC035F00DC036F00EC037F08B
:1016F0000FC038F010C039F011C03AF012C03BF002
:1017000013C03CF035C01EF037C01FF035EC10F0B0
:101710001E50300FDF6E3F06D8A040064106D8A00D
:10172000420645C00CF046C00DF047C00EF048C060
:101730000FF049C010F04AC011F04BC012F04CC07D
:1017400013F00A0E146E000E156E000E166E000ECB
:10175000176E000E186E000E196E000E1A6E000E37
:101760001B6E09EC0DF00CC045F00DC046F00EC02C
:1017700047F00FC048F010C049F011C04AF012C045
:101780004BF013C04CF04EBE1FD04E5003E14D0441
:10179000D8A01AD0455046104710481049104A109A
:1017A0004B104C10D8A473D740BE05D0405002E176
:1017B0003F04D8B06CD742BE07D0425003E1410489
:1017C000D8A002D072B263D743504410D8A402D03C
:1017D00072A417D04D06D8A04E0643504410D8A48A
:1017E00004D0000E3E6E2B0E03D0000E3E6E2D0E6A
:1017F0003D6EC40E4D24D96E000E4E20DA6E3DC0F3
:10180000DFFF2BC020F02CC021F0C40E4D24226E2F
:10181000000E4E20236E41C024F042C025F095EC0E
:101820000EF020C02BF021C02CF0120051C0D9FFC7
:1018300052C0DAFFDECFF6FFDDCFF7FF0800F5502C
:10184000250AD8A4CCD051C0D9FF52C0DAFFDE2A75
:10185000000EDD22000E6F6E000E6E6E6EC072F016
:101860006FC073F07068716851C0D9FF52C0DAFF61
:10187000DECFF6FFDDCFF7FF0800F550630AD8A4EE
:1018800026D051C0D9FF52C0DAFFDE2A000EDD2279
:1018900053C0D9FF54C0DAFFDFCF55F0020EDE2669
:1018A000DFCF56F0000EDD2255C0D9FF56C0DAFF5B
:1018B000DF505F6E4FC02BF050C02CF05FC02DF09A
:1018C000ACEC0FF02BC04FF02CC050F0120051C008
:1018D000D9FF52C0DAFFDECFF6FFDDCFF7FF0800F9
:1018E000F550640AD8B40DD051C0D9FF52C0DAFF08
:1018F000DECFF6FFDDCFF7FF0800F550690AD8A468
:101900003FD051C0D9FF52C0DAFFDE2A000EDD22DF
:1019100053C0D9FF54C0DAFFDFCF55F0020EDE26E8
:10192000DFCF56F0000EDD2255C0D9FF56C0DAFFDA
:10193000DECF57F0DDCF58F0000E58BEFF0E596EC7
:101940005A6E5B6E5C6E5D6E5E6E4FC02BF050C06B
:101950002CF057C02DF058C02EF059C02FF05AC0AF
:1019600030F05BC031F05CC032F05DC033F05EC07F
:1019700034F0F5EC0AF02BC04FF02CC050F0120000
:1019800051C0D9FF52C0DAFFDECFF6FFDDCFF7FF3F
:101990000800F550250AD8A416D051C0D9FF52C06E
:1019A000DAFFDE2A000EDD22000E116E250E106E0B
:1019B0004FC012F050C013F018EC0FF0000E506E34
:1019C000010E4F6E120051C0D9FF52C0DAFFDE2A5D
:1019D000000EDD22000E506E000E4F6E120051C040
:1019E000D9FF52C0DAFFDECFF6FFDDCFF7FF0800E8
:1019F000F550106E116A4FC012F050C013F018EC81
:101A00000FF051C0D9FF52C0DAFFDE2A000EDD22EE
:101A1000D5D7000E1D6E1BAE12D01B1E1A1E191E2E
:101A2000181E171E161E151E146C000E15221622E7
:101A30001722182219221A221B22010E1D6E13AE24
:101A400012D0131E121E111E101E0F1E0E1E0D1E72
:101A50000C6C000E0D220E220F22102211221222D7
:101A60001322010E1D1A20EE1EF0070EDE6AE80694
:101A7000FDE21450151016101710181019101A1036
:101A80001B10D8B446D0010E1C6E0AD0D890143664
:101A9000153616361736183619361A361B361C2ADE
:101AA0001BAEF4D7D8901E361F362036213622368C
:101AB00023362436253614500C5C15500D5816501C
:101AC0000E5817500F5818501058195011581A50D6
:101AD00012581B501358D8A011D014500C5E15503A
:101AE0000D5A16500E5A17500F5A1850105A1950B6
:101AF000115A1A50125A1B50135A1E80D8901B327A
:101B00001A321932183217321632153214321C2E8C
:101B1000C9D71D50D8B410D0251E241E231E221E46
:101B2000211E201E1F1E1E6C000E1F22202221229D
:101B300022222322242225221EC00CF01FC00DF0D9
:101B400020C00EF021C00FF022C010F023C011F011
:101B500024C012F025C013F01200000E1D6E13AE4B
:101B600012D0131E121E111E101E0F1E0E1E0D1E51
:101B70000C6C000E0D220E220F22102211221222B6
:101B80001322010E1D6E1BAE10D01B1E1A1E191E35
:101B9000181E171E161E151E146C000E1522162276
:101BA0001722182219221A221B221450151016105F
:101BB0001710181019101A101B10D8B43CD0010EB1
:101BC0001C6E0AD0D89014361536163617361836CD
:101BD00019361A361B361C2A1BAEF4D714500C5C6F
:101BE00015500D5816500E5817500F5818501058C1
:101BF000195011581A5012581B501358D8A010D011
:101C000014500C5E15500D5A16500E5A17500F5A9C
:101C10001850105A1950115A1A50125A1B50135A70
:101C2000D8901B321A321932183217321632153246
:101C300014321C2ED3D71D50D8B410D0131E121E30
:101C4000111E101E0F1E0E1E0D1E0C6C000E0D22FE
:101C50000E220F2210221122122213220CC00CF08D
:101C60000DC00DF00EC00EF00FC00FF010C010F040
:101C700011C011F012C012F013C013F012000600D0
:101C8000F6CF05F0F7CF06F0F8CF07F0F5CF08F064
:101C9000F0A041D0F09081380F0B0F0B0B6E010EAE
:101CA0000B24F66EF76A100EF7220800F5502A0A88
:101CB000D8A404D0010E0001C26F2DD0000E0A6E10
:101CC000000E096E1DD0010E0B24F66EF76A100E81
:101CD000F7220800F550016E026A0950036E046A8B
:101CE000300E0326000E04220150031807E10250B3
:101CF0000418D8A403D0010EC36F0DD0094A0A2AD4
:101D00000001BE51095C0A50800A016EBF51800A71
:101D10000158D8A0D8D708C0F5FF07C0F8FF06C003
:101D2000F7FF05C0F6FF7492110072A00AD022C01E
:101D300019F023C01AF020C01BF021C01CF019ECD0
:101D400010F025BE05D024C029F025C02AF004D00B
:101D5000000E2A6E000E296E000E286E000E276EF1
:101D60000CD0000E116E200E106E20C012F021C09B
:101D700013F018EC0FF0274A282A2950275C285026
:101D8000800A266E2A50800A2658D8A0EAD772B058
:101D90000AD022C019F023C01AF020C01BF021C0C5
:101DA0001CF019EC10F022C00CF023C00DF04EEC2A
:101DB00010F029500C24206E2A500D20216E1200A4
:101DC000000E116E0DAE06D00C6C0D1ED8B00D2A93
:101DD000010E116E0FAE04D00E6C0F1ED8B00F2A7C
:101DE0000E500F10D8B418D0010E106E04D0D89039
:101DF0000E360F36102A0FAEFAD70E500C5C0F506D
:101E00000D58D8A004D00E500C5E0F500D5AD8902B
:101E10000F320E32102EF1D71150D8B404D00C6C02
:101E20000D1ED8B00D2A0CC00CF00DC00DF0120024
:101E300012501310D8B404D012501310D8A404D0E8
:101E40001050A0EC10F0120020EE04F01250D92631
:101E50001350DA22DE50DE10D8B416D020EE04F093
:101E60001250D9261350DA2210EE02F01250E12659
:101E70001350E222DE50E65CE650800A186EDE5017
:101E8000800A1858D8B0120020EE02F01250D9265D
:101E90001350DA22DE2A000EDD221200310E106EFF
:101EA000B20EE82EFED7102EFCD700D08C94030E75
:101EB0008CEC10F0110E106E3A0EE82EFED7102E9C
:101EC000FCD700D0030E8CEC10F07D0EE82EFED770
:101ED000320E97EC10F0280E97EC10F0080E97ECED
:101EE00010F0010E97EC10F0110E106E3A0EE82E65
:101EF000FED7102EFCD700D0060E97EC10F00F0E78
:101F0000A6EC10F0120062C066F063C067F0000E2D
:101F10006D6E000E6C6E12D060C04FF061C050F05C
:101F2000660E516E000E526E64C053F065C054F0E0
:101F300016EC0CF04F506C2650506D2266C0F6FF28
:101F400067C0F7FF0800F5500009D8A4E5D76CC0BA
:101F500060F06DC061F012006E506F10D8A405D013
:101F60006EC02EF06FC02FF006D0FF0E6E242E6EC6
:101F7000FF0E6F202F6E2DC0C4F0000E0001C56F44
:101F80002BC020F02CC021F0C40E226E000E236E58
:101F90002EC024F02FC025F095EC0EF020C02BF0C1
:101FA00021C02CF01200F00EF66E1F0EF76E000E20
:101FB000F86E00EE80F010EE42F00900F5CFEEFF73
:101FC000E550E150FAE100EEC2F0220EEE6AE806BA
:101FD000FDE100EE6CF0080EEE6AE806FDE174909B
:101FE0007492000EF86E100EF76E000177EF08F095
:101FF000FFFFFFFFFFFFFFFFFFFFFFFFFFFFFFFFF1
:10200000FFFFFFFFFFFFFFFFFFFFFFFFFFFFFFFFE0
:10201000FFFFFFFFFFFFFFFFFFFFFFFFFFFFFFFFD0
:10202000FFFFFFFFFFFFFFFFFFFFFFFF05000700B0
:102030001E00000E1F6E000E1E6E0BD01DC010F095
:10204000116A1BC012F01CC013F018EC0FF01E4AEE
:102050001F2A1E501924D96E1F501A20DA6EDF5025
:102060001D6E1D50D8B41200E9D71FBE05D01F50F9
:1020700010E11E04D8B00DD01EC020F01FC021F00A
:10208000201E211E204A212A20C01EF021C01FF040
:1020900012001EC01EF01FC01FF012000CC00EF078
:1020A0000DC00FF002D00C4A0D2A0CC0D9FF0DC094
:1020B000DAFFDF50D8A4F7D70E500C5C0C6E0F502F
:1020C0000D580D6E1200000EF2BE010E0C6EF29E47
:1020D0008C86140EE82EFED700D08C96530EE82E78
:1020E000FED700F00CB002D0F29E01D0F28E1200AA
:1020F0006A0E0001E66F000EE76F000E606E000EC4
:10210000616E68C062F069C063F0E60E646E000E36
:10211000656E83EC0FF012000D6E8C500F0B8C6E01
:102120000D38F00B8C108C6E63EC10F012000E6EFC
:102130000E380F0B8CEC10F00E508CEC10F01200DF
:102140000F6E8C840F5097EC10F012000F6E8C9471
:082150000F5097EC10F0120093
:020000040020DA
:08000000FFFFFFFFFFFFFFFF00
:020000040030CA
:0E000000FF021F1EFF8381FF0F400FE00F4025
:00000001FF
