:020000040000FA
:0400000007EF00F016
:1000080074823AED06F0DDEF07F0000E8C6E000EFC
:10001800956E0F0EC16EF08658EC07F0F28E000E4A
:100028000001F96F000EF86F000EEC6F000EEB6F19
:10003800000EF76F010EF66F0C0EAEEC08F0010E15
:10004800AEEC08F0110E0001E96F3A0EE82EFED76B
:10005800E92FFCD700F0C50E686EFF0E696E80ECC4
:1000680008F0900EAEEC08F0710E686EFF0E696E27
:1000780080EC08F00001C251D8B4FCD7010EAEECF8
:1000880008F0110E0001E96F3A0EE82EFED7E92FAD
:10009800FCD700F0DA0E686EFE0E696E80EC08F090
:1000A800330E0001EA6FBB0EE96FDF0EE82EFED7B4
:1000B800E92FFCD7EA2FFAD700D0900EAEEC08F063
:1000C8000A0E686EFF0E696E80EC08F0330E0001B0
:1000D800EA6FBB0EE96FDF0EE82EFED7E92FFCD7DB
:1000E800EA2FFAD700D0010EAEEC08F0110E00018D
:1000F800E96F3A0EE82EFED7E92FFCD700F0D00EB4
:10010800686EFF0E696E80EC08F0330E0001EA6F2E
:10011800BB0EE96FDF0EE82EFED7E92FFCD7EA2FDA
:10012800FAD700D0900EAEEC08F0970E686EFF0E6E
:10013800696E80EC08F0D00EAEEC08F01A0E0001E3
:10014800EA6F5E0EE96F6E0EE82EFED7E92FFCD738
:10015800EA2FFAD700F0E40E686EFF0E696E80ECA5
:1001680008F0330E0001EA6FBB0EE96FDF0EE82ED0
:10017800FED7E92FFCD7EA2FFAD700D00001F851B3
:10018800F911D8A428D0F605F711D8A424D0010E67
:10019800AEEC08F0110E0001E96F3A0EE82EFED71A
:1001A800E92FFCD700F0190E686EFF0E696E80EC1F
:1001B80008F0900EAEEC08F0AF0E686EFF0E696E98
:1001C800000E6B6E1E0E6A6E80EC08F0000E0001C9
:1001D800F76F000EF66FF805F911D8A42BD0F605C5
:1001E800F711D8A427D0010EAEEC08F0110E0001CB
:1001F800E96F3A0EE82EFED7E92FFCD700F0800E03
:10020800AEEC08F0370E686EFF0E696E80EC08F0F1
:10021800900EAEEC08F07E0E686EFF0E696EBEC0E2
:100228006AF0BFC06BF080EC08F0000E0001F76FB9
:10023800000EF66F020EF819F911D8A431D0F605A0
:10024800F711D8A42DD0010EAEEC08F0110E000164
:10025800E96F3A0EE82EFED7E92FFCD700F0BA0E68
:10026800686EFF0E696E80EC08F0C00EAEEC08F008
:10027800ED0E686EFF0E696E80EC08F0D00EAEECE5
:1002880008F0F60E686EFF0E696E000E6B6E050EB6
:100298006A6E80EC08F0000E0001F76F000EF66F32
:1002A800030EF819F911D8A434D0F605F711D8A41B
:1002B80030D0010EAEEC08F0110E0001E96F3A0ED5
:1002C800E82EFED7E92FFCD700F0EB0E686EFE0E85
:1002D800696E80EC08F0C00EAEEC08F0A30E686EF4
:1002E800FF0E696E80EC08F0D00EAEEC08F0FB0E45
:1002F800686EFE0E696EFF0E0001BE256A6EFF0E67
:10030800BF216B6E80EC08F0000E0001F76F000E45
:10031800F66FC451D8B440D181380F0B0F0BF36F6F
:10032800000EEE6F000EED6F000EF56F000EF46F0D
:10033800000EF26F010EF16FC30EF325F66EF76A29
:10034800FE0EF7220800F5CFE9F0D00EE925EF6F91
:10035800F06BFF0EF02318D1F451F511D8A446D054
:10036800F105F211D8A442D0010EAEEC08F0110E3E
:100378000001E96F3A0EE82EFED7E92FFCD700F00E
:100388008B0E686EFF0E696EC30E0001F325F66EC4
:10039800F76AFE0EF7220800F5506A6E6B6A80EC69
:1003A80008F0900EAEEC08F0280E686EFF0E696E2D
:1003B800D8900001EF35D96EF035DA6E940ED92653
:1003C800000EDA22DECF6AF0DDCF6BF080EC08F0A9
:1003D800D00EAEEC08F0DA0E686EFF0E696E80EC97
:1003E80008F0000E0001F26F000EF16FF405F51130
:1003F800D8A44DD0F105F211D8A449D0010EAEEC25
:1004080008F0110E0001E96F3A0EE82EFED7E92F29
:10041800FCD700F08B0E686EFF0E696EC30E0001EC
:10042800F325F66EF76AFE0EF7220800F5506A6E9D
:100438006B6A80EC08F0900EAEEC08F0D8900001E2
:10044800EF35D96EF035DA6EA80ED926000EDA220D
:10045800DE04DE10D8A407D0630E686EFF0E696E46
:1004680080EC08F006D0460E686EFF0E696E80ECD0
:1004780008F0D00EAEEC08F0DA0E686EFF0E696E6A
:1004880080EC08F0000E0001F26F000EF16F020E12
:10049800F419F511D8A44DD0F105F211D8A449D01A
:1004A800010EAEEC08F0110E0001E96F3A0EE82ECD
:1004B800FED7E92FFCD700F08B0E686EFF0E696E31
:1004C800C30E0001F325F66EF76AFE0EF722080048
:1004D800F5506A6E6B6A80EC08F0900EAEEC08F08E
:1004E800D8900001EF35D96EF035DA6E800ED92636
:1004F800000EDA22DE04DE10D8A407D0580E686E8B
:10050800FF0E696E80EC08F006D0550E686EFF0E7F
:10051800696E80EC08F0D00EAEEC08F0DA0E686E6A
:10052800FF0E696E80EC08F0000E0001F26F000EFD
:10053800F16FB80EED191DE10B0EEE19D8A419D004
:10054800000EF26F010EF16FF44BF52BF4C00CF0B6
:10055800F5C00DF0000E0F6E030E0E6EEAEC06F0FD
:100568000CC0F4F00DC0F5F0000E0001EE6F000EA7
:10057800ED6FED4BEE2B040E0001E96F3D0EE82EFA
:10058800FED7E92FFCD700D00001C351D8B4E4D678
:10059800000EC46F000EC36FD00EEB1912E1070EE8
:1005A800EC19D8A40ED0000EF76F010EF66FF84BB9
:1005B800F92B030EF815F86FF96B000EEC6F000EAF
:1005C800EB6FEB4BEC2B040E0001E96F3D0EE82EB0
:1005D800FED7E92FFCD7D1D52DC045F02EC046F067
:1005E8002FC047F030C048F031C049F032C04AF05F
:1005F80033C04BF034C04CF04CAE02D0010E01D0E9
:10060800000E436E446A43504410D8B410D04C1EB8
:100618004B1E4A1E491E481E471E461E456C000EAC
:1006280046224722482249224A224B224C2271AEB6
:10063800729271BE05D0715008E17004D8B005D02F
:10064800000E406E010E3F6E04D070C03FF071C0C6
:1006580040F06EC041F06FC042F043504410D8A43F
:1006680002D072A403D04106D8A04206000E4E6EF6
:100678001F0E4D6E000E0001E46F7CD04D06D8A011
:100688004E06C50E4D24D96E000E4E20DA6E45C0BA
:100698000CF046C00DF047C00EF048C00FF049C03E
:1006A80010F04AC011F04BC012F04CC013F00A0E03
:1006B800146E000E156E000E166E000E176E000EEC
:1006C800186E000E196E000E1A6E000E1B6EA8EC46
:1006D80005F00CC035F00DC036F00EC037F00FC075
:1006E80038F010C039F011C03AF012C03BF013C016
:1006F8003CF035C01EF037C01FF03DEC08F01E502E
:10070800300FDF6E3F06D8A040064106D8A042064B
:1007180045C00CF046C00DF047C00EF048C00FF0C1
:1007280049C010F04AC011F04BC012F04CC013F091
:100738000A0E146E000E156E000E166E000E176E61
:10074800000E186E000E196E000E1A6E000E1B6E4B
:1007580004EC05F00CC045F00DC046F00EC047F0A3
:100768000FC048F010C049F011C04AF012C04BF059
:1007780013C04CF04EBE1FD04E5003E14D04D8A01C
:100788001AD0455046104710481049104A104B10CF
:100798004C10D8A473D740BE05D0405002E13F04A6
:1007A800D8B06CD742BE07D0425003E14104D8A06C
:1007B80002D072B263D743504410D8A402D072A4B6
:1007C80017D04D06D8A04E0643504410D8A404D0E4
:1007D800000E3E6E2B0E03D0000E3E6E2D0E3D6EAB
:1007E800C50E4D24D96E000E4E20DA6E3DC0DFFFD7
:1007F8002BC020F02CC021F0C50E4D24226E000E17
:100808004E20236E41C024F042C025F09FEC06F034
:1008180020C02BF021C02CF0120051C0D9FF52C0CB
:10082800DAFFDECFF6FFDDCFF7FF0800F550250A27
:10083800D8A4CCD051C0D9FF52C0DAFFDE2A000EAE
:10084800DD22000E6F6E000E6E6E6EC072F06FC00D
:1008580073F07068716851C0D9FF52C0DAFFDECFFB
:10086800F6FFDDCFF7FF0800F550630AD8A426D0BD
:1008780051C0D9FF52C0DAFFDE2A000EDD2253C074
:10088800D9FF54C0DAFFDFCF55F0020EDE26DFCFE6
:1008980056F0000EDD2255C0D9FF56C0DAFFDF50F2
:1008A8005F6E4FC02BF050C02CF05FC02DF0B6EC3F
:1008B80007F02BC04FF02CC050F0120051C0D9FFE8
:1008C80052C0DAFFDECFF6FFDDCFF7FF0800F550A4
:1008D800640AD8B40DD051C0D9FF52C0DAFFDECFB8
:1008E800F6FFDDCFF7FF0800F550690AD8A43FD01E
:1008F80051C0D9FF52C0DAFFDE2A000EDD2253C0F4
:10090800D9FF54C0DAFFDFCF55F0020EDE26DFCF65
:1009180056F0000EDD2255C0D9FF56C0DAFFDECFF3
:1009280057F0DDCF58F0000E58BEFF0E596E5A6EC4
:100938005B6E5C6E5D6E5E6E4FC02BF050C02CF02F
:1009480057C02DF058C02EF059C02FF05AC030F0C3
:100958005BC031F05CC032F05DC033F05EC034F093
:10096800F0EC02F02BC04FF02CC050F0120051C038
:10097800D9FF52C0DAFFDECFF6FFDDCFF7FF080060
:10098800F550250AD8A416D051C0D9FF52C0DAFFB5
:10099800DE2A000EDD22000E116E250E106E4FC0ED
:1009A80012F050C013F022EC07F0000E506E010E4A
:1009B8004F6E120051C0D9FF52C0DAFFDE2A000E76
:1009C800DD22000E506E000E4F6E120051C0D9FF8E
:1009D80052C0DAFFDECFF6FFDDCFF7FF0800F55093
:1009E800106E116A4FC012F050C013F022EC07F0DD
:1009F80051C0D9FF52C0DAFFDE2A000EDD22D5D75A
:100A0800000E1D6E1BAE12D01B1E1A1E191E181EBC
:100A1800171E161E151E146C000E152216221722FC
:100A2800182219221A221B22010E1D6E13AE12D093
:100A3800131E121E111E101E0F1E0E1E0D1E0C6CF4
:100A4800000E0D220E220F22102211221222132232
:100A5800010E1D1A20EE1EF0070EDE6AE806FDE202
:100A68001450151016101710181019101A101B1002
:100A7800D8B446D0010E1C6E0AD0D890143615365C
:100A880016361736183619361A361B361C2A1BAE78
:100A9800F4D7D8901E361F36203621362236233614
:100AA8002436253614500C5C15500D5816500E5827
:100AB80017500F5818501058195011581A501258EA
:100AC8001B501358D8A011D014500C5E15500D5A55
:100AD80016500E5A17500F5A1850105A1950115ACA
:100AE8001A50125A1B50135A1E80D8901B321A32B1
:100AF8001932183217321632153214321C2EC9D751
:100B08001D50D8B410D0251E241E231E221E211EBF
:100B1800201E1F1E1E6C000E1F22202221222222B0
:100B28002322242225221EC00CF01FC00DF020C055
:100B38000EF021C00FF022C010F023C011F024C025
:100B480012F025C013F01200000E1D6E13AE12D065
:100B5800131E121E111E101E0F1E0E1E0D1E0C6CD3
:100B6800000E0D220E220F22102211221222132211
:100B7800010E1D6E1BAE10D01B1E1A1E191E181E4C
:100B8800171E161E151E146C000E1522162217228B
:100B9800182219221A221B22145015101610171089
:100BA800181019101A101B10D8B43CD0010E1C6E66
:100BB8000AD0D89014361536163617361836193620
:100BC8001A361B361C2A1BAEF4D714500C5C155071
:100BD8000D5816500E5817500F58185010581950D5
:100BE80011581A5012581B501358D8A010D014502E
:100BF8000C5E15500D5A16500E5A17500F5A1850B1
:100C0800105A1950115A1A50125A1B50135AD89088
:100C18001B321A3219321832173216321532143280
:100C28001C2ED3D71D50D8B410D0131E121E111E5F
:100C3800101E0F1E0E1E0D1E0C6C000E0D220E2215
:100C48000F2210221122122213220CC00CF00DC008
:100C58000DF00EC00EF00FC00FF010C010F011C054
:100C680011F012C012F013C013F012000600F6CFF4
:100C780005F0F7CF06F0F8CF07F0F5CF08F0F0A0B1
:100C880050D0F09081380F0B0F0B0B6EC30E0B2456
:100C9800F66EF76AFE0EF7220800F550410AD8A44E
:100CA80004D0010E0001C26F3CD0C30E0B24F66EB7
:100CB800F76AFE0EF7220800F5502A0AD8A404D0D5
:100CC800010E0001C36F2DD0000E0A6E000E096ED2
:100CD8001DD0C30E0B24F66EF76AFE0EF72208002D
:100CE800F550016E026A0950036E046A300E03263D
:100CF800000E04220150031807E102500418D8A47A
:100D080003D0010EC46F0DD0094A0A2A0001BE5152
:100D1800095C0A50800A016EBF51800A0158D8A0A8
:100D2800D8D708C0F5FF07C0F8FF06C0F7FF05C011
:100D3800F6FF7492110072A00AD022C019F023C0E5
:100D48001AF020C01BF021C01CF021EC08F025BED1
:100D580005D024C029F025C02AF004D0000E2A6E40
:100D6800000E296E000E286E000E276E0CD0000EA5
:100D7800116E200E106E20C012F021C013F022EC6C
:100D880007F0274A282A2950275C2850800A266E0F
:100D98002A50800A2658D8A0EAD772B00AD022C0B2
:100DA80019F023C01AF020C01BF021C01CF021EC60
:100DB80008F022C00CF023C00DF056EC08F02950C2
:100DC8000C24206E2A500D20216E1200000E116E88
:100DD8000DAE06D00C6C0D1ED8B00D2A010E116E8A
:100DE8000FAE04D00E6C0F1ED8B00F2A0E500F1085
:100DF800D8B418D0010E106E04D0D8900E360F3625
:100E0800102A0FAEFAD70E500C5C0F500D58D8A010
:100E180004D00E500C5E0F500D5AD8900F320E327F
:100E2800102EF1D71150D8B404D00C6C0D1ED8B0C8
:100E38000D2A0CC00CF00DC00DF01200125013104A
:100E4800D8B404D012501310D8A404D01050A8EC71
:100E580008F0120020EE04F01250D9261350DA22BE
:100E6800DE50DE10D8B416D020EE04F01250D92689
:100E78001350DA2210EE02F01250E1261350E2224B
:100E8800DE50E65CE650800A186EDE50800A18587C
:100E9800D8B0120020EE02F01250D9261350DA22F0
:100EA800DE2A000EDD221200310E106EB20EE82E80
:100EB800FED7102EFCD700D08C94030E94EC08F0CB
:100EC800110E106E3A0EE82EFED7102EFCD700D069
:100ED800030E94EC08F07D0EE82EFED7320E9FEC40
:100EE80008F0280E9FEC08F0080E9FEC08F0010EA1
:100EF8009FEC08F0110E106E3A0EE82EFED7102E59
:100F0800FCD700D0060E9FEC08F00F0EAEEC08F0F0
:100F1800120062C066F063C067F0000E6D6E000ECE
:100F28006C6E12D060C04FF061C050F0660E516E0A
:100F3800000E526E64C053F065C054F011EC04F01A
:100F48004F506C2650506D2266C0F6FF67C0F7FF01
:100F58000800F5500009D8A4E5D76CC060F06DC052
:100F680061F012006E506F10D8A405D06EC02EF03C
:100F78006FC02FF006D0FF0E6E242E6EFF0E6F206E
:100F88002F6E2DC0C5F0000E0001C66F2BC020F0DB
:100F98002CC021F0C50E226E000E236E2EC024F048
:100FA8002FC025F09FEC06F020C02BF021C02CF0BC
:100FB8001200000EF66E100EF76E000EF86E00EEC0
:100FC80080F010EE42F00900F5CFEEFFE550E15059
:100FD800FAE100EEC2F0230EEE6AE806FDE100EE4B
:100FE8006CF0080EEE6AE806FDE174907492000E4B
:100FF800F86E000109EF00F0010001000100000097
:101008000000010001000000FFFFFFFF14001E00A8
:1010180028003B007B00D4004C019001FFFFFFFF3C
:1010280001000100010000000000010001000000B3
:10103800FFFFFFFF050008001E00000E1F6E000ED8
:101048001E6E0BD01DC010F0116A1BC012F01CC020
:1010580013F022EC07F01E4A1F2A1E501924D96EDD
:101068001F501A20DA6EDF501D6E1D50D8B41200C2
:10107800E9D71FBE05D01F5010E11E04D8B00DD00F
:101088001EC020F01FC021F0201E211E204A212A48
:1010980020C01EF021C01FF012001EC01EF01FC08D
:1010A8001FF012000CC00EF00DC00FF002D00C4A59
:1010B8000D2A0CC0D9FF0DC0DAFFDF50D8A4F7D72E
:1010C8000E500C5C0C6E0F500D580D6E1200000E79
:1010D800F2BE010E0C6EF29E8C86140EE82EFED720
:1010E80000D08C96530EE82EFED700F00CB002D03C
:1010F800F29E01D0F28E12006A0E0001E76F000E18
:10110800E86F000E606E000E616E68C062F069C024
:1011180063F0E70E646E000E656E8DEC07F012004A
:101128000D6E8C500F0B8C6E0D38F00B8C108C6E76
:101138006BEC08F012000E6E0E380F0B94EC08F0F2
:101148000E5094EC08F012000F6E8C840F509FEC38
:1011580008F012000F6E8C940F509FEC08F01200EC
:10FEC200003132334134353642373839432A302310
:10FED20044005010400004104974277320796120B7
:10FEE200626F7920416C692100496E6469766964A8
:10FEF20075616C20496E666F0050726573732030B5
:10FF020020746F2025642000486520676574746939
:10FF12006E20686F7420004F7065726174696F6E35
:10FF22002054696D650044697374616E63652025B0
:10FF32006420636D0023206F662043616E697374D1
:10FF42006572730043616E697374657220456D70EA
:10FF52007479004E6F2042616C6C20416464656468
:10FF62000043616E69737465722046756C6C004162
:10FF720020666F7220416C69203B29002564204372
:10FF8200616E6973746572730043616E736974653F
:10FF92007220256300416C6D6F737420646F6E650F
:10FFA200006F662043616E69737465720025642078
:10FFB2007365636F6E64730023206F662042616C09
:10FFC2006C73004120746F2073746172740048690D
:10FFD2002043756C6C2021002A20746F206578699B
:10FFE2007400414E4420444F4E4500737570706C4E
:0EFFF2006965640025642062616C6C73000018
:020000040020DA
:08000000FFFFFFFFFFFFFFFF00
:020000040030CA
:0E000000FF021F1EFF8381FF0F400FE00F4025
:00000001FF
