:020000040000FA
:0400000007EF00F016
:10000800748262ED06F005EF08F0000E8C6E000EAB
:10001800956E0F0EC16EF08680EC07F0F28E000E22
:100028000001F96F000EF86F000EEC6F000EEB6F19
:10003800000EF76F010EF66F0C0ED6EC08F0010EED
:10004800D6EC08F0110E0001E96F3A0EE82EFED743
:10005800E92FFCD700F0C40E686EFF0E696EA8EC9D
:1000680008F0900ED6EC08F0640E686EFF0E696E0C
:10007800A8EC08F00001C251D8B4FCD7010ED6ECA8
:1000880008F0110E0001E96F3A0EE82EFED7E92FAD
:10009800FCD700F0BE0E686EFE0E696EA8EC08F084
:1000A800330E0001EA6FBB0EE96FDF0EE82EFED7B4
:1000B800E92FFCD7EA2FFAD700D0900ED6EC08F03B
:1000C800EE0E686EFE0E696EA8EC08F0330E0001A5
:1000D800EA6FBB0EE96FDF0EE82EFED7E92FFCD7DB
:1000E800EA2FFAD700D0010ED6EC08F0110E000165
:1000F800E96F3A0EE82EFED7E92FFCD700F0CF0EB5
:10010800686EFF0E696EA8EC08F0330E0001EA6F06
:10011800BB0EE96FDF0EE82EFED7E92FFCD7EA2FDA
:10012800FAD700D0900ED6EC08F0960E686EFF0E47
:10013800696EA8EC08F0D00ED6EC08F01A0E000193
:10014800EA6F5E0EE96F6E0EE82EFED7E92FFCD738
:10015800EA2FFAD700F0E30E686EFF0E696EA8EC7E
:1001680008F0330E0001EA6FBB0EE96FDF0EE82ED0
:10017800FED7E92FFCD7EA2FFAD700D0010ED6EC2C
:1001880008F0110E0001E96F3A0EE82EFED7E92FAC
:10019800FCD700F02A0E686EFF0E696EA8EC08F016
:1001A800900ED6EC08F07E0E686EFF0E696EA8EC15
:1001B80008F0330E0001EA6FBB0EE96FDF0EE82E80
:1001C800FED7E92FFCD7EA2FFAD700D00001F85163
:1001D800F911D8A428D0F605F711D8A424D0010E17
:1001E800D6EC08F0110E0001E96F3A0EE82EFED7A2
:1001F800E92FFCD700F0FD0E686EFE0E696EA8ECC4
:1002080008F0900ED6EC08F0AE0E686EFF0E696E20
:10021800000E6B6E1E0E6A6EA8EC08F0000E000150
:10022800F76F000EF66FF805F911D8A42BD0F60574
:10023800F711D8A427D0010ED6EC08F0110E000152
:10024800E96F3A0EE82EFED7E92FFCD700F0800EB2
:10025800D6EC08F01B0E686EFF0E696EA8EC08F06D
:10026800900ED6EC08F0710E686EFF0E696EBEC077
:100278006AF0BFC06BF0A8EC08F0000E0001F76F41
:10028800000EF66F020EF819F911D8A431D0F60550
:10029800F711D8A42DD0010ED6EC08F0110E0001EC
:1002A800E96F3A0EE82EFED7E92FFCD700F0B90E19
:1002B800686EFF0E696EA8EC08F0C00ED6EC08F068
:1002C800EC0E686EFF0E696EA8EC08F0D00ED6EC46
:1002D80008F0F50E686EFF0E696E000E6B6E050E67
:1002E8006A6EA8EC08F0000E0001F76F000EF66FBA
:1002F800030EF819F911D8A434D0F605F711D8A4CB
:1003080030D0010ED6EC08F0110E0001E96F3A0E5C
:10031800E82EFED7E92FFCD700F0CF0E686EFE0E50
:10032800696EA8EC08F0C00ED6EC08F0A20E686E54
:10033800FF0E696EA8EC08F0D00ED6EC08F0DF0EC0
:10034800686EFE0E696EFF0E0001BE256A6EFF0E16
:10035800BF216B6EA8EC08F0000E0001F76F000ECD
:10036800F66FC451D8B440D181380F0B0F0BF36F1F
:10037800000EEE6F000EED6F000EF56F000EF46FBD
:10038800000EF26F010EF16FA70EF325F66EF76AF5
:10039800FE0EF7220800F5CFE9F0D00EE925EF6F41
:1003A800F06BFF0EF02318D1F451F511D8A446D004
:1003B800F105F211D8A442D0010ED6EC08F0110EC6
:1003C8000001E96F3A0EE82EFED7E92FFCD700F0BE
:1003D8008A0E686EFF0E696EA70E0001F325F66E91
:1003E800F76AFE0EF7220800F5506A6E6B6AA8ECF1
:1003F80008F0900ED6EC08F00C0E686EFF0E696ED1
:10040800D8900001EF35D96EF035DA6E940ED92602
:10041800000EDA22DECF6AF0DDCF6BF0A8EC08F030
:10042800D00ED6EC08F0D90E686EFF0E696EA8ECF7
:1004380008F0000E0001F26F000EF16FF405F511DF
:10044800D8A44DD0F105F211D8A449D0010ED6ECAC
:1004580008F0110E0001E96F3A0EE82EFED7E92FD9
:10046800FCD700F08A0E686EFF0E696EA70E0001B9
:10047800F325F66EF76AFE0EF7220800F5506A6E4D
:100488006B6AA8EC08F0900ED6EC08F0D890000142
:10049800EF35D96EF035DA6EA80ED926000EDA22BD
:1004A800DE04DE10D8A407D0560E686EFF0E696E03
:1004B800A8EC08F006D0390E686EFF0E696EA8EC3D
:1004C80008F0D00ED6EC08F0D90E686EFF0E696EF3
:1004D800A8EC08F0000E0001F26F000EF16F020E9A
:1004E800F419F511D8A44DD0F105F211D8A449D0CA
:1004F800010ED6EC08F0110E0001E96F3A0EE82E55
:10050800FED7E92FFCD700F08A0E686EFF0E696EE1
:10051800A70E0001F325F66EF76AFE0EF722080013
:10052800F5506A6E6B6AA8EC08F0900ED6EC08F0ED
:10053800D8900001EF35D96EF035DA6E800ED926E5
:10054800000EDA22DE04DE10D8A407D04B0E686E47
:10055800FF0E696EA8EC08F006D0480E686EFF0E14
:10056800696EA8EC08F0D00ED6EC08F0D90E686ECB
:10057800FF0E696EA8EC08F0000E0001F26F000E85
:10058800F16FB80EED191DE10B0EEE19D8A419D0B4
:10059800000EF26F010EF16FF44BF52BF4C00CF066
:1005A800F5C00DF0000E0F6E030E0E6E12EC07F084
:1005B8000CC0F4F00DC0F5F0000E0001EE6F000E57
:1005C800ED6FED4BEE2B040E0001E96F3D0EE82EAA
:1005D800FED7E92FFCD700D00001C351D8B4E4D628
:1005E800000EC46F000EC36FD00EEB1912E1070E98
:1005F800EC19D8A40ED0000EF76F010EF66FF84B69
:10060800F92B030EF815F86FF96B000EEC6F000E5E
:10061800EB6FEB4BEC2B040E0001E96F3D0EE82E5F
:10062800FED7E92FFCD7D1D52DC045F02EC046F016
:100638002FC047F030C048F031C049F032C04AF00E
:1006480033C04BF034C04CF04CAE02D0010E01D098
:10065800000E436E446A43504410D8B410D04C1E68
:100668004B1E4A1E491E481E471E461E456C000E5C
:1006780046224722482249224A224B224C2271AE66
:10068800729271BE05D0715008E17004D8B005D0DF
:10069800000E406E010E3F6E04D070C03FF071C076
:1006A80040F06EC041F06FC042F043504410D8A4EF
:1006B80002D072A403D04106D8A04206000E4E6EA6
:1006C8001F0E4D6E000E0001E46F7CD04D06D8A0C1
:1006D8004E06C50E4D24D96E000E4E20DA6E45C06A
:1006E8000CF046C00DF047C00EF048C00FF049C0EE
:1006F80010F04AC011F04BC012F04CC013F00A0EB3
:10070800146E000E156E000E166E000E176E000E9B
:10071800186E000E196E000E1A6E000E1B6ED0ECCD
:1007280005F00CC035F00DC036F00EC037F00FC024
:1007380038F010C039F011C03AF012C03BF013C0C5
:100748003CF035C01EF037C01FF065EC08F01E50B5
:10075800300FDF6E3F06D8A040064106D8A04206FB
:1007680045C00CF046C00DF047C00EF048C00FF071
:1007780049C010F04AC011F04BC012F04CC013F041
:100788000A0E146E000E156E000E166E000E176E11
:10079800000E186E000E196E000E1A6E000E1B6EFB
:1007A8002CEC05F00CC045F00DC046F00EC047F02B
:1007B8000FC048F010C049F011C04AF012C04BF009
:1007C80013C04CF04EBE1FD04E5003E14D04D8A0CC
:1007D8001AD0455046104710481049104A104B107F
:1007E8004C10D8A473D740BE05D0405002E13F0456
:1007F800D8B06CD742BE07D0425003E14104D8A01C
:1008080002D072B263D743504410D8A402D072A465
:1008180017D04D06D8A04E0643504410D8A404D093
:10082800000E3E6E2B0E03D0000E3E6E2D0E3D6E5A
:10083800C50E4D24D96E000E4E20DA6E3DC0DFFF86
:100848002BC020F02CC021F0C50E4D24226E000EC6
:100858004E20236E41C024F042C025F0C7EC06F0BC
:1008680020C02BF021C02CF0120051C0D9FF52C07B
:10087800DAFFDECFF6FFDDCFF7FF0800F550250AD7
:10088800D8A4CCD051C0D9FF52C0DAFFDE2A000E5E
:10089800DD22000E6F6E000E6E6E6EC072F06FC0BD
:1008A80073F07068716851C0D9FF52C0DAFFDECFAB
:1008B800F6FFDDCFF7FF0800F550630AD8A426D06D
:1008C80051C0D9FF52C0DAFFDE2A000EDD2253C024
:1008D800D9FF54C0DAFFDFCF55F0020EDE26DFCF96
:1008E80056F0000EDD2255C0D9FF56C0DAFFDF50A2
:1008F8005F6E4FC02BF050C02CF05FC02DF0DEECC7
:1009080007F02BC04FF02CC050F0120051C0D9FF97
:1009180052C0DAFFDECFF6FFDDCFF7FF0800F55053
:10092800640AD8B40DD051C0D9FF52C0DAFFDECF67
:10093800F6FFDDCFF7FF0800F550690AD8A43FD0CD
:1009480051C0D9FF52C0DAFFDE2A000EDD2253C0A3
:10095800D9FF54C0DAFFDFCF55F0020EDE26DFCF15
:1009680056F0000EDD2255C0D9FF56C0DAFFDECFA3
:1009780057F0DDCF58F0000E58BEFF0E596E5A6E74
:100988005B6E5C6E5D6E5E6E4FC02BF050C02CF0DF
:1009980057C02DF058C02EF059C02FF05AC030F073
:1009A8005BC031F05CC032F05DC033F05EC034F043
:1009B80018EC03F02BC04FF02CC050F0120051C0BF
:1009C800D9FF52C0DAFFDECFF6FFDDCFF7FF080010
:1009D800F550250AD8A416D051C0D9FF52C0DAFF65
:1009E800DE2A000EDD22000E116E250E106E4FC09D
:1009F80012F050C013F04AEC07F0000E506E010ED2
:100A08004F6E120051C0D9FF52C0DAFFDE2A000E25
:100A1800DD22000E506E000E4F6E120051C0D9FF3D
:100A280052C0DAFFDECFF6FFDDCFF7FF0800F55042
:100A3800106E116A4FC012F050C013F04AEC07F064
:100A480051C0D9FF52C0DAFFDE2A000EDD22D5D709
:100A5800000E1D6E1BAE12D01B1E1A1E191E181E6C
:100A6800171E161E151E146C000E152216221722AC
:100A7800182219221A221B22010E1D6E13AE12D043
:100A8800131E121E111E101E0F1E0E1E0D1E0C6CA4
:100A9800000E0D220E220F221022112212221322E2
:100AA800010E1D1A20EE1EF0070EDE6AE806FDE2B2
:100AB8001450151016101710181019101A101B10B2
:100AC800D8B446D0010E1C6E0AD0D890143615360C
:100AD80016361736183619361A361B361C2A1BAE28
:100AE800F4D7D8901E361F362036213622362336C4
:100AF8002436253614500C5C15500D5816500E58D7
:100B080017500F5818501058195011581A50125899
:100B18001B501358D8A011D014500C5E15500D5A04
:100B280016500E5A17500F5A1850105A1950115A79
:100B38001A50125A1B50135A1E80D8901B321A3260
:100B48001932183217321632153214321C2EC9D700
:100B58001D50D8B410D0251E241E231E221E211E6F
:100B6800201E1F1E1E6C000E1F2220222122222260
:100B78002322242225221EC00CF01FC00DF020C005
:100B88000EF021C00FF022C010F023C011F024C0D5
:100B980012F025C013F01200000E1D6E13AE12D015
:100BA800131E121E111E101E0F1E0E1E0D1E0C6C83
:100BB800000E0D220E220F221022112212221322C1
:100BC800010E1D6E1BAE10D01B1E1A1E191E181EFC
:100BD800171E161E151E146C000E1522162217223B
:100BE800182219221A221B22145015101610171039
:100BF800181019101A101B10D8B43CD0010E1C6E16
:100C08000AD0D890143615361636173618361936CF
:100C18001A361B361C2A1BAEF4D714500C5C155020
:100C28000D5816500E5817500F5818501058195084
:100C380011581A5012581B501358D8A010D01450DD
:100C48000C5E15500D5A16500E5A17500F5A185060
:100C5800105A1950115A1A50125A1B50135AD89038
:100C68001B321A3219321832173216321532143230
:100C78001C2ED3D71D50D8B410D0131E121E111E0F
:100C8800101E0F1E0E1E0D1E0C6C000E0D220E22C5
:100C98000F2210221122122213220CC00CF00DC0B8
:100CA8000DF00EC00EF00FC00FF010C010F011C004
:100CB80011F012C012F013C013F012000600F6CFA4
:100CC80005F0F7CF06F0F8CF07F0F5CF08F0F0A061
:100CD80050D0F09081380F0B0F0B0B6EA70E0B2422
:100CE800F66EF76AFE0EF7220800F550410AD8A4FE
:100CF80004D0010E0001C26F3CD0A70E0B24F66E83
:100D0800F76AFE0EF7220800F5502A0AD8A404D084
:100D1800010E0001C36F2DD0000E0A6E000E096E81
:100D28001DD0A70E0B24F66EF76AFE0EF7220800F8
:100D3800F550016E026A0950036E046A300E0326EC
:100D4800000E04220150031807E102500418D8A429
:100D580003D0010EC46F0DD0094A0A2A0001BE5102
:100D6800095C0A50800A016EBF51800A0158D8A058
:100D7800D8D708C0F5FF07C0F8FF06C0F7FF05C0C1
:100D8800F6FF7492110072A00AD022C019F023C095
:100D98001AF020C01BF021C01CF049EC08F025BE59
:100DA80005D024C029F025C02AF004D0000E2A6EF0
:100DB800000E296E000E286E000E276E0CD0000E55
:100DC800116E200E106E20C012F021C013F04AECF4
:100DD80007F0274A282A2950275C2850800A266EBF
:100DE8002A50800A2658D8A0EAD772B00AD022C062
:100DF80019F023C01AF020C01BF021C01CF049ECE8
:100E080008F022C00CF023C00DF07EEC08F0295049
:100E18000C24206E2A500D20216E1200000E116E37
:100E28000DAE06D00C6C0D1ED8B00D2A010E116E39
:100E38000FAE04D00E6C0F1ED8B00F2A0E500F1034
:100E4800D8B418D0010E106E04D0D8900E360F36D4
:100E5800102A0FAEFAD70E500C5C0F500D58D8A0C0
:100E680004D00E500C5E0F500D5AD8900F320E322F
:100E7800102EF1D71150D8B404D00C6C0D1ED8B078
:100E88000D2A0CC00CF00DC00DF0120012501310FA
:100E9800D8B404D012501310D8A404D01050D0ECF9
:100EA80008F0120020EE04F01250D9261350DA226E
:100EB800DE50DE10D8B416D020EE04F01250D92639
:100EC8001350DA2210EE02F01250E1261350E222FB
:100ED800DE50E65CE650800A186EDE50800A18582C
:100EE800D8B0120020EE02F01250D9261350DA22A0
:100EF800DE2A000EDD221200310E106EB20EE82E30
:100F0800FED7102EFCD700D08C94030EBCEC08F052
:100F1800110E106E3A0EE82EFED7102EFCD700D018
:100F2800030EBCEC08F07D0EE82EFED7320EC7EC9F
:100F380008F0280EC7EC08F0080EC7EC08F0010E00
:100F4800C7EC08F0110E106E3A0EE82EFED7102EE0
:100F5800FCD700D0060EC7EC08F00F0ED6EC08F050
:100F6800120062C066F063C067F0000E6D6E000E7E
:100F78006C6E12D060C04FF061C050F0660E516EBA
:100F8800000E526E64C053F065C054F039EC04F0A2
:100F98004F506C2650506D2266C0F6FF67C0F7FFB1
:100FA8000800F5500009D8A4E5D76CC060F06DC002
:100FB80061F012006E506F10D8A405D06EC02EF0EC
:100FC8006FC02FF006D0FF0E6E242E6EFF0E6F201E
:100FD8002F6E2DC0C5F0000E0001C66F2BC020F08B
:100FE8002CC021F0C50E226E000E236E2EC024F0F8
:100FF8002FC025F0C7EC06F020C02BF021C02CF044
:101008001200500EF66E100EF76E000EF86E00EE1F
:1010180080F010EE42F00900F5CFEEFFE550E15008
:10102800FAE100EEC2F0230EEE6AE806FDE100EEFA
:101038006CF0080EEE6AE806FDE174907492000EFA
:10104800F86E000109EF00F0010001000100000046
:101058000000010001000000FFFFFFFF14001E0058
:1010680028003B007B00D4004C019001FFFFFFFFEC
:101078000100010001000000000001000100000063
:10108800FFFFFFFF050008001E00000E1F6E000E88
:101098001E6E0BD01DC010F0116A1BC012F01CC0D0
:1010A80013F04AEC07F01E4A1F2A1E501924D96E65
:1010B8001F501A20DA6EDF501D6E1D50D8B4120072
:1010C800E9D71FBE05D01F5010E11E04D8B00DD0BF
:1010D8001EC020F01FC021F0201E211E204A212AF8
:1010E80020C01EF021C01FF012001EC01EF01FC03D
:1010F8001FF012000CC00EF00DC00FF002D00C4A09
:101108000D2A0CC0D9FF0DC0DAFFDF50D8A4F7D7DD
:101118000E500C5C0C6E0F500D580D6E1200000E28
:10112800F2BE010E0C6EF29E8C86140EE82EFED7CF
:1011380000D08C96530EE82EFED700F00CB002D0EB
:10114800F29E01D0F28E12006A0E0001E76F000EC7
:10115800E86F000E606E000E616E68C062F069C0D4
:1011680063F0E70E646E000E656EB5EC07F01200D2
:101178000D6E8C500F0B8C6E0D38F00B8C108C6E26
:1011880093EC08F012000E6E0E380F0BBCEC08F052
:101198000E50BCEC08F012000F6E8C840F50C7EC98
:1011A80008F012000F6E8C940F50C7EC08F0120074
:10FEA600003132334134353642373839432A30232C
:10FEB60044005010400004104974277320796120D3
:10FEC600626F7920416C692100496E6469766964C4
:10FED60075616C20496E666F0050726573732030D1
:10FEE60020746F2025642000486520676574746956
:10FEF6006E20686F7420004F7065726174696F6E52
:10FF06002054696D650044697374616E63652025CC
:10FF16006420636D0023206F662043616E697374ED
:10FF26006572730043616E697374657220496E640D
:10FF360065780043616E697374657220456D7074EF
:10FF460079004E6F2042616C6C20416464656400E8
:10FF560043616E69737465722046756C6C0041204E
:10FF6600666F7220416C69203B290025642043613D
:10FF76006E69737465727300737461727473206151
:10FF86007420300043616E736974657220256300C6
:10FF9600416C6D6F737420646F6E65006F662043ED
:10FFA600616E6973746572002564207365636F6E94
:10FFB60064730023206F662042616C6C73004120DD
:10FFC600746F2073746172740048692043756C6C99
:10FFD6002021002A20746F206578697400414E4400
:10FFE60020444F4E4500737570706C69656400253A
:09FFF600642062616C6C73000070
:020000040020DA
:08000000FFFFFFFFFFFFFFFF00
:020000040030CA
:0E000000FF021F1EFF8381FF0F400FE00F4025
:00000001FF
